:020000040800F2
:1000000000000120BD560008E5550008E75500082E
:10001000E9550008EB550008ED5500080000000008
:10002000000000000000000000000000112F000888
:10003000EF55000800000000A12F0008F15500084E
:100040000157000801570008015700080157000830
:100050000157000801570008015700080157000820
:100060000157000801570008015700080157000810
:100070000157000801570008015600080157000801
:1000800001570008015700080D56000801570008E5
:1000900001570008015700080157000801570008E0
:1000A00001570008015700080157000801570008D0
:1000B00001570008195600080157000801570008A9
:1000C00001570008015700080157000801570008B0
:1000D000015700082556000801570008015700087D
:1000E00001570008015700080157000800000000F0
:1000F0000000000000000000000000000000000000
:10010000000000000000000001570008015700082F
:10011000015700080157000801570008015700085F
:10012000015700080157000801570008015700084F
:1001300001570008000000000000000001570008FF
:10014000015700080157000801570008015700082F
:10015000000000000000000000000000000000009F
:10016000000000000000000000000000000000008F
:10017000000000000000000000000000000000007F
:10018000000000000000000000000000000000006F
:10019000000000000000000000000000000000005F
:1001A000000000000000000000000000000000004F
:1001B000000000000000000000000000000000003F
:1001C000000000000000000000000000000000002F
:1001D000000000000000000000000000000000001F
:0401E0005FF8E0F1F3
:1001F00010B5054C237833B9044B13B10448AFF361
:1002000000800123237010BD2802002000000000A0
:100210006469000808B5034B1BB103490348AFF3F9
:10022000008008BD000000002C0200206469000866
:10023000034613F8012B002AFBD1181A0138704726
:10024000D0400B1CD1409C46203AD3401843524228
:10025000634693401843704780F0004002E000BFBF
:1002600081F0004142001FBF5FEA410392EA030FA1
:100270007FEA226C7FEA236C6AD04FEA1262D2EBEB
:100280001363C1BFD218414048404140B8BF5B42F0
:10029000192B88BF704710F0004F40F4000020F089
:1002A0007F4018BF404211F0004F41F4000121F09F
:1002B0007F4118BF494292EA030F3FD0A2F10102E9
:1002C00041FA03FC10EB0C00C3F1200301FA03F127
:1002D00000F0004302D5494260EB4000B0F5000F4A
:1002E00013D3B0F1807F06D340084FEA310102F109
:1002F0000102FE2A51D2B1F1004F40EBC25008BFBB
:1003000020F0010040EA03007047490040EB000084
:1003100010F4000FA2F10102EDD1B0FA80FCACF1B3
:10032000080CB2EB0C0200FA0CF0AABF00EBC250B2
:1003300052421843BCBFD0401843704792F0000FA0
:1003400081F4000106BF80F400000132013BB5E7F3
:100350004FEA41037FEA226C18BF7FEA236C21D069
:1003600092EA030F04D092F0000F08BF08467047CE
:1003700090EA010F1CBF0020704712F07F4F04D19C
:10038000400028BF40F00040704712F100723CBFAF
:1003900000F50000704700F0004343F0FE4040F4D9
:1003A000000070477FEA226216BF08467FEA236397
:1003B0000146420206BF5FEA412390EA010F40F482
:1003C000800070474FF0000304E000BF10F00043CE
:1003D00048BF40425FEA000C08BF704743F09643B5
:1003E00001464FF000001CE050EA010208BF7047D0
:1003F0004FF000030AE000BF50EA010208BF704757
:1004000011F0004302D5404261EB41015FEA010C6B
:1004100002BF84460146002043F0B64308BFA3F163
:100420008053A3F50003BCFA8CF2083AA3EBC25345
:1004300010DB01FA02FC634400FA02FCC2F1200264
:10044000BCF1004F20FA02F243EB020008BF20F09B
:100450000100704702F1200201FA02FCC2F1200201
:1004600050EA4C0021FA02F243EB020008BF20EAF6
:10047000DC7070474FF0FF0C1CEAD0521EBF1CEA24
:10048000D15392EA0C0F93EA0C0F6FD01A4480EA12
:10049000010C400218BF5FEA41211ED04FF00063FB
:1004A00043EA501043EA5111A0FB01310CF0004027
:1004B000B1F5000F3EBF490041EAD3715B0040EA4D
:1004C000010062F17F02FD2A1DD8B3F1004F40EB1D
:1004D000C25008BF20F00100704790F0000F0CF0F0
:1004E000004C08BF49024CEA502040EA51207F3AB4
:1004F000C2BFD2F1FF0340EAC250704740F400008F
:100500004FF00003013A5DDC12F1190FDCBF00F07F
:1005100000407047C2F10002410021FA02F1C2F12D
:10052000200200FA02FC5FEA310040F1000053EAC9
:100530004C0308BF20EADC70704792F0000F00F017
:10054000004C02BF400010F4000F013AF9D040EA1D
:100550000C0093F0000F01F0004C02BF490011F4B1
:10056000000F013BF9D041EA0C018FE70CEAD153AF
:1005700092EA0C0F18BF93EA0C0F0AD030F0004C2F
:1005800018BF31F0004CD8D180EA010000F00040E3
:10059000704790F0000F17BF90F0004F084691F0A1
:1005A000000F91F0004F14D092EA0C0F01D14202DB
:1005B0000FD193EA0C0F03D14B0218BF084608D1A4
:1005C00080EA010000F0004040F0FE4040F40000EE
:1005D000704740F0FE4040F4400070474FF0FF0C81
:1005E0001CEAD0521EBF1CEAD15392EA0C0F93EAC8
:1005F0000C0F69D0A2EB030280EA010C49024FEA1A
:10060000402037D04FF0805343EA111143EA1013D2
:100610000CF000408B4238BF5B0042F17D024FF48A
:10062000000C8B4224BF5B1A40EA0C00B3EB510F65
:1006300024BFA3EB510340EA5C00B3EB910F24BF4E
:10064000A3EB910340EA9C00B3EBD10F24BFA3EBD3
:10065000D10340EADC001B0118BF5FEA1C1CE0D19B
:10066000FD2A3FF650AF8B4240EBC25008BF20F04E
:10067000010070470CF0004C4CEA50207F32C2BFA2
:10068000D2F1FF0340EAC250704740F400004FF03F
:100690000003013A37E792F0000F00F0004C02BF70
:1006A000400010F4000F013AF9D040EA0C0093F03A
:1006B000000F01F0004C02BF490011F4000F013B94
:1006C000F9D041EA0C0195E70CEAD15392EA0C0FFC
:1006D00008D142027FF47DAF93EA0C0F7FF470AF34
:1006E000084676E793EA0C0F04D14B023FF44CAF77
:1006F00008466EE730F0004C18BF31F0004CCAD10C
:1007000030F000427FF45CAF31F000437FF43CAF47
:100710005FE700BF4FEA4002B2F1FE4F0FD34FF048
:100720009E03B3EB12620DD94FEA002343F000435E
:1007300010F0004F23FA02F018BF404270474FF00C
:100740000000704712F1610F01D1420205D110F093
:10075000004008BF6FF0004070474FF00000704746
:1007600053B94AB9002908BF00281CBF4FF0FF3118
:100770004FF0FF3000F07AB9ADF1080C6DE904CE0E
:1007800000F006F8DDF804E0DDE9022304B070476C
:100790002DE9F0478C460E460446089D002B50D1AB
:1007A0008A4217466CD9B2FA82FEBEF1000F0BD016
:1007B000CEF1200C01FA0EF620FA0CFC02FA0EF72C
:1007C0004CEA060C00FA0EF43A0CBCFBF2F9BBB290
:1007D00002FB19CC09FB03FA4FEA144848EA0C461D
:1007E000B2450AD9F61909F1FF3180F02581B245E9
:1007F00040F22281A9F102093E44A6EB0A06B6FBAB
:10080000F2F002FB106600FB03F3A4B244EA0644D4
:10081000A34209D9E41900F1FF3280F00B81A34211
:1008200040F2088102383C440021E41A40EA0940C1
:10083000002D62D0002324FA0EF42C606B60BDE81A
:10084000F0878B4207D9002D55D0002185E8410063
:100850000846BDE8F087B3FA83F1002940F08F80A5
:10086000B34202D3824200F2FC80841A66EB030694
:100870000120B446002D40D085E81010BDE8F08777
:1008800012B90127B7FBF2F7B7FA87FEBEF1000FE6
:1008900035D10121F61B4FEA174C1FFA87F8B6FB3A
:1008A000FCF20CFB126608FB02F0230C43EA06463E
:1008B000B04207D9F61902F1FF3302D2B04200F27A
:1008C000D2801A46361AB6FBFCF00CFB106608FB09
:1008D00000F8A3B243EA0644A04507D9E41900F1A1
:1008E000FF3302D2A04500F2B9801846A4EB0804F9
:1008F00040EA02409CE729462846BDE8F08707FA0F
:100900000EF7CEF1200326FA03F24FEA174CB2FBA2
:10091000FCF11FFA87F80CFB112206FA0EF620FAFA
:1009200003F301FB08F933431E0C46EA0246B145C6
:1009300000FA0EF409D9F61901F1FF3280F08C802B
:10094000B14540F2898002393E44A6EB0906B6FB68
:10095000FCF00CFB106200FB08F99EB246EA02466E
:10096000B14507D9F61900F1FF3371D2B1456FD9FE
:1009700002383E44A6EB090640EA01418FE7C1F187
:10098000200722FA07F88B4048EA030326FA07F407
:100990004FEA134EB4FBFEF91FFA83FC0EFB194419
:1009A0008E4020FA07F809FB0CFA48EA06084FEADD
:1009B000184646EA0444A24502FA01F200FA01F69A
:1009C00008D9E41809F1FF3044D2A24542D9A9F16F
:1009D00002091C44A4EB0A04B4FBFEF00EFB104415
:1009E00000FB0CFC1FFA88F848EA0444A44507D928
:1009F000E41800F1FF3E29D2A44527D902381C444F
:100A000040EA0940A0FB0289A4EB0C0CCC45C2468D
:100A1000CE4615D312D055B1B6EB0A036CEB0E06D9
:100A200006FA07F7CB401F43CE402F606E600021CF
:100A3000BDE8F0871046F7E68946DEE64645EAD28D
:100A4000B8EB020A69EB030E0138E4E77046D7E71A
:100A500018468FE78146BDE7114676E702383C44E9
:100A600044E7084606E7023A3E442BE7704700BFDA
:100A700038B50E4B054618784FF47A73B3FBF0F394
:100A80000B4A1068B0FBF3F000F0DAFB044658B9EB
:100A90000F2D09D8024629464FF0FF3000F090FB99
:100AA000044B20461D6038BD012038BD00000020E9
:100AB0005000002004000020074A08B513680320F6
:100AC00043F01003136000F069FB0F20FFF7D0FF25
:100AD00004F076FC002008BD00200240034A044BCD
:100AE00011681B780B441360704700BFBC52002094
:100AF00000000020014B1868704700BFBC52002066
:100B000038B50446FFF7F6FF0546631C1EBF044BCD
:100B10001B78E418FFF7EEFF401B8442FAD838BD7B
:100B200000000020044B1B680360044B1B684360FB
:100B3000034B1B6883607047E8F7FF1FECF7FF1F4C
:100B4000F0F7FF1F70477047036810B55A680446F6
:100B5000900627D51A68910724D5A26AD2065EBFEF
:100B6000A26A42F40072A2629A6802F46022B2F5AC
:100B7000602F10D1E26872B95A6822F020025A60E0
:100B8000A36A23F48073A362A36ADB045EBFA36A33
:100B900043F00103A3622046FFF7D4FF6FF0120277
:100BA00023681A6023685A68100630D51A685107FE
:100BB0002DD5A26AD2065EBFA26A42F40052A2629A
:100BC0009A6802F4E042B2F5E04F0AD05A68500544
:100BD00016D49A6802F46022B2F5602F10D1E26850
:100BE00072B95A6822F080025A60A36A23F48053D3
:100BF000A362A36AD9055EBFA36A43F00103A3629F
:100C0000204604F0C9F96FF00C0223681A602368CB
:100C10005A6852060DD51B68DB070AD5A36A204621
:100C200043F48033A362FFF78EFF6FF00102236865
:100C30001A6010BD002373B5019390F82430012B86
:100C400074D001234D6880F82430062D02684FEAE5
:100C500085030C6825D82B441F25566B053B9D400A
:100C600026EA050504FA03F32B435363092C4FEAE4
:100C700044038D682FD907262344D1681E3B9E402C
:100C800021EA060105FA03F30B43D360A4F1100334
:100C9000012B2BD90023002280F82420184602B013
:100CA00070BD0C2D0BD82B441F25166B233B9D408C
:100CB00026EA050504FA03F32B431363D6E72B4416
:100CC0001F25D66A413B9D4026EA050504FA03F339
:100CD0002B43D362CAE70726116923449E4021EAC9
:100CE000060105FA03F30B431361CFE7104B9A4259
:100CF00016D193681B02CDD49368102C43F40003E3
:100D00009360C7D10B4B0C4A1B68B3FBF2F20A236A
:100D100053430193019B002BBCD0019B013BF8E79F
:100D2000836A43F0200383620123B4E70223B5E71B
:100D3000002401405000002040420F00002373B502
:100D40000193036804469A68D20702D5002002B0D6
:100D500070BD9A6842F001029A60124B124A1B68F9
:100D6000B3FBF2F30193019BC3B9FFF7C3FE064641
:100D700023689D6815F00105E8D1FFF7BBFE801BD5
:100D80000228F5D9A36A84F8245043F01003A36223
:100D9000E36A012043F00103E362D8E7019B013BD2
:100DA000E0E700BF5000002040420F0038B5036864
:100DB00004469A68D20701D4002038BD9A6822F010
:100DC00001029A60FFF796FE054623689B68DB07E1
:100DD000F2D5FFF78FFE401B0228F6D9A36A012047
:100DE00043F01003A362E36A43F00103E36238BDFA
:100DF00070B50446002871D0836A23B9C36280F8B5
:100E0000243004F005FB2046FFF7D0FFA36A13F05F
:100E1000100FA36A64D1002862D1E16923F48853DA
:100E2000626823F0020343F002030A43A168A3624D
:100E3000E368B1F5807F42EA430238D0012914BF4C
:100E400006464FF480766569012D07D1002B30D11D
:100E5000A369013B46EA433545F400662368B1F5D2
:100E6000807F5D6825F4694545EA06055D609E68FA
:100E70001D4D05EA060545EA02059D6001D00129E0
:100E800020D1216901390905DD6A25F4700529435E
:100E9000D9629968154B0B409A4215D10023E36241
:100EA000A36A23F0030343F00103A36270BD0E465F
:100EB000C9E7A36A43F02003A362E36A43F0010396
:100EC000E362CBE70021DFE7A36A23F0120343F0DC
:100ED0001003A362E36A43F00103E362012070BDE3
:100EE00043F01003A362F9E7FDF7E1FFFE0E1FFFD9
:100EF00090F8243010B5012B04464ED0012380F821
:100F00002430FFF71BFF002843D1A36A244A23F4AF
:100F1000405323F0010343F48053A36223689342B8
:100F200005D1A2F58062526812F4702F29D1A26A0D
:100F300022F48012A262A26A12F4807208BFE262F6
:100F4000002284F824206FF004021A605A6842F0EC
:100F500080025A605A68520520D49A6802F4E0422E
:100F6000B2F5E04F11D10E4A934205D1A2F580624D
:100F7000526812F4702F08D19A6842F402129A60F3
:100F800010BDA26A42F48012D4E79A6842F400428B
:100F9000F5E7002384F8243010BD022010BD00BF07
:100FA000002801400329036807D0042903D002293F
:100FB00005D1186C7047986C7047586C7047D86BA7
:100FC00070470000F7B50246002092F824300190E7
:100FD000012B00F0D8800127D2F808E082F82470B5
:100FE0004E6813680D68BEF1000F7BD1BE4273D10D
:100FF00070469C6BA40DA40544EAC5349C639C68B0
:10100000E40707D49C68CF6924F4E04424F0010489
:101010003C439C608C69012C0DD1CF69B7F5E04F42
:1010200017BF906A5F6840F02000906212BF2046B0
:1010300047F480675F604F69012F05D1002C74D1A0
:101040005C6844F480545C60092D4FEA4504D1F893
:1010500008E070D94FF0070C2C44DF681E3C0CFAF6
:1010600004FC27EA0C070EFA04F43C43DC60A5F10B
:101070001004012C98BF9F68DFF81CE19CBF47F467
:1010800000079F60022ECF6862D0032E66D0012E2B
:101090006AD1596901EA0E0139435961012C16D808
:1010A0003A498B4269D19968090210D49968102D88
:1010B00041F4000199600AD1354B36491B68B3FBF6
:1010C000F1F10A234B430193019B002B52D10023E2
:1010D00082F8243003B0F0BD946A384644F020040E
:1010E00094628CE70F69D3F838E0F41B04EB8404B6
:1010F000BE4204F10F0410D807F1FF3C05FA04F7D3
:1011000047EA0C574FF01F0C0CFA04F444F4401457
:101110002EEA04043C439C6371E71F2707FA04F49A
:1011200044F440142EEA0404F5E7906A40F02000ED
:101130009062384688E74FF0070C1F692C440CFA80
:1011400004FC27EA0C070EFA04F43C431C618EE70A
:10115000996901EA0E01394399619FE7D96901EA6A
:101160000E013943D96199E7196A01EA0E01394341
:10117000196293E7019B013BA5E7936A012043F0C5
:1011800020039362A3E70220A4E700BF00240140EC
:101190005000002040420F0000F0FFFF074A00020D
:1011A000D36800F4E06023F4E0631B041B0C43F0FD
:1011B000BF6343F400330343D360704700ED00E0A6
:1011C000174B30B5DC68C4F30224C4F10703251DB6
:1011D000042B28BF0423062D4FF0010598BF0024DF
:1011E00005FA03F303F1FF3388BF033C1940A14024
:1011F00005FA04F4013C2240002842EA01024FEAC9
:101200000212AFBF00F16040064B00F00F00D2B2F7
:10121000A5BFD2B200F561401A5480F8002330BD5A
:1012200000ED00E014ED00E00123420900F01F0092
:1012300003FA00F0014B43F82200704700E100E0A0
:101240000138B0F1807F0AD2F021064B064A58607F
:1012500082F823100020072298601A60704701204E
:10126000704700BF10E000E000ED00E010B500287E
:1012700032D00168194B1424994225D8184AA3F298
:1012800007430A44B2FBF4F2920002648468C36329
:1012900043680A682343C46822F47F5223430469E5
:1012A00022F0300223434469234384692343C46901
:1012B000234313430B600122002380F82120836322
:1012C00080F82030184610BD064B0B44B3FBF4F3F6
:1012D0009B000364044BD9E7012010BD07040240C2
:1012E000F8FFFDBFF8FBFDBF00040240F0B590F829
:1012F0002040012C35D0012490F8215080F8204066
:10130000A5424FF000064FF0020428D180F821409A
:10131000046886632668076C26F001062660C66BA3
:10132000BD407560636043680568102BC36A0BBFDE
:10133000A260A160E160E2604BB1236843F00E035C
:1013400023602B68002043F001032B60F0BD23686D
:1013500023F004032360236843F00A03F0E780F8D6
:1013600020600220F0BD000090F8213010B5022B63
:1013700003D004238363012010BD03681A6822F0A0
:101380000E021A601A6822F001021A60294A93427A
:1013900024D902F56272934219D01432934218D0C4
:1013A0001432934217D0143293420CBF4FF480533F
:1013B0004FF48033204A53600123002480F8213009
:1013C000436B80F820409BB39847204610BD012313
:1013D000F0E71023EEE74FF48073EBE717498B42F9
:1013E00016D014318B4215D014318B4214D01431E5
:1013F0008B4214D014318B4214D014318B4214D050
:10140000934214BF4FF480334FF080730C4AD2E7FD
:101410000123FBE71023F9E74FF48073F6E74FF45D
:101420008053F3E74FF48033F0E74FF48013EDE798
:10143000184610BD8000024000040240080002402F
:101440000000024070B40425C66B026C3468036867
:1014500095402542196855D04D0753D51A68960610
:101460005EBF1A6822F004021A60604A93421FD9D4
:1014700002F56272934214D01432934213D01432A4
:10148000934212D0143293420CBF4FF480434FF476
:101490008023574A5360C36A002B00F0A58070BCBC
:1014A00018470423F5E74023F3E74FF48063F0E7A0
:1014B00050498B4216D014318B4215D014318B42D7
:1014C00014D014318B4214D014318B4214D0143107
:1014D0008B4214D0934214BF4FF480234FF08063AB
:1014E000454AD7E70423FBE74023F9E74FF480633D
:1014F000F6E74FF48043F3E74FF48023F0E74FF42F
:101500008003EDE702259540254257D08D0755D53C
:101510001A68940606D41A6822F00A021A60012298
:1015200080F82120314A93421ED902F5627293421B
:1015300013D01432934212D01432934211D0143289
:1015400093420CBF4FF400534FF40033284A5360CA
:10155000002380F82030836A9EE70223F6E72023E9
:10156000F4E74FF40073F1E722498B4216D01431AF
:101570008B4215D014318B4214D014318B4214D0CD
:1015800014318B4214D014318B4214D0934214BFC7
:101590004FF400334FF00073174AD8E70223FBE7FC
:1015A0002023F9E74FF40073F6E74FF40053F3E715
:1015B0004FF40033F0E74FF40013EDE708259540B2
:1015C000254211D009070FD5196821F00E011960C5
:1015D000012303FA02F27260836380F82130002352
:1015E00080F82030036B57E770BC704780000240E2
:1015F000000402400800024000000240114AD36883
:1016000013F0100305D01049CB6943F00203CB61FE
:101610001023D268500706D50B4943F00403CA696A
:1016200042F00102CA61074AD169C90708D50648D4
:10163000C16941F00401C161D16921F00101D161A9
:10164000D360704700200240C0520020064B18694A
:1016500010F0800007D0054A5A6002F188325A60C3
:101660001869C0F3C010704700200240230167458D
:10167000034A0020136943F080031361704700BFE1
:1016800000200240F8B50646FFF734FA114C074631
:101690002546E368D80712D4E368990644BF20239F
:1016A000E360EB68DA0606D4EB69DB0703D4E8688D
:1016B00010F0040002D0FFF7A1FF0120F8BD731C59
:1016C000E7D00EB90320F8BDFFF714FAC01B86421D
:1016D000DFD2F7E7002002402DE9F84F1F4C994672
:1016E000237E0546012B0F46904633D001234CF252
:1016F00050302376FFF7C6FF40BB012D03D0022DEB
:101700000CBF022504250026B246DFF854B0320192
:1017100040464946FEF794FDC4F81CA0DBF81030A3
:1017200080B243F00103CBF8103027F816004CF2DA
:101730005030FFF7A7FFDBF8103023F00103CBF8A0
:10174000103018B90136F3B29D42E0D80023237659
:10175000BDE8F88F0220BDE8F88F00BFC05200201E
:10176000002002400022064BDA61064B1A6942F063
:1017700004021A611A6942F040021A61704700BF00
:10178000C0520020002002400022064BDA61064BC6
:101790001A6942F002021A6158611A6942F0400265
:1017A0001A617047C0520020002002402DE9F0412C
:1017B000234D07462B7E8846012B3DD0012403682C
:1017C0002C76022B4CF2503013D1FFF75BFF20B187
:1017D000012000232B76BDE8F081FFF7C3FF4CF218
:1017E0005030FFF74FFF174A136923F004031361CA
:1017F000EFE7FFF747FF0028EAD14FF0FF33C8F8C3
:1018000000302046BE680F4CFA68BB6803EBC22369
:101810009E42DED23046FFF7B7FF4CF25030FFF762
:1018200031FF236923F00203236110B1C8F800607F
:10183000CFE706F50066E7E70220BDE8F08100BFCC
:10184000C0520020002002402DE9F74F002216462A
:10185000654BDFF8A4E1DFF8A4C14FF001080C6884
:1018600008FA06F808EA0404A0457FD14D68122D55
:1018700000F0AF8000F28880022D00F0A7807CD8B5
:10188000002D00F08E80012D00F09E804FF00F099A
:10189000FF2C93BF824606F18045083DD0F800B08A
:1018A00092BFB500D0F804B0AD0009FA05F82BEAF4
:1018B000080802FA05F588BF00F1040A48EA0505A0
:1018C000CAF80050D1F804A01AF0805F4ED0474DFE
:1018D000464FAD6926F0030845F00105BD61BD69BD
:1018E00008F1804805F00105019508F5803806F0FB
:1018F000030B019D4FEA8B0BD8F8085009FA0BF93E
:1019000025EA09093A4DA84268D005F58065A84244
:1019100066D005F58065A84264D005F58065A842CB
:101920000CBF0325042505FA0BF545EA0905C8F89F
:1019300008501D681AF4803F14BF2543A5431D605D
:101940005D681AF4003F14BF2543A5435D609D68A0
:101950001AF4801F14BF2543A5439D60DD681AF467
:10196000001F14BF2C4325EA0404DC600136102E4E
:101970007FF473AF03B0BDE8F08F032D22D0112D9B
:1019800084D1CA68043281E71A4FBD4209D012D807
:10199000DFF86C904D4504D009F580394D457FF452
:1019A00075AF8A68C2B1012A0CBFC0F81080C0F8B8
:1019B000148008226AE77545F3D06545F1D0DFF859
:1019C0004490EBE7002261E7CA685FE7CA68083223
:1019D0005CE7CA680C3259E7042257E70025A2E702
:1019E0000125A0E702259EE7000401400010024007
:1019F00000080140000021100000311000003210EA
:101A000000001110000022108368194214BF012049
:101A1000002070470AB1016170470904FBE700002C
:101A200003682DE9F341DB07054614D42B689F07B3
:101A300062D42B68190700F199802B685A0700F1CE
:101A4000C380EA6A002A40F031812A6A002A40F005
:101A50008481002014E0904C636803F00C03042B95
:101A600007D0636803F00C03082B0CD16368DE0316
:101A700009D523689C03D9D5AB68002BD6D10120AA
:101A800002B0BDE8F081AB68B3F5803F10D12368A8
:101A900043F480332360FFF72DF80646236898034C
:101AA000C4D4FFF727F8801B6428F7D90320E7E7A1
:101AB0009BB9236823F480332360236823F48023B5
:101AC0002360FFF717F8064623689903AED5FFF7A2
:101AD00011F8801B6428F7D9E8E7B3F5A02F236835
:101AE00003D143F480232360D1E723F480332360C0
:101AF000236823F48023CDE7674C636813F00C0F51
:101B000007D0636803F00C03082B10D16368DA0375
:101B10000DD423689B0702D56B69012BAFD12368D5
:101B2000AA6923F0F80343EAC203236081E76A69E4
:101B30005A4B6AB101221A60FEF7DCFF06462368A1
:101B40009F07ECD4FEF7D6FF801B0228F7D9ADE73C
:101B50001A60FEF7CFFF0646236898077FF569AF46
:101B6000FEF7C8FF801B0228F6D99FE7EA694A4CB6
:101B70004B4BDAB101221A60FEF7BCFF0646636ADE
:101B80009B070DD54FF4FA52464B1B68B3FBF2F39B
:101B9000019300BF019B5A1E0192002BF9D14CE723
:101BA000FEF7A8FF801B0228E9D97FE71A60FEF73D
:101BB000A1FF0646636A9F077FF53FAFFEF79AFFD6
:101BC000801B0228F6D971E7334CE369DE0024D488
:101BD0000127E36943F08053E361E36903F0805335
:101BE0000093009B304E3368D80518D52B69012B24
:101BF00026D1236A43F001032362FEF77BFF41F203
:101C000088368046236A9A073FD5002F3FF419AFE4
:101C1000E36923F08053E36113E70027E2E73368C9
:101C200043F480733360FEF765FF80463368D9055F
:101C3000DCD4FEF75FFFA0EB08006428F6D935E797
:101C4000ABB9236A41F2883823F001032362236A87
:101C500023F004032362FEF74DFF0646236A9B0729
:101C6000D3D5FEF747FF801B4045F7D91EE7052B6C
:101C7000236A03D143F004032362BAE723F001038C
:101C80002362236A23F00403B6E7FEF733FFA0EBD9
:101C90000800B042B6D909E70010024000004242F5
:101CA0008004424250000020007000404F4C6368A6
:101CB000D80308D5636803F00C03082B03D1E36A4B
:101CC000D9033FF5DCAE022A33D12368DA0006D50A
:101CD000E36A6A6B03F0F00393427FF4D0AE002313
:101CE000434E3360FEF706FF074623681B011AD4F4
:101CF000E36A6A6B23F0F0031343E362E36A2A6B3F
:101D000023F470631343E36201233360FEF7F2FEB2
:101D1000064623681F013FF598AEFEF7EBFE801BD9
:101D20006428F6D9C2E6FEF7E5FEC01B6428DCD9BC
:101D3000BCE60022E36A23F48033E3622C4B1A6092
:101D4000FEF7D8FE0646236818017FF57EAEFEF743
:101D5000D1FE801B6428F6D9A8E6244C636803F002
:101D60000C03082B3FF48BAE0023224E022A336073
:101D70002FD1FEF7BFFE07462368990123D46B6A73
:101D8000B3F5803F09D1E26A69680A43E262E26A18
:101D9000E96822F00F020A43E262A96A62680B4313
:101DA00022F474121343636001233360FEF7A2FE32
:101DB000054623689A013FF54CAEFEF79BFE401B9B
:101DC0000228F6D972E6FEF795FEC01B0228D3D989
:101DD0006CE6FEF78FFE054623689B017FF539AE62
:101DE000FEF788FE401B0228F6D95FE6001002408D
:101DF0006800424260004242F0B589B06A462A4B10
:101E000003F10805144618685968083303C4AB4247
:101E10002246F7D118689B882060A380234B04AC2E
:101E200003F11005224618685968083303C2AB4213
:101E30001446F7D11E494B6803F00C02082A31D131
:101E4000C3F3834208A80244DB0312F8206C26D5B2
:101E5000CB6A03F00F03034413F8102CCB6A13F47E
:101E6000803F144B16D0CF6ACC6AC4F303240234EB
:101E7000A4FB0645A4FB030103FB0511C7F30313F1
:101E80000133A3FB0223FEF76BFC0D2E00D14008AB
:101E900009B0F0BD03FB06F0B0FBF2F0F5E7064831
:101EA0007043F5E70348F3E77C6900088A69000896
:101EB0000010024000127A0000093D00544A2DE94A
:101EC000F0411368054603F007038B420E462AD300
:101ED00029688C0734D4CA0747D44D4A136803F0E5
:101EE00007039E42C0F082802A684A4C12F0040F19
:101EF00040F08780130706D563682A6923F460538E
:101F000043EAC2036360FFF777FF6368424AC3F3A3
:101F10000313D35CD840414B18600F20FEF7A8FD97
:101F20000020BDE8F081136823F007030B43136022
:101F3000136803F007039942CAD00120BDE8F0817D
:101F4000344B11F0040F1EBF5A6842F4E0625A602D
:101F5000080742BF5A6842F460525A605A68A8683B
:101F600022F0F00202435A60B5E76A68294C012A60
:101F700023681CD113F4003FDFD0636841F2883836
:101F800023F0030313436360FEF7B4FD6B68074659
:101F9000012B14D1636803F00C03042B9DD0FEF7D2
:101FA000A9FDC01B4045F5D90320BDE8F081022AF8
:101FB00002D113F0007FDFE713F0020FDCE7022B02
:101FC0000FD1636803F00C03082B86D0FEF792FD57
:101FD000C01B4045F5D9E7E7FEF78CFDC01B404527
:101FE000E2D8636813F00C0FF6D176E7136823F09C
:101FF000070333431360136803F007039E429CD129
:1020000072E76368E96823F4E0630B43636071E798
:102010000020024000100240D06B00085000002059
:10202000044B054A5B68C3F30223D35C034A106880
:10203000D840704700100240E06B000850000020BC
:10204000044B054A5B68C3F3C223D35C034A1068A0
:10205000D840704700100240E06B0008500000209C
:1020600003682DE9F34113F0010F0546574C1FD0CB
:10207000E369DA0047D40127E36943F08053E36161
:10208000E36903F080530193019B514E3368DB05F4
:102090003BD5236A13F440734BD1236A6A6823F457
:1020A0004073134323621FB1E36923F08053E3615C
:1020B0002A68930705D56368A96823F440430B4356
:1020C0006360570705D5E36AE96823F400330B43DF
:1020D000E362160705D5E36A2A6923F480231343D4
:1020E000E362E36A980366D4E36A590363D4286819
:1020F00010F010001AD06368EA6923F480031343D8
:102100006360002012E00027BFE7336843F4807368
:102110003360FEF7EFFC80463368D805B9D4FEF78C
:10212000E9FCA0EB08006428F6D9032002B0BDE862
:10213000F0816A6802F440729342AED00120254AD1
:10214000236A1060002023F4407110602162D907D7
:10215000A3D5FEF7CFFC41F288380646236A9A07DA
:102160009BD4FEF7C7FC801B4045F7D9DDE7236809
:10217000A96913F0806F04D0E26A02F0F0028A428B
:1021800022D1E36A23F0F0030B43E362E36A6A6956
:1021900023F4704313430122E3620F4B1A60FEF7EE
:1021A000A9FC064623689A00A1D4FEF7A3FC801B75
:1021B0006428F7D9B9E72368DB00D8D5E36A6A69F0
:1021C00003F47043934292D00120AFE70010024025
:1021D000007000404004424270004242036A70B501
:1021E00023F001030362036A446882690D6822F0E8
:1021F00073022A438D6823F002032B430A4DA84241
:102200000BD1CD6823F008032B438E694D6924F46C
:102210004074354323F004032C43446082614A68D0
:102220004263036270BD00BF002C0140036A70B5B9
:1022300023F480730362036A4468C2690D6822F064
:1022400073022A438D6823F4007343EA05230B4D80
:10225000A8420DD1CD6823F4006343EA05238E69BB
:102260004D6924F44054354323F4806344EA051453
:102270004460C2614A68C263036270BD002C0140C1
:10228000036A30B523F480530362036A4468C26969
:102290000D6822F4E64242EA05228D6823F40053D9
:1022A00043EA0533064DA84202BF4D6924F4804439
:1022B00044EA85144460C2614A680264036230BD26
:1022C000002C0140704790F83C3070B5012B4FF066
:1022D00002031CD0012280F83D30036880F83C20C6
:1022E0009A6822F47F4222F077029A600A68402AB4
:1022F00079D019D8102A00F093800AD8002A00F06B
:102300008980012380F83D30002380F83C30184656
:1023100070BD202A00F08A80302AF2D19A6822F01B
:10232000700242F0370236E0702A36D01BD8502AAD
:1023300042D0602AE5D11C6A4D6824F01004CE68B2
:102340001C6299691A6A21F4704122F0A00242EAE3
:10235000051241EA063199611A629A6822F0700208
:1023600042F0670217E0B2F5805F11D0B2F5005F6E
:10237000C7D18A684D689C68C9682A4324F47F44A1
:1023800042EA012222439A609A6842F4804202E0C3
:102390009A6822F007029A60B3E78A684D689C68E1
:1023A000C9682A4324F47F4442EA012222439A6006
:1023B0009A6842F07702EEE74C68CE68196A1D6AA7
:1023C00021F00A0125F001051D629A69214322F0DE
:1023D000F00242EA06129A6119629A6822F07002CB
:1023E00042F05702D7E74C68CE68196A1D6A21F09F
:1023F0000A0125F001051D629A69214322F0F002CD
:1024000042EA06129A6119629A6822F0700242F05A
:102410004702C0E79A6822F0700242F00702BAE76A
:102420009A6822F0700242F01702B4E79A6822F02C
:10243000700242F02702AEE770477047704770475E
:102440007047036810B51A69044691070ED5DA681B
:1024500092070BD56FF002021A6101229B69027785
:102460009B0777D0FFF7EAFF0023237723681A69D9
:10247000500710D5DA6851070DD56FF004021A61C4
:1024800002229B69227713F4407F204668D0FFF731
:10249000D5FF0023237723681A6912070FD5DA685E
:1024A00010070CD56FF008021A610422DB6922774D
:1024B000990720465AD0FFF7C1FF002323772368EE
:1024C0001A69D20610D5DA68D0060DD56FF0100261
:1024D0001A610822DB69227713F4407F20464BD033
:1024E000FFF7ACFF0023237723681A69D10708D5CB
:1024F000DA68D20705D56FF0010220461A61FFF7AE
:102500009BFF23681A69100608D5DA68110605D5FD
:102510006FF0800220461A6100F07DF923681A6985
:10252000520608D5DA68500605D56FF040022046FD
:102530001A61FFF785FF23681A69910622D5DA68C8
:1025400092061FD56FF020022046BDE810401A61A8
:1025500000F060B9FFF771FF2046FFF770FF83E7D7
:10256000FFF76BFF2046FFF76AFF92E7FFF765FF73
:102570002046FFF764FFA0E7FFF75FFF2046FFF765
:102580005EFFAFE710BD00001E4A036890420ED008
:10259000B0F1804F0BD0A2F59432904207D002F5F3
:1025A0008062904203D002F58062904219D14A685D
:1025B00023F070031343134A90420ED0B0F1804FC2
:1025C0000BD0A2F59432904207D002F5806290427F
:1025D00003D002F58062904203D1CA6823F44073AD
:1025E00013434A6923F08003134303608B68C3627B
:1025F0000B688362034B984204BF0B69036301239A
:1026000043617047002C014010B50446A0B190F81A
:102610003D3003F0FF021BB980F83C2002F02EFF92
:102620000223206884F83D30211DFFF7ADFF012310
:10263000002084F83D3010BD012010BD10B50446C7
:10264000A0B190F83D3003F0FF021BB980F83C20A8
:10265000FFF738FE0223206884F83D30211DFFF784
:1026600093FF0123002084F83D3010BD012010BDF0
:10267000036A70B523F010030362036A4468826939
:102680000D6822F4E64242EA05228D6823F0200319
:1026900043EA05130B4DA8420DD1CD6823F080030A
:1026A00043EA05138E694D6924F44064354323F0F1
:1026B000400344EA8504446082614A68826303629D
:1026C00070BD00BF002C014038B590F83C30044686
:1026D000012B4FF0020025D0012384F83D0084F83F
:1026E0003C300C2A18D8DFE802F0071717171E171E
:1026F00017172F17171740002068FFF76FFD236883
:1027000009699A6942F008029A619A6922F0040202
:102710009A619A690A439A610123002084F83D3046
:1027200084F83C0038BD2068FFF7A2FF23680969E0
:102730009A6942F400629A619A6922F480629A610D
:102740009A6942EA0122E6E72068FFF76FFD2368F5
:102750000969DA6942F00802DA61DA6922F00402F2
:10276000DA61DA690A43DA61D6E72068FFF788FDA3
:1027700023680969DA6942F40062DA61DA6922F4ED
:102780008062DA61DA6942EA0122ECE710B50124DD
:10279000036A8C4023EA04030362036A8A401A43F3
:1027A000026210BD10B5044601220068FFF7EEFF7B
:1027B0002368064A0020934202BF5A6C42F400424A
:1027C0005A641A6842F001021A6010BD002C0140E0
:1027D00090F83C3010B5012B4FF0020318D080F870
:1027E0003D3003680C685A68496822F070025A60EC
:1027F0005A6822435A609A6822F080029A609A6866
:102800000A439A60012380F83D30002380F83C3071
:10281000184610BD704770470368DA6822F490725A
:10282000DA605A6922F001025A61202380F83A30B6
:10283000704700002DE9F0470568C2682B690169FF
:1028400023F4405313432B618368EA680B434169C7
:1028500022F4B05222F00C020B431343EB606B697D
:10286000826923F4407313436B61404B81469D4260
:102870004FF0190446D1FFF7E3FB04FB00F3D9F84E
:1028800004604FF06408B600B3FBF6F3B3FBF8F353
:102890001E01FFF7D5FB6043D9F804309B00B0FB65
:1028A000F3F7FFF7CDFB6043D9F804309B00B0FB92
:1028B000F3F3B3FBF8F308FB13731B013233B3FBE1
:1028C000F8F303F0F007FFF7BBFB6043D9F80420EF
:1028D0009200B0FBF2FAFFF7B3FB6043D9F8043083
:1028E0009B00B0FBF3F3B3FBF8F308FB13A31B014E
:1028F0003233B3FBF8F303F00F033B433344AB60D5
:10290000BDE8F087FFF78CFB04FB00F3D9F8046007
:102910004FF06408B600B3FBF6F3B3FBF8F31E0107
:10292000FFF77EFB6043D9F804309B00B0FBF3F760
:10293000FFF776FB6043D9F804309B00B0FBF3F35C
:10294000B3FBF8F308FB13731B013233B3FBF8F34B
:1029500003F0F007FFF764FB6043D9F8042092000E
:10296000B0FBF2FAFFF75CFBB7E700BF00380140AD
:10297000F8B504460E4617461D4621680B6836EA30
:10298000030301D10020F8BD6B1CF7D095B9236873
:102990000320DA6822F4D072DA605A6922F0010268
:1029A0005A61202384F8393084F83A30002384F8BF
:1029B0003830F8BDFEF79EF8C01B8542DDD2E6E751
:1029C00010B5044640B390F8393003F0FF021BB94C
:1029D00080F8382002F0AAFD2423226884F83930D8
:1029E000D368204623F40053D360FFF723FF236806
:1029F00000201A6922F490421A615A6922F02A02D0
:102A00005A61DA6842F40052DA602023E06384F805
:102A1000393084F83A3010BD012010BD2DE9F04165
:102A20001F4690F839300446202B0D4690464ED173
:102A3000002949D0002A47D090F83830012B46D0E1
:102A4000012380F838300023C363212380F8393014
:102A5000FEF750F80646A4F82480A4F82680E38CFC
:102A60009BB26BB93B46324640212046FFF780FFC0
:102A7000A8B9202384F8380084F83930BDE8F08103
:102A8000E38C3246013B9BB2E384A3688021B3F51B
:102A9000805F20463B460ED1FFF76AFF10B103204E
:102AA000BDE8F0812B882268C3F3080353602369D3
:102AB00043B90235D3E7FFF75BFF0028EFD1236866
:102AC0002A785A600135CAE70120BDE8F08102206A
:102AD000BDE8F08190F83A30202B20D1E9B1E2B185
:102AE00090F83830012B1AD0C2858285002322222B
:102AF000C36380F83A2002688162D16880F8383078
:102B000041F48071D1605169184641F00101516171
:102B1000D16841F02001D160704701207047022048
:102B20007047000038B50446134694F83920202A2F
:102B30002AD139B333B394F83820012A24D00122A2
:102B4000002584F838202122E384206BE56384F893
:102B500039200E4AA384216282620D4A4563C26213
:102B60000C4A026322680432FEF7C0FB6FF0400299
:102B7000236828461A605A6984F8385042F0800267
:102B80005A6138BD012038BD022038BD9B2B00089A
:102B9000C92B0008512C0008704708B50368426A29
:102BA0001B6813F020030AD1D38413685A6922F0FA
:102BB00080025A61DA6842F04002DA6008BD1046CD
:102BC000FFF7EAFF08BD704708B5406AFFF7FBFF53
:102BD00008BD90F83A3010B5222B36D183680169D0
:102BE000B3F5805F0268836A23D15268E9B9C2F302
:102BF000080223F8022B8362C48D013CA4B2C48571
:102C00008CB90368DA6822F02002DA60DA6822F40C
:102C10008072DA605A6922F001025A61202380F83A
:102C20003A3002F07DF9002010BDD2B223F8012B1A
:102C3000E1E721B9591C526881621A70DCE75268D9
:102C4000591C816202F07F02F7E7022010BD704735
:102C5000416A08B50B685A6991F8390021280AD1F0
:102C6000120608D50022CA84DA6822F0C002DA60AF
:102C7000202281F839205B6991F83A20222A06D176
:102C80005B0604D500230846CB85FFF7C5FDCB6B5B
:102C9000084643F01003CB63FFF7D9FF08BD0000DF
:102CA000036870B51A6804461607D9685D6907D1CC
:102CB00096065AD58D0658D5BDE87040FFF789BFF6
:102CC00015F0010502D111F4907F4ED0D30705D540
:102CD000CE0542BFE36B43F00103E363500704D525
:102CE0001DB1E36B43F00203E363930704D51DB109
:102CF000E36B43F00403E363160704D51DB1E36BF4
:102D000043F00803E363E36B002B66D0950604D51C
:102D1000880602D52046FFF75CFF236820465D69E0
:102D2000E26B110702D415F040051AD0FFF774FDCD
:102D300023685A69520610D55A69606B22F0400226
:102D40005A6150B1254B4363FEF70EFB002844D077
:102D5000606BBDE87040436B18472046FFF777FF74
:102D600070BDFFF774FFE56370BD160627D50D062D
:102D700025D594F83920212A2FD1A268B2F5805F99
:102D8000226A17D11188C1F308015960216979B904
:102D900002322262E28C013A92B2E284EAB9DA6843
:102DA00022F08002DA60DA6842F04002DA6070BD38
:102DB0000132EEE7511C216212785A60EAE75006B0
:102DC0000BD54A0609D5DA68204622F04002DA60BF
:102DD000202384F83930FFF7DFFE70BDE12D0008B5
:102DE00008B50023406AC385C384FFF730FF08BDE0
:102DF00008B500F079FE002008BD08B501F006F91D
:102E0000012803D0BDE8084000F0ECB808BD00F18F
:102E1000080343604FF0FF32C36003610023826008
:102E20000360704700230361704743689A684B60F2
:102E30008A609A6851609960036808610133036091
:102E400070470A6830B5531C0AD103695A684A6052
:102E500091608B605960036808610133036030BD85
:102E600000F108035C682568AA42EFD32346F9E71E
:102E70004168826803698A60826851605968884243
:102E800008BF5A6000220261186801381860704754
:102E90000A4B1B68013308D04FF0500383F31188AD
:102EA000BFF36F8FBFF34F8FFEE74FF0500383F3F5
:102EB0001188BFF36F8FBFF34F8FFEE7080000202C
:102EC00006480068006880F3088862B661B6BFF300
:102ED0004F8FBFF36F8F00DF00BF000008ED00E0F1
:102EE0004FF0807340F8043C054B21F0010140F89D
:102EF000081C40F80C3C40F8202C4038704700BFBC
:102F0000912E0008000000000000000000000000FA
:102F1000074B19680868B0E8F00F80F30988BFF321
:102F20006F8F4FF0000080F311884EF00D0E704748
:102F3000845000204FF0500383F31188BFF36F8F4C
:102F4000BFF34F8F0A4A13680133012B13600DD171
:102F5000084B1B6813F0FF0F08D04FF0500383F3AA
:102F60001188BFF36F8FBFF34F8FFEE7704700BF2D
:102F70000800002004ED00E0084A136843B94FF050
:102F8000500383F31188BFF36F8FBFF34F8FFEE7BA
:102F9000013B13600BB983F31188704708000020D0
:102FA000EFF30980BFF36F8F0D4B1A6820E9F00F24
:102FB00010602DE908404FF0500080F3118800F0B8
:102FC0003FFF4FF0000080F31188BDE8084019680A
:102FD0000868B0E8F00F80F30988BFF36F8F70477F
:102FE0008450002008B54FF0500383F31188BFF3DD
:102FF0006F8FBFF34F8F00F0BBFD18B14FF08052C1
:10300000024B1A60002383F3118808BD04ED00E031
:103010004FF47A72054B1B68B3FBF2F3044A013B91
:1030200013600722034B1A60704700BF5000002056
:1030300014E000E010E000E013B51F4B00211A7807
:10304000D2B20192FF221A701B781C4ADBB28DF8B3
:1030500003309DF8033003F0500313700722184B20
:103060001A609DF80300541E00061CD401B11A60BA
:103070001A68120202F4E0621A60019B0E4ADBB287
:103080001370104B1A6842F470021A601A6842F00A
:1030900070421A60FFF7BCFF00220B4B1A60FFF76B
:1030A0000FFFFFF7F5FE9DF8032001215200D2B279
:1030B0008DF803202246D4E700E400E0440200201B
:1030C0004802002020ED00E008000020EFF3058317
:1030D0000F2B0ED9104A9B5C104A12789A4208D9DD
:1030E0004FF0500383F31188BFF36F8FBFF34F8FFF
:1030F000FEE70B4B0B4A1B68126803F4E063934234
:1031000008D94FF0500383F31188BFF36F8FBFF3DB
:103110004F8FFEE7704700BFF0E300E0440200205D
:103120000CED00E04802002010B50F4B1A688242F7
:1031300018D35C681919884201BF416818460919FB
:103140005960446801198A4207D1084909688A42CE
:103150001FBF51681268091941609842026018BF88
:10316000186010BD1346E1E77C5000204C0200209F
:103170002DE9F041044600F0F3FC3D493D4D0B685C
:10318000FBB93D4A002056070FBF44F620630732C3
:103190003A4B22F0070218BF9B1A1344384E083BE3
:1031A00023F0070370603260586018600B60981A53
:1031B0001360344B50601860334B18604FF000437D
:1031C0002B602F68274216D1002C40D004F1080351
:1031D00058071CBF23F00703083363B12A4A166857
:1031E0009046B34207D8264A15686868834204D8D7
:1031F00009688D4207D1002429E02C68002CF7D003
:103200002A462546F1E7296814681160C21A102A77
:103210000FD9E818410708D04FF0500383F3118805
:10322000BFF36F8FBFF34F8FFEE742606B60FFF716
:103230007BFF6B681349F61A1F4300230868C8F820
:103240000060864238BF0E6008346F602B6000F06B
:1032500021FD630708D04FF0500383F31188BFF3BB
:103260006F8FBFF34F8FFEE72046BDE8F08100BFB0
:103270004C020020705000205002002070500020AE
:103280007C500020785000207450002010B5044677
:1032900070B3184A50F8043C1268134208D14FF03A
:1032A000500383F31188BFF36F8FBFF34F8FFEE797
:1032B00050F8081C41B14FF0500383F31188BFF35D
:1032C0006F8FBFF34F8FFEE723EA020340F8043C01
:1032D00000F046FC084A54F8043C1168A4F10800C8
:1032E0000B441360FFF720FFBDE8104000F0D2BC94
:1032F00010BD00BF7050002074500020014B1868B2
:10330000704700BF7450002070B51546026C04462B
:10331000866B42B905689DB9406800F0CFFE6560D4
:103320000136A66370BD6DB9806802F0F1F9A3683B
:10333000226C13446268A360934201D32368A360A4
:103340000020EDE7C06802F0E3F9236CE2685B421D
:1033500021681A448A42E2603EBF62689B18E360BB
:10336000022DEDD10EB1013EEAE73046D8E7034623
:103370001A6C10B4084662B1D9685C681144A14265
:10338000D96028BF196810BC28BFD960D96802F07D
:10339000BFB910BC704770B50446FFF7CBFD94F879
:1033A000455004F124066DB2002D14DCFF2384F88F
:1033B0004530FFF7E1FDFFF7BDFD94F8445004F1FF
:1033C00010066DB2002D12DCFF2384F84430BDE8F6
:1033D0007040FFF7D1BD636A002BE7D0304600F0A4
:1033E00083FD08B100F00CFE013D6DB2DCE72369FE
:1033F000002BE9D0304600F077FD08B100F000FE68
:10340000013D6DB2DEE7000038B50D46044640B917
:103410004FF0500383F31188BFF36F8FBFF34F8FCB
:10342000FEE7FFF787FD206CE36B22684343D1186A
:103430001B1A13446160E3600021FF23A163A260B3
:1034400084F8443084F8453095B9236963B104F1B8
:10345000100000F049FD38B14FF08052094B1A605E
:10346000BFF34F8FBFF36F8FFFF786FD012038BD8D
:1034700004F11000FFF7CBFC04F12400FFF7C7FCB8
:10348000F2E700BF04ED00E070B50D46064640B916
:103490004FF0500383F31188BFF36F8FBFF34F8F4B
:1034A000FEE748434830FFF763FE044638B145B9AC
:1034B0002060E663256401212046FFF7A5FF204632
:1034C00070BD00F148030360F3E700002DE9FF47FA
:1034D000894601921F46044640B94FF0500383F3DA
:1034E0001188BFF36F8FBFF34F8FFEE7002940F0C5
:1034F0008880036C002B00F084804FF0500383F32E
:103500001188BFF36F8FBFF34F8FFEE7019E002E30
:1035100000F082804FF0500383F31188BFF36F8F68
:10352000BFF34F8FFEE7019D1DB9FFF725FD00207A
:1035300058E016B902A800F019FDFFF71DFD00F0D4
:103540000FFBFFF7F7FC94F84430FF2B08BF84F81B
:10355000448094F84530FF2B08BF84F84580FFF77E
:103560000BFD01A902A800F011FD002843D1FFF7CF
:10357000E1FCA66BE56BFFF7FFFCAE4235D101998C
:1035800004F1100000F096FC2046FFF704FF00F065
:1035900081FB38B94FF08053CAF80030BFF34F8F2A
:1035A000BFF36F8F0126FFF7C5FCA26BE36B9A4256
:1035B00001D3022FB7D13A4649462046FFF7A4FE71
:1035C000636A1BB104F1240000F08EFC38B14FF0A7
:1035D0008052184B1A60BFF34F8FBFF36F8FFFF706
:1035E000CBFC012004B0BDE8F0872046FFF7D3FEF6
:1035F00000F050FBD6E72046FFF7CDFE00F04AFB77
:1036000095E7022F02D1E36B012B0AD100F0FEFCFB
:1036100000283FF47BAF00264FF00008DFF814A02D
:10362000C1E74FF0500383F31188BFF36F8FBFF3EF
:103630004F8FFEE704ED00E02DE9F8438846914600
:103640001F46044640B94FF0500383F31188BFF37F
:103650006F8FBFF34F8FFEE709BB036CFBB14FF0D9
:10366000500383F31188BFF36F8FBFF34F8FFEE7D3
:1036700004F1240000F038FC002834D0B9F1000F28
:1036800031D00120C9F8000086F31188BDE8F88325
:1036900001356DB284F8455025E00020F4E7022F93
:1036A00002D1E36B012B20D1FFF710FDEFF3118660
:1036B0004FF0500383F31188BFF36F8FBFF34F8F29
:1036C000A26BE36B9A4201D3022FE6D194F84550E6
:1036D0003A466DB241462046FFF716FE6B1CD7D125
:1036E000636A002BC4D10120CEE74FF0500383F36F
:1036F0001188BFF36F8FBFF34F8FFEE72DE9FF47B0
:10370000884601929946044640B94FF0500383F32E
:103710001188BFF36F8FBFF34F8FFEE7002940F092
:10372000A580036C002B00F0A1804FF0500383F3C1
:103730001188BFF36F8FBFF34F8FFEE7019E002EFE
:1037400000F09A804FF0500383F31188BFF36F8F1E
:10375000BFF34F8FFEE7636AE660002B6DD004F184
:1037600024005FE0019D1DB9FFF706FC284667E0D5
:1037700016B902A800F0FAFBFFF7FEFB00F0F0F923
:10378000FFF7D8FB94F84430FF2B08BF84F844704F
:1037900094F84530FF2B08BF84F84570FFF7ECFB29
:1037A00001A902A800F0F2FB002852D1FFF7C2FBEA
:1037B000A56BFFF7E1FB002D45D1236833B9FFF777
:1037C000B9FB606800F032FCFFF7D6FB019904F109
:1037D000240000F06FFB2046FFF7DDFD00F05AFAF1
:1037E00038B94FF08053CAF80030BFF34F8FBFF3A2
:1037F0006F8F0126FFF79EFBA56B002DB2D04146CF
:103800002046E668FFF7B3FDB9F1000FA3D12368A6
:10381000013DA56313B900F0A1FC6060236963B1A9
:1038200004F1100000F060FB38B14FF08052144BEF
:103830001A60BFF34F8FBFF36F8FFFF79DFB01201F
:1038400004B0BDE8F0872046FFF7A5FD00F022FA9E
:10385000CFE72046FFF79FFD00F01CFAFFF76AFB59
:10386000A56BFFF789FB002DC3D17FE700F0CEFBEE
:1038700000283FF463AF00260027DFF804A0B9E773
:1038800004ED00E0064A13681968064B19B94FF0B9
:10389000FF321A6070471268D268D2685268F8E73F
:1038A0008850002060510020F8B51B4B1B4E1D684E
:1038B000044630680F460430FFF7DAFA334640B961
:1038C00001203168164EC96A3268884022EA000237
:1038D0003260621C07D137B1196812480431BDE863
:1038E000F840FFF7A2BA2C441A68A542546007D9E1
:1038F0000D4A10681968BDE8F8400431FFF7A1BA15
:103900000A4A106819680431FFF79BFA084B1A68D5
:10391000944238BF1C60F8BDA8510020845000209C
:1039200030510020805100208C5000208850002011
:10393000605100204FF0500383F31188BFF36F8F65
:10394000BFF34F8FFEE700002DE9F84F4FEA820AE0
:10395000804650460F4699460B9EFFF709FC0546E8
:10396000002800F096805420FFF702FC044600284F
:1039700000F08C80AAF1040A056355447B1E25F0F3
:10398000070A00F134020F37597802F8011B13F8C7
:10399000011F09B1BB42F7D10A9D4FF0000B062D64
:1039A00028BF0625271DE5626564384684F843B0C4
:1039B000C4F848B0FFF736FAC5F1070504F118005E
:1039C000FFF730FAC4F84CB02461A561646284F852
:1039D00050B04A4641465046FFF782FA206006B191
:1039E0003460FFF7A7FA324B324E1A68DFF8F080E6
:1039F00001321A603568002D4ED134601B68012BEE
:103A00001DD108EB05001435FFF701FA8C2DF8D114
:103A1000DFF8D090284D4846FFF7F9F92846FFF720
:103A2000F6F92648FFF7F3F92548FFF7F0F925489E
:103A3000FFF7EDF9244BC3F80090244B1D600125DE
:103A4000234A24491368086801331360E26A05FABF
:103A500002F3034314200B6000FB02803946FFF79A
:103A6000E4F9FFF789FA1C4B1B6863B13368DA6A23
:103A7000E36A9A4207D24FF08052184B1A60BFF3A4
:103A80004F8FBFF36F8F2846BDE8F88F2846FFF7AA
:103A9000FDFB4FF0FF35F6E70F4B1B68002BCED137
:103AA0003368DA6AE36A9A4298BF3460C7E700BFB6
:103AB0001C510020845000204851002068510020F3
:103AC0009451002080510020885000208C5000200C
:103AD0002C510020305100207C51002004ED00E0EA
:103AE000905000203451002013B50024164B009450
:103AF00001938022234615491548FFF725FF012829
:103B000014D14FF0500383F31188BFF36F8FBFF3CD
:103B10004F8F4FF0FF320F4B1A600F4B18600F4B57
:103B20001C6002B0BDE81040FFF786BA013008D132
:103B30004FF0500383F31188BFF36F8FBFF34F8FA4
:103B4000FEE702B010BD00BF5C510020D069000844
:103B5000CD3D0008605100207C510020A85100207C
:103B6000024A136801331360704700BF28510020D8
:103B70002DE9F84F3C4B1B68002B53D13B4B1C6885
:103B800001341C60BCB93A4B1A68126842B14FF05C
:103B9000500383F31188BFF36F8FBFF34F8FFEE79E
:103BA000344A1968106818601160334A1368013389
:103BB0001360FFF767FE314D4FF0000B2B68304F5D
:103BC0009C423ED3DFF8A880DFF8C490D8F80020EC
:103BD000126872BB4FF0FF322A6032E006F1040A2D
:103BE0005046FFF745F9B16A19B106F11800FFF721
:103BF0003FF901224FF0140EF06AD9F8003002FAB2
:103C000000F119431F4BC9F800100EFB003051465C
:103C1000FFF70BF93868F16AC26A914228BF4FF08A
:103C2000010BD3E7184A4FF0000B13680133136000
:103C300011E0D8F80020D268D66871688C42CDD2E5
:103C400029603A680F4BD16A14224A439A58022AD3
:103C500028BF4FF0010B0D4A1268002A18BF4FF021
:103C6000010B5846BDE8F88F28510020A8510020CC
:103C7000885000208C5000206451002060510020AA
:103C8000845000209050002024510020AC5100208E
:103C9000305100202DE9F843314C236843B94FF0EF
:103CA000500383F31188BFF36F8FBFF34F8FFEE78D
:103CB000FFF740F92368013B236024682CB10024FE
:103CC000FFF75AF92046BDE8F883264B1B68002B06
:103CD000F5D0DFF8A890244FDFF8A480D9F80030A1
:103CE000E3B90CB1FFF7CEFD204D2C6844B101279C
:103CF0001F4EFFF73DFF00B13760013CF9D12C604A
:103D00001B4B1B68002BDAD04FF08052194B1A6006
:103D1000BFF34F8FBFF36F8F0124D1E7D9F80C3079
:103D20000125DC68261D04F11800FFF7A1F83046D4
:103D3000FFF79EF81420E26A396805FA02F30B4394
:103D400000FB028031463B60FFF76FF80A4BE26AE6
:103D50001B68DB6A9A4224BF054B1D60BEE700BFAB
:103D6000285100201C5100203051002024510020F7
:103D7000AC51002004ED00E0845000206851002088
:103D80009050002008B540B94FF080520D4B1A609A
:103D9000BFF34F8FBFF36F8F08BD0B4B196841B155
:103DA0004FF0500383F31188BFF36F8FBFF34F8F32
:103DB000FEE7FFF7D5FEFFF777FDFFF76BFF002863
:103DC000E2D008BD04ED00E02851002008B5174EF0
:103DD000174C236863B9174B1B68012BF8D94FF0B8
:103DE0008052154B1A60BFF34F8FBFF36F8FEFE711
:103DF000FFF7B6FE3568FFF74DFF002DE9D0FFF75E
:103E000099F8F368DD68281DFFF732F80B4A13684C
:103E1000013B13602368013B2360FFF7ADF8286B7B
:103E2000FFF734FA2846FFF731FAD2E79451002021
:103E3000205100209050002004ED00E01C51002093
:103E4000174B10B51A68174B12B101221A6010BD3A
:103E50001A60154B1B68B3FA83F31422DBB2C3F16B
:103E60001F035A4311498C58881844B94FF0500326
:103E700083F31188BFF36F8FBFF34F8FFEE7446862
:103E8000083264680A44944208BF6268446008BF0C
:103E90004260142202FB03135B68DA68044BD5E727
:103EA00028510020AC5100203051002090500020BB
:103EB0008450002010B50C4640B94FF0500383F3F6
:103EC0001188BFF36F8FBFF34F8FFEE7054B196863
:103ED0001831FEF7B6FF2046BDE810400121FFF77C
:103EE000E3BC00BF8450002038B5C368DC6844B927
:103EF0004FF0500383F31188BFF36F8FBFF34F8FE1
:103F0000FEE704F118052846FEF7B2FF114B1B68C7
:103F1000E3B9251D2846FEF7ABFF01230E49E26AEF
:103F200008689340034314200B6029460B4B00FBA9
:103F30000230FEF77AFF0A4BE26A1B68DB6A9A429C
:103F400085BF0120074B0020186038BD2946064870
:103F5000EFE700BF28510020305100209050002092
:103F600084500020AC5100206851002008B508B9E9
:103F7000FFF7E0FC034B1B680360034B1B684360C7
:103F800008BD00BF64510020A851002038B50D467F
:103F9000044640B94FF0500383F31188BFF36F8F8D
:103FA000BFF34F8FFEE741B94FF0500383F3118801
:103FB000BFF36F8FBFF34F8FFEE7FEF7BBFF0E4BD4
:103FC00019682B685A1C10D00C4A2068126890425D
:103FD000626801D091420DD2881A83420AD95B1AD5
:103FE00013442B602046FFF7C1FF0024FEF7C4FFF7
:103FF000204638BD0124F9E7A85100206451002073
:104000000122014B1A607047AC510020054B1B6820
:1040100033B1054B1B68002B0CBF022000207047FA
:10402000012070477C510020285100202DE9F041EB
:104030000446002839D01E4DC36A2A68D26A9342CA
:1040400033D2142782691B4E002AA8BF2A6807FBB7
:104050000363A2BFD26AC2F10702826142699A4237
:1040600020D100F104084046FEF702FF124A48B989
:10407000E06A4743F3592BB901211368814023EAD1
:10408000010313602B681168D86A012383400B4336
:1040900013601423E062414603FB0060BDE8F04179
:1040A000FEF7C3BE2B68DB6AC362BDE8F08100BFC8
:1040B000845000209050002030510020F8B5044674
:1040C00008B90020F8BD224B1B68984208D04FF079
:1040D000500383F31188BFF36F8FBFF34F8FFEE759
:1040E000836C43B94FF0500383F31188BFF36F8F94
:1040F000BFF34F8FFEE7C16A426C013B914283647C
:10410000DFD0002BDDD1051D2846FEF7B1FE114E94
:10411000114A50B91421E76A794373582BB9012029
:104120001368B84023EA00031360636CC3F107010E
:10413000E362A1610124116804FA03F008431060EE
:104140001420294600FB0360FEF76FFE2046F8BDF1
:10415000845000209050002030510020044B1A68F9
:104160001AB119688A6C01328A641868704700BFF6
:1041700084500020F0B58BB06C4606460F4D0F46BC
:104180000FCD0FC40FCD0FC495E8030084E80300E2
:1041900006F1120333F8022D9E425A80FAD1002311
:1041A0001846378036F813205DF8231001330A2BA8
:1041B00001FB0200F6D1000C0BB0F0BD9C690008B9
:1041C00080B594B014220021684601F0ACFA1422A4
:1041D000012300210DEB0200ADF8003001F0A3FA3D
:1041E0000223142200210AA8ADF8143001F09BFA32
:1041F0000323142200210FA8564EADF8283001F0F9
:1042000092FA0423B046544CADF83C303388322B3C
:104210006DD900224FF400712046FDF7FBFB002210
:1042200080212046FDF7F6FB002220212046FDF7E5
:10423000F1FB002208212046FDF7ECFB00224FF4A1
:1042400080712046FDF7E6FB002240212046FDF765
:10425000E1FB002210212046FDF7DCFB00220421B7
:104260003E48FDF7D7FB3E4A1378022B37D0012397
:1042700013700023A8F800303A4B3B4D1A883B4896
:104280002A805A883A4F6A809A88DB88AA80EB8015
:10429000FCF72EFE29886846FFF76CFF6988388096
:1042A00005A8FFF767FFA98878800AA8FFF762FFD3
:1042B000E988B8800FA8FFF75DFF2E4BF8801B78C8
:1042C0002D4D012B16D12B7000232C481A46194670
:1042D0000068FFF7FBF83220FFF754FD96E73388BC
:1042E00001339BB2B3F5167F3380C0D8C4E70133E6
:1042F0003380C1E72B78012BEDD100224FF4007100
:104300002046FDF787FB002280212046FDF782FB37
:10431000002220212046FDF77DFB002208212046B7
:10432000FDF778FB00224FF480712046FDF772FB09
:10433000002240212046FDF76DFB0022102120467F
:10434000FDF768FB002204210448FDF763FB00230E
:104350002B70C0E7B0510020000C01400014014058
:104360000C0000206453002066540020F453002009
:1043700014520020A6520020B2510020AC5300205D
:104380002DE9F04F8FB0102200210AA801F0CBF9DF
:104390000023B14C19464FF0FF322068FFF7AEF909
:1043A0004FF47A7300254FF00A0B0593069400230F
:1043B00006984FF0FF3219460068FFF79FF9012871
:1043C000F5D1A64B1E78012E40F0B3810027A44CF6
:1043D000062D277052D9A349A34801F0FDF90F22F9
:1043E000A24D4FF6FF73A049A1482A704FF0FF0A73
:1043F000FEF714FB3B46384694F800E09D49DFF891
:1044000090C2DFF890823CF8137038F8139008AA35
:1044100022F81370A9EB070212B2002AB8BF524269
:1044200012B2282A2DDD01204F4528BF00228646E2
:1044300034BF0E700A700133042B01F10101E2D187
:1044400008B184F800E08C4B1B78EBB91C468B4D0F
:104450008B4B55F8240033F824100022FDF7DAFACC
:10446000884B002233F82410874B53F82400013482
:10447000FDF7D0FA042CEBD1062598E70135EDB213
:1044800095E781F800A0D6E700267C4FDFF8F4819D
:10449000784B9A57012A39D17B4B38F8261053F8BC
:1044A0002600FDF7B7FA4FF47A7305934FEA8609B1
:1044B0000EAB4B4453F8103C002BC1BF059BA3F53A
:1044C00096739BB205930598FFF75CFC6C4B00223A
:1044D00033F8091057F80900FDF79CFA6A4B0022DF
:1044E00053F8090038F80910FDF794FA4FF47A7080
:1044F000FFF748FC0136042ECAD123785E4E93B9EB
:104500000A9333700B930C930D93B5E7002AF1D106
:104510005B4B012233F8261057F82600FDF77AFA94
:104520004FF4FA73C1E701234FF47A703370FFF749
:1045300029FC56494C4801F04FF90F224FF6FF7302
:1045400049494B482A700024FEF768FADFF8488191
:10455000454DDFF81C91474B1B57002B77DB4C4B2D
:10456000059833F81470FBF72DFF08AB824633F83B
:104570001400381A00B2FBF729FF01465046FCF739
:104580002DF8444B824633F81400C01BFBF71EFF86
:1045900001465046FBF76EFFFCF7BCF8A2000EABDD
:1045A000134443F8100C53F8101C002905DB4EF699
:1045B000602153F8100C884243DD0EAB1A440023EF
:1045C00042F8103C0EAB03EB840353F8102C314B34
:1045D000414633F8143002922D4A284632F814200E
:1045E000019208AA32F814200092224601F0A4F8A1
:1045F0001E4BC2B21A7029464FF6FF73484601346B
:10460000FEF70CFA042CA6D14FF47A70FFF7BAFB30
:104610003478002C42D1194D194B55F8240033F849
:1046200024100022FDF7F6F9164B002233F824106F
:10463000154B53F824000134FDF7ECF9042CEBD1B1
:104640001AE753F8102CC83243F8102CBAE70EAB17
:10465000002203EB8403F7E7AC530020055200204F
:10466000AA520020D56900081C5200209C5200204C
:1046700024540020AB520020A6520020200000202D
:10468000100000203000002040000020E5690008F4
:10469000145200209E520020F56900080024614D4C
:1046A000614EA3000EAA1A4452F8102C002A08DD0D
:1046B0005E4A1257012A35D15D48F15A1858FDF764
:1046C000A9F90134042CECD14FF00008554E002418
:1046D0000520FFF757FB2546534F08F105080EABA1
:1046E00003EB840353F8103C984511D9514B002239
:1046F00033F8241056F82400FDF78CF94C4B0022B7
:1047000037F8241053F82400FDF784F90135EDB291
:104710000134042CE3D1032DD9D94FF4FA60FFF70B
:1047200031FBA9E6002ACCD142490122C95A585985
:10473000C5E7BBF1040F70D900243F4B3F4EDFF8B3
:10474000F090DFF8E480374F1C7032784FEA840B2A
:10475000042A4DD8012338490B70344914F901A0BB
:104760003749BAF1000F2FD0364831F8141030F81D
:104770001400884224D24FF0000A1A4686F800A09E
:10478000B8F80010D9F80000FDF744F90022294BD1
:1047900033F80B1038680134FDF73CF9042C06F1AE
:1047A000010609F1040908F1040807F10407CCD156
:1047B000214B1A78244B5ABB1A704FF00A0BF6E5BE
:1047C000013232700022DBE707931E4B31F81410E0
:1047D00033F814008842F3D9524686F800A0B8F89E
:1047E0000010D9F80000FDF715F9079B1A46CEE72F
:1047F0004FF0000AB8F80010524686F800A0D9F829
:104800000000FDF707F90B4B524633F82410C1E7BF
:1048100001224FF0000B1A70C9E50BF1010B5FFA92
:104820008BFBC4E52000002030000020AB520020AC
:104830004000002010000020AA520020B3510020A8
:104840009E52002014520020A652002008B5134D9D
:10485000134C2B787BB942F21073A3634FF4FA70B8
:10486000FFF790FA00234FF4FA706363A363E363E6
:10487000FFF788FAEDE7012B03D142F2107363636F
:10488000ECE7022B03D142F21073E363E6E7032B5C
:10489000E4D142F21073A363F7E700BF0C000020DD
:1048A0000004004037B5744C00F0C4F92378734D10
:1048B000782B88BF0123284688BF2370FCF732F984
:1048C00095E80C001344AA68207813446C4A1B0C2A
:1048D000138000F021F900216A48FDF763FF0421ED
:1048E0006848FDF75FFF08216648FDF75BFF01227E
:1048F00065496648FEF7EEF86548FCF7F9FA0322C9
:1049000000210120FEF7C0FD624A106020B10023A3
:104910001A461946FEF7DAFDFEF7F0FC5E4902463C
:104920005E4800F009FF5D48FBF782FC002401258A
:1049300082B24FF6FF7359495448FEF76FF8234689
:10494000C8225749019400955648FEF7FDFFFEF72F
:10495000D5FC55490246514800F0EEFE4F48FBF7A2
:1049600067FC4FF6FF7382B24C494848FEF756F891
:104970002346C8224D49019400954D48FEF7E4FFB7
:10498000FEF7BCFC4B490246444800F0D5FE4348C4
:10499000FBF74EFC4FF6FF7382B240493B48FEF7EF
:1049A0003DF823464FF40072434901940095434873
:1049B000FEF7CAFFFEF7A2FC41490246374800F065
:1049C000BBFE3648FBF734FC4FF6FF7382B2334927
:1049D0002E48FEF723F803234FF400720093394961
:1049E000234601943848FEF7AFFFFEF787FC3749AE
:1049F00002462A4800F0A0FE2848FBF719FC4FF6B3
:104A0000FF7382B225492148FEF708F823464FF488
:104A1000C8722F49019400952E48FEF795FFFEF7C6
:104A20006DFC2D4902461D4800F086FE1B48FBF731
:104A3000FFFB4FF6FF7382B218491448FDF7EEFFF3
:104A4000224640210220FEF71FFD244B1860FEF78E
:104A500055FC23490246114800F06EFE0F48FBF753
:104A6000E7FB4FF6FF7382B20C49084803B0BDE87C
:104A70003040FDF7D3BF00BF08520020B8510020DE
:104A8000A85200206C5300207454002024540020AD
:104A9000F4530020AC530020076A00081C52002089
:104AA000186A00084D4800081E6A0008366A0008A7
:104AB000395300083B6A0008526A0008C1410008E7
:104AC0005B6A0008766A0008D14F00087E6A000819
:104AD000986A0008814300089E6A0008705400200C
:104AE000B76A000810B5084C02460849204600F095
:104AF00023FE074BC2B21A702146BDE810404FF4A6
:104B000000530448FDF78ABFC4510020EC6A000836
:104B1000045200202454002038B50546214C0022C0
:104B20004FF400612048FCF775FF3220FBF7E8FFE7
:104B30004FF4005307221D492046FDF76FFFC820A0
:104B4000FBF7DEFF4FF40053072219492046FDF71B
:104B500065FFC820FBF7D4FF2A461649164800F027
:104B6000EBFD164BC2B21A7013494FF400532046A6
:104B7000FDF754FFC820FBF7C3FF01224FF400618B
:104B80000948FCF747FF3220FBF7BAFF4FF4964382
:104B900020466360FDF714FF18B1BDE8384000F00F
:104BA00015BA38BD2454002000080140CF6A00081F
:104BB000D76A0008E26A0008C451002004520020AD
:104BC000F0B587B0FCF742FD00230293134B01A917
:104BD0000493012302A80593FCF7E8FD10B11048E7
:104BE000FFF780FF0D4C0F4E0F4F104D04F178432F
:104BF000A3F5FE339A59214600230220FCF76CFDF1
:104C000010B13846FFF76EFF0434AC42EED1FCF72A
:104C10002FFD0748FFF766FF07B0F0BD00FC010855
:104C20000A6B0008085200201D6B00080CFC0108EC
:104C3000306B000808B50848FFF754FF074B0848D9
:104C40001A68084B1A60084A1168596052689A60DD
:104C5000BDE80840FFF746BFEF6A000800FC010806
:104C6000FE6A00080852002004FC0108382230B512
:104C70009DB00DEB0200002100F055FD1422002133
:104C800001A800F050FD2022002106A800F04BFDF5
:104C90004FF4803302240125109317934FF4E0134F
:104CA0000EA818930E9513951694FCF7B9FE0F23D2
:104CB0004FF4806201930023214601A803930492DC
:104CC00005930294FDF7FAF84FF4004306A8089301
:104CD0000694FDF7C5F9024B1D601DB030BD00BF45
:104CE0007000424280B500244FF4807992B0824D2A
:104CF000FBF7E2FEFFF7BAFF102200210AA800F03E
:104D000012FDAB69012243F02003AB61AB694FF4A4
:104D1000006103F020030193019BAB69774843F0E6
:104D20000403AB61AB69012603F004030293029B09
:104D3000AB69042743F00803AB61AB694FF003088C
:104D400003F008030393039BFCF764FE0022042195
:104D50006B48FCF75FFE00224FF47E716948FCF758
:104D600059FE0AA96548CDF828900B940C94FCF7DD
:104D70006BFD4FF400630AA960480A930B960D96E9
:104D80000C94FCF761FD0AA95D480B960A970C94F8
:104D9000CDF83480FCF758FD4FF47E730AA95948CA
:104DA0000A930B960C94CDF83480FCF74DFD6B699B
:104DB000224633436B616B690521334000930E201B
:104DC000009BFCF7FDF90E20FCF72EFA202221466D
:104DD0000AA84D4D06940794089400F0A4FC4B4B90
:104DE00028462B604FF460232E61EB61C5F80890D4
:104DF000EC606C616C60FBF7FBFF06A92846079628
:104E000006940894FBF716FF07230C934FF4E04336
:104E10000AA9284611930B960A940E9710940F94A2
:104E20000D94FCF7CFF80A9602260AA928460B969D
:104E3000FCF7C8F80AA928460A96CDF82C80FCF79A
:104E4000C1F80AA92846CDF828800B97FCF7BAF8D4
:104E50001022214606A800F066FC1C2221460AA862
:104E60002B4D0494059400F05EFC2A4B284685E8FF
:104E700018004FF6FF73AC60EB602C61AC61FDF77E
:104E8000C3FB4FF4805306A928460693FDF71BFA8F
:104E90002846FDF7D3FB04A9284604940594FDF7A2
:104EA00097FC602322460AA928460A930B940C9487
:104EB0000E94FDF709FC3A460AA92846FDF704FCC2
:104EC0000AA908222846FDF7FFFB284600F0F4FA5D
:104ED0004FF416531048114A846080E80C000C23EC
:104EE000C460436104618461C461FDF769FDFFF73B
:104EF000D9FCFDF77DFFFEE70010024000080140ED
:104F000000140140000C0140F45300200024014033
:104F10006C5300200004004024540020003801405D
:104F20000268164B13B59A4225D1154B1A780D2AF3
:104F30001CD0144C14492378CA540133DBB2402BE3
:104F400008BF00230A2A23700ED122780E490F4889
:104F500000F0DEFB0E48002301AA0C490068FEF7B2
:104F60006BFB0023237001E0FF2AFAD001220449E1
:104F70000848FDF7AFFD02B010BD00BF003801408A
:104F8000745400206E540020E05200202053002072
:104F9000705400202454002038B501210546FCF748
:104FA00001F8094C022120802846FBF7FBFF032172
:104FB00060802846FBF7F6FF0421A0802846FBF717
:104FC000F1FFE08038BD00BF64530020704700004F
:104FD0002DE9F04F002597B04022002106A8DFF808
:104FE00050A3DFF8509300F09EFBADF814508DF8FD
:104FF00011508DF81250ADF816508DF81350B24C78
:1050000000234FF0FF3206A92068FEF777FB012846
:105010000646F5D10024AD4B1C709DF81830732B5B
:1050200000F08D80782B00F0D3806D2BE7D1A84B5A
:10503000A8491A7806A8022A18BF1C700DF112039D
:10504000009305AA0DF1110300F09AFB9DF82230A0
:10505000BDF814208DF812309F4B1B889A42CED198
:105060009E499F4AC8880B88928802908888019040
:1050700049889C4800919C4900F05EFB9B4BC2B262
:1050800098499B481A70FDF74DFD9DF812209542F6
:10509000B5D00021974B12F00102197018BF012200
:1050A0004FF400719448FCF7B5FC9DF81220802164
:1050B00012F0020218BF01228F48FCF7ABFC9DF8EA
:1050C0001220202112F0040218BF01228A48FCF7A6
:1050D000A1FC9DF81220082112F0080218BF01223D
:1050E0008548FCF797FC9DF812204FF4807112F070
:1050F000100218BF01228048FCF78CFC9DF812209A
:10510000402112F0200218BF01227B48FCF782FCEC
:105110009DF81220102112F0400218BF012276489B
:10512000FCF778FC9DF912300421002BB4BF01225A
:1051300000227248FCF76EFC9DF812505FE79DF864
:105140001930782B0ED105AA6D4906A800F018FB7E
:10515000614BBDF814201B889A427FF450AF654B19
:105160001C704CE72C2B7FF44AAF0DF11303039313
:10517000644B05AA9F1E0193CDF808A0043B00973D
:10518000614906A800F0FCFA534BBDF814201B88B7
:105190009A427FF434AF9DF813302046312B14BF70
:1051A00032462246594BDFF834E159491A70023F22
:1051B00037F814303EF814209A4294BF3346034621
:1051C0000B550134042CF3D101224A4B1A7016E717
:1051D000DFF8FC8098F80030022B7FF410AF9DF8C8
:1051E00019303F2B14D14B4A4B4906A800F0C8FA9E
:1051F000394B3B4A1B88928848493A4800F09CFA50
:105200003A4BC2B237493A481A70FDF78BFCF6E6C2
:10521000632B7FF4F4AE0DF1160305AA404906A8EE
:1052200000F0AEFADFF8B0B0BDF81610BBF80030F1
:10523000BDF8142000912B483A4900F07DFA2B4F1D
:1052400038702848FFF74EFCBDF81420BBF800303A
:105250009A427FF4D4AEBDF81630DFF884B08BF8F4
:105260000030FFF7ADFCBBF804202F491D4800F0CB
:1052700063FA1C49C2B21E483A70FDF753FCC820BD
:10528000FEF780FD22464FF400614846FCF7C2FB62
:105290003220FEF777FDBDF816202449114800F0B2
:1052A0004BFA1049C2B212483A70FDF73BFC32206B
:1052B000FEF768FD32464FF400614846FCF7AAFB52
:1052C00088F800409BE600BF70540020B0510020D9
:1052D0000C0000203A6B0008A85200201452002055
:1052E000085200201C520020486B00089C520020ED
:1052F00024540020A6520020000C0140001401405C
:10530000606B0008A2520020696B00080552002063
:10531000AB5200200C520020846B00088C6B0008FC
:105320009A6B0008A76B0008BA6B0008E26A0008D5
:10533000A4520020000801402DE9F04101251C4E37
:105340001C4FDFF878804FF480711948FCF75CFB44
:105350008542044626D00120FEF714FD4FF48071EB
:105360003046FCF751FB854204461BD0D0B90223DE
:1053700002464FF4006130463B70FCF74BFB322095
:10538000FEF700FD082241464FF400530A48FDF79E
:1053900045FB3220FEF7F6FC01224FF40061304657
:1053A000FCF738FB0A20FEF7EDFC2546CBE700BFF3
:1053B000000801400C00002024540020C76B0008A6
:1053C000114B07B59A690F2142F001029A619A695F
:1053D0006FF0010002F001020092009ADA6942F0D7
:1053E0008052DA61DB69002203F080530193019B54
:1053F000FBF7E6FE054A536823F0E06343F00073D1
:10540000536003B05DF804FB00100240000001404F
:1054100010B5044686B01022002102A800F083F9DE
:105420002268144B9A4223D103F56C439A6902A96E
:1054300042F400729A619A690F4802F40072009275
:10544000009A9A6942F004029A619B6903F004038E
:105450000193019B0F23029303230393FCF7F4F9B9
:10546000122000220521FBF7ABFE1220FBF7DCFE29
:1054700006B010BD002401400008014007B50D4BE7
:1054800002689A4212D103F50333DA691D2042F013
:105490000202DA61DB69002203F0020301930521B5
:1054A000019BFBF78DFE1D20FBF7BEFE03B05DF8F0
:1054B00004FB00BF0004004010B5044686B0102273
:1054C000002102A800F02FF92268154B9A4224D13E
:1054D00003F503339A69022442F004029A619A693F
:1054E00002A902F004020092009A9A690D4842F063
:1054F00008029A619B69039403F008030193019BDE
:10550000C02305940293FCF79FF9012302A90648E2
:10551000029303940594FCF797F906B010BD00BF01
:105520000004004000080140000C0140F0B51027C5
:10553000064687B03A46002102A800F0F4F8326827
:10554000244B9A4243D103F558439A6902A942F485
:1055500080429A619A69204802F480420092009A3F
:105560009A69002542F004029A619B691B4C03F082
:1055700004030193019B4FF40073029302230393EE
:1055800003230593FCF760F94FF48063124802A9E6
:10559000029303950495FCF757F9114B204684E8D4
:1055A00088008023A560E36025616561A561E561F0
:1055B000FBF75CFE08B1FFF709FD252034630022EC
:1055C00005216662FBF7FCFD2520FBF72DFE07B0E9
:1055D000F0BD00BF0038014000080140B05300207A
:1055E000440002407047FEE7FEE7FEE7FEE7704733
:1055F00008B5FBF773FABDE80840FDF7FEBB0000F5
:105600000148FBF71FBF00BFB05300200148FBF764
:105610009BBA00BFF45300200148FCF712BF00BF43
:105620006C5300200148FDF73BBB00BF2454002011
:1056300008B50A4B0246196809B909491960694653
:10564000186802448A4206D900F05CF80C23036013
:105650004FF0FF3008BD1A6008BD00BFB0520020F7
:105660007C540020124B1A6842F001021A605968FB
:10567000104A0A405A601A6822F0847222F480327A
:105680001A601A6822F480221A605A6822F4FE0214
:105690005A601A6822F0A0521A604FF47F029A6092
:1056A0000022DA624FF00062034B9A60704700BF3D
:1056B000001002400000FFF000ED00E0002103E0D8
:1056C0000A4B5B584350043109480A4B42189A422E
:1056D000F6D3094A02E0002342F8043B074B9A4202
:1056E000F9D3FFF7BFFFFFF7FDFA7047B46D00086D
:1056F0000000002024020020280200207C5400200A
:10570000FEE70000014B1868704700BF54000020FE
:1057100010B5431E0A44914200D110BD11F8014B4F
:1057200003F8014FF7E703460244934200D1704764
:1057300003F8011BF9E700000EB44FF4027100B545
:105740009CB0ADF814106FF00041049107914FF632
:10575000FF711DAB02900690084853F8042BADF87A
:105760001610006802A9019300F09AF80022029B2B
:105770001A701CB05DF804EB03B0704754000020B1
:105780000EB44FF4017230B59CB01FAC54F8045BFA
:10579000ADF8142002900690FAF74AFD0B4B0390E7
:1057A0000B9300230F9314934FF6FF730790084851
:1057B000ADF816302A46234602A90068019400F08D
:1057C000BDF91CB0BDE8304003B07047D5570008A4
:1057D0005400002000207047034611F8012B03F805
:1057E000012B002AF9D170472DE9F0478E688246D7
:1057F0009E420C469146984635D88A8912F4906F9D
:1058000031D00223256809696F1A656905EB4505E2
:1058100095FBF3F508F101033B449D4238BF1D465B
:10582000530531D5294600F0F1FF064650B90C2347
:10583000CAF80030A3894FF0FF3043F04003A38142
:10584000BDE8F0873A462169FFF762FFA38923F498
:10585000906343F08003A38126613E442660464660
:105860006561ED1BA560464528BF46464946324660
:10587000206800F065FFA36800209B1BA3602368DD
:105880001E442660BDE8F0872A4601F01DF8064652
:105890000028E1D12169504600F06CFFC7E7000005
:1058A0002DE9F04F9DB003938B8980461C060D4671
:1058B00016460FD50B696BB9402100F0A7FF286091
:1058C000286128B90C23C8F800304FF0FF30C4E03D
:1058D00040236B610023099320238DF82930302366
:1058E0004FF0010B8DF82A3037463C4614F8013B47
:1058F000002B3CD1B7EB060A0BD053463246294663
:105900004046FFF771FF013000F0A280099B53442D
:1059100009933B78002B00F09B8000234FF0FF326F
:1059200004930793059206938DF853301A9305223A
:105930002178504800F0F6FE671C049BD8B9D906C0
:1059400044BF20228DF853201A0744BF2B228DF824
:10595000532022782A2A16D000210A20079A2746A7
:105960003B780134303B092B50D9C9B111E0252BCC
:10597000C0D02746B9E73F4A3C46801A0BFA00F0F0
:1059800018430490D3E7039A111D12680391002A6B
:1059900001DB079204E0524243F0020307920493B2
:1059A0003B782E2B0DD17B78791C2A2B32D1039B8F
:1059B00002371A1D1B680392002BB8BF4FF0FF334C
:1059C00005932D4C03223978204600F0ABFE38B108
:1059D0004023001B03FA00F0049B013703430493A8
:1059E0003978062225487E1C8DF8281000F09AFE92
:1059F000002835D0224BFBB9039B073323F0070364
:105A000008330393099B4B4409936DE700FB023273
:105A10000121A4E700230A24184605930F463A788B
:105A20000131303A092A03D9002BCAD00590C8E7C2
:105A300004FB00200123F1E703AB00932A46114B3E
:105A400004A94046AFF30080B0F1FF3F8146D9D1B1
:105A5000AB895B063FF539AF09981DB0BDE8F08F03
:105A600003AB00932A46074B04A9404600F032FAE4
:105A7000EAE700BFE86B0008EE6B0008F26B000875
:105A800000000000E957000838B54B1C144603D14C
:105A90004FF0FF35284638BD9389CDB223F020035F
:105AA0009381536B52688BB1A36B9A4208DA2368D7
:105AB0005A1E226003F8015C636801336360E9E702
:105AC000214600F0D3FD0028F1D0E1E721692368E9
:105AD00051B1994208D213F8011C8D4204D1013B07
