:020000040800F2
:1000000000000120B55F0008DD5E0008DF5E00082B
:10001000E15E0008E35E0008E55E00080000000005
:10002000000000000000000000000000313800085F
:10003000E75E000800000000C1380008E95E000823
:10004000F95F0008F95F0008F95F0008F95F000830
:10005000F95F0008F95F0008F95F0008F95F000820
:10006000F95F0008F95F0008F95F0008F95F000810
:10007000F95F0008F95F0008F95E0008F95F000801
:10008000F95F0008F95F0008055F0008F95F0008E4
:10009000F95F0008F95F0008F95F0008F95F0008E0
:1000A000F95F0008F95F0008F95F0008F95F0008D0
:1000B000F95F0008115F0008F95F0008F95F0008A8
:1000C000F95F0008F95F0008F95F0008F95F0008B0
:1000D000F95F00081D5F0008F95F0008F95F00087C
:1000E000F95F0008F95F0008F95F000800000000F0
:1000F0000000000000000000000000000000000000
:100100000000000000000000F95F0008F95F00082F
:10011000F95F0008F95F0008F95F0008F95F00085F
:10012000F95F0008F95F0008F95F0008F95F00084F
:10013000F95F00080000000000000000F95F0008FF
:10014000F95F0008F95F0008F95F0008F95F00082F
:10015000000000000000000000000000000000009F
:10016000000000000000000000000000000000008F
:10017000000000000000000000000000000000007F
:10018000000000000000000000000000000000006F
:10019000000000000000000000000000000000005F
:1001A000000000000000000000000000000000004F
:1001B000000000000000000000000000000000003F
:1001C000000000000000000000000000000000002F
:1001D000000000000000000000000000000000001F
:0401E0005FF8E0F1F3
:1001F00010B5054C237833B9044B13B10448AFF361
:1002000000800123237010BD2802002000000000A0
:10021000988A000808B5034B1BB103490348AFF3A4
:10022000008008BD000000002C020020988A000811
:10023000034613F8012B002AFBD1181A0138704726
:10024000D0400B1CD1409C46203AD3401843524228
:10025000634693401843704781F0004102E000BFBD
:1002600083F0004330B54FEA41044FEA430594EA76
:10027000050F08BF90EA020F1FBF54EA000C55EAB1
:10028000020C7FEA645C7FEA655C00F0E2804FEA82
:100290005454D4EB5555B8BF6D420CDD2C4480EA64
:1002A000020281EA030382EA000083EA010180EA94
:1002B000020281EA0303362D88BF30BD11F0004FE2
:1002C0004FEA01314FF4801C4CEA113102D0404218
:1002D00061EB410113F0004F4FEA03334CEA133353
:1002E00002D0524263EB430394EA050F00F0A7806B
:1002F000A4F10104D5F1200E0DDB02FA0EFC22FA66
:1003000005F2801841F1000103FA0EF2801843FA59
:1003100005F359410EE0A5F120050EF1200E012A4A
:1003200003FA0EFC28BF4CF0020C43FA05F3C01888
:1003300051EBE37101F0004507D54FF0000EDCF101
:10034000000C7EEB00006EEB0101B1F5801F1BD3AA
:10035000B1F5001F0CD349085FEA30004FEA3C0CAE
:1003600004F101044FEA445212F5800F80F09A80A4
:10037000BCF1004F08BF5FEA500C50F1000041EBA8
:10038000045141EA050130BD5FEA4C0C404141EBAC
:10039000010111F4801FA4F10104E9D191F0000FD3
:1003A00004BF01460020B1FA81F308BF2033A3F156
:1003B0000B03B3F120020CDA0C3208DD02F1140C4D
:1003C000C2F10C0201FA0CF021FA02F10CE002F188
:1003D0001402D8BFC2F1200C01FA02F120FA0CFC81
:1003E000DCBF41EA0C019040E41AA2BF01EB0451CA
:1003F000294330BD6FEA04041F3C1CDA0C340EDCC8
:1004000004F11404C4F1200220FA04F001FA02F30A
:1004100040EA030021FA04F345EA030130BDC4F1C8
:100420000C04C4F1200220FA02F001FA04F340EABD
:100430000300294630BD21FA04F0294630BD94F06E
:10044000000F83F4801306BF81F480110134013D55
:100450004EE77FEA645C18BF7FEA655C29D094EAC6
:10046000050F08BF90EA020F05D054EA000C04BF44
:100470001946104630BD91EA030F1EBF002100202F
:1004800030BD5FEA545C05D14000494128BF41F0CE
:10049000004130BD14F580043CBF01F5801130BD32
:1004A00001F0004545F0FE4141F470014FF00000BD
:1004B00030BD7FEA645C1ABF194610467FEA655C6E
:1004C0001CBF0B46024650EA013406BF52EA033510
:1004D00091EA030F41F4002130BD00BF90F0000FFE
:1004E00004BF0021704730B54FF4806404F132043A
:1004F0004FF000054FF0000150E700BF90F0000FF3
:1005000004BF0021704730B54FF4806404F1320419
:1005100010F0004548BF40424FF000013EE700BFE9
:1005200042004FEAE2014FEA31014FEA02701FBF79
:1005300012F07F4393F07F4F81F06051704792F04B
:10054000000F14BF93F07F4F704730B54FF46074C5
:1005500001F0004521F0004120E700BF50EA010210
:1005600008BF704730B54FF000050AE050EA0102BD
:1005700008BF704730B511F0004502D5404261EB2D
:1005800041014FF4806404F132045FEA915C3FF46E
:10059000DCAE4FF003025FEADC0C18BF03325FEA07
:1005A000DC0C18BF033202EBDC02C2F1200300FABC
:1005B00003FC20FA02F001FA03FE40EA0E0021FAE1
:1005C00002F11444C1E600BF70B54FF0FF0C4CF4CB
:1005D000E06C1CEA11541DBF1CEA135594EA0C0F81
:1005E00095EA0C0F00F0DEF82C4481EA030621EABC
:1005F0004C5123EA4C5350EA013518BF52EA0335F7
:1006000041F4801143F4801338D0A0FB02CE4FF0A8
:100610000005E1FB02E506F00042E0FB03E54FF0D8
:100620000006E1FB03569CF0000F18BF4EF0010ED0
:10063000A4F1FF04B6F5007F64F5407404D25FEACC
:100640004E0E6D4146EB060642EAC62141EA55517F
:100650004FEAC52040EA5E504FEACE2EB4F1FD0CC1
:1006600088BFBCF5E06F1ED8BEF1004F08BF5FEA3F
:10067000500E50F1000041EB045170BD06F00046F1
:1006800046EA010140EA020081EA0301B4EB5C049E
:10069000C2BFD4EB0C0541EA045170BD41F4801196
:1006A0004FF0000E013C00F3AB8014F1360FDEBFBB
:1006B000002001F0004170BDC4F10004203C35DA97
:1006C0000C341BDC04F11404C4F1200500FA05F31A
:1006D00020FA04F001FA05F240EA020001F00042BB
:1006E00021F0004110EBD37021FA04F642EB060131
:1006F0005EEA430E08BF20EAD37070BDC4F10C045B
:10070000C4F1200500FA04F320FA05F001FA04F21E
:1007100040EA020001F0004110EBD37041F100010A
:100720005EEA430E08BF20EAD37070BDC4F1200515
:1007300000FA05F24EEA020E20FA04F301FA05F27D
:1007400043EA020321FA04F001F0004121FA04F225
:1007500020EA020000EBD3705EEA430E08BF20EAF5
:10076000D37070BD94F0000F0FD101F0004640002F
:1007700041EB010111F4801F08BF013CF7D041EAB1
:10078000060195F0000F18BF704703F000465200B5
:1007900043EB030313F4801F08BF013DF7D043EA86
:1007A0000603704794EA0C0F0CEA135518BF95EA3C
:1007B0000C0F0CD050EA410618BF52EA4306D1D1C3
:1007C00081EA030101F000414FF0000070BD50EAE2
:1007D000410606BF1046194652EA430619D094EA6C
:1007E0000C0F02D150EA013613D195EA0C0F05D156
:1007F00052EA03361CBF104619460AD181EA0301AA
:1008000001F0004141F0FE4141F470014FF0000061
:1008100070BD41F0FE4141F4780170BD70B54FF0FC
:10082000FF0C4CF4E06C1CEA11541DBF1CEA13557C
:1008300094EA0C0F95EA0C0F00F0A7F8A4EB05045E
:1008400081EA030E52EA03354FEA013100F0888055
:100850004FEA03334FF0805545EA131343EA12631E
:100860004FEA022245EA111545EA10654FEA0026D3
:100870000EF000419D4208BF964244F1FD0404F58C
:10088000407402D25B084FEA3202B61A65EB0305E8
:100890005B084FEA32024FF480104FF4002CB6EBA5
:1008A000020E75EB030E22BFB61A754640EA0C0025
:1008B0005B084FEA3202B6EB020E75EB030E22BF65
:1008C000B61A754640EA5C005B084FEA3202B6EBA6
:1008D000020E75EB030E22BFB61A754640EA9C0065
:1008E0005B084FEA3202B6EB020E75EB030E22BF35
:1008F000B61A754640EADC0055EA060E18D04FEAF3
:10090000051545EA16754FEA06164FEAC30343EA92
:1009100052734FEAC2025FEA1C1CC0D111F4801F5F
:100920000BD141EA00014FF000004FF0004CB6E758
:1009300011F4801F04BF01430020B4F1FD0C88BFF7
:10094000BCF5E06F3FF6AFAEB5EB030C04BFB6EB02
:10095000020C5FEA500C50F1000041EB045170BDF5
:100960000EF0004E4EEA113114EB5C04C2BFD4EB22
:100970000C0541EA045170BD41F480114FF0000EA6
:10098000013C90E645EA060E8DE60CEA135594EA22
:100990000C0F08BF95EA0C0F3FF43BAF94EA0C0F25
:1009A0000AD150EA01347FF434AF95EA0C0F7FF49A
:1009B00025AF104619462CE795EA0C0F06D152EAEE
:1009C00003353FF4FDAE1046194622E750EA4106D2
:1009D00018BF52EA43067FF4C5AE50EA41047FF4E3
:1009E0000DAF52EA43057FF4EBAE12E74FF0FF3C48
:1009F00006E000BF4FF0010C02E000BF4FF0010C19
:100A00004DF804CD4FEA410C7FEA6C5C4FEA430C91
:100A100018BF7FEA6C5C1BD001B050EA410C0CBFE0
:100A200052EA430C91EA030F02BF90EA020F002042
:100A3000704710F1000F91EA030F58BF994208BFA9
:100A400090422CBFD8176FEAE37040F00100704766
:100A50004FEA410C7FEA6C5C02D150EA013C07D1BD
:100A60004FEA430C7FEA6C5CD6D152EA033CD3D008
:100A70005DF8040B704700BF8446104662468C4602
:100A80001946634600E000BF01B5FFF7B7FF002835
:100A900048BF10F1000F01BD4DF808EDFFF7F4FF5E
:100AA0000CBF012000205DF808FB00BF4DF808EDE9
:100AB000FFF7EAFF34BF012000205DF808FB00BF0C
:100AC0004DF808EDFFF7E0FF94BF012000205DF82E
:100AD00008FB00BF4DF808EDFFF7CEFF94BF0120E3
:100AE00000205DF808FB00BF4DF808EDFFF7C4FFDC
:100AF00034BF012000205DF808FB00BF4FEA410C25
:100B00007FEA6C5C02D150EA013C0AD14FEA430C07
:100B10007FEA6C5C02D152EA033C02D14FF0000044
:100B200070474FF0010070474FEA410212F5001282
:100B300015D211D56FF47873B3EB625212D94FEA24
:100B4000C12343F0004343EA505311F0004F23FA0E
:100B500002F018BF404270474FF00000704750EA63
:100B6000013005D111F0004008BF6FF00040704720
:100B70004FF00000704700BF80F0004002E000BF6F
:100B800081F0004142001FBF5FEA410392EA030F78
:100B90007FEA226C7FEA236C6AD04FEA1262D2EBC2
:100BA0001363C1BFD218414048404140B8BF5B42C7
:100BB000192B88BF704710F0004F40F4000020F060
:100BC0007F4018BF404211F0004F41F4000121F076
:100BD0007F4118BF494292EA030F3FD0A2F10102C0
:100BE00041FA03FC10EB0C00C3F1200301FA03F1FE
:100BF00000F0004302D5494260EB4000B0F5000F21
:100C000013D3B0F1807F06D340084FEA310102F1DF
:100C10000102FE2A51D2B1F1004F40EBC25008BF91
:100C200020F0010040EA03007047490040EB00005B
:100C300010F4000FA2F10102EDD1B0FA80FCACF18A
:100C4000080CB2EB0C0200FA0CF0AABF00EBC25089
:100C500052421843BCBFD0401843704792F0000F77
:100C600081F4000106BF80F400000132013BB5E7CA
:100C70004FEA41037FEA226C18BF7FEA236C21D040
:100C800092EA030F04D092F0000F08BF08467047A5
:100C900090EA010F1CBF0020704712F07F4F04D173
:100CA000400028BF40F00040704712F100723CBF86
:100CB00000F50000704700F0004343F0FE4040F4B0
:100CC000000070477FEA226216BF08467FEA23636E
:100CD0000146420206BF5FEA412390EA010F40F459
:100CE000800070474FF0000304E000BF10F00043A5
:100CF00048BF40425FEA000C08BF704743F096438C
:100D000001464FF000001CE050EA010208BF7047A6
:100D10004FF000030AE000BF50EA010208BF70472D
:100D200011F0004302D5404261EB41015FEA010C42
:100D300002BF84460146002043F0B64308BFA3F13A
:100D40008053A3F50003BCFA8CF2083AA3EBC2531C
:100D500010DB01FA02FC634400FA02FCC2F120023B
:100D6000BCF1004F20FA02F243EB020008BF20F072
:100D70000100704702F1200201FA02FCC2F12002D8
:100D800050EA4C0021FA02F243EB020008BF20EACD
:100D9000DC7070474FF0FF0C1CEAD0521EBF1CEAFB
:100DA000D15392EA0C0F93EA0C0F6FD01A4480EAE9
:100DB000010C400218BF5FEA41211ED04FF00063D2
:100DC00043EA501043EA5111A0FB01310CF00040FE
:100DD000B1F5000F3EBF490041EAD3715B0040EA24
:100DE000010062F17F02FD2A1DD8B3F1004F40EBF4
:100DF000C25008BF20F00100704790F0000F0CF0C7
:100E0000004C08BF49024CEA502040EA51207F3A8A
:100E1000C2BFD2F1FF0340EAC250704740F4000065
:100E20004FF00003013A5DDC12F1190FDCBF00F056
:100E300000407047C2F10002410021FA02F1C2F104
:100E4000200200FA02FC5FEA310040F1000053EAA0
:100E50004C0308BF20EADC70704792F0000F00F0EE
:100E6000004C02BF400010F4000F013AF9D040EAF4
:100E70000C0093F0000F01F0004C02BF490011F488
:100E8000000F013BF9D041EA0C018FE70CEAD15386
:100E900092EA0C0F18BF93EA0C0F0AD030F0004C06
:100EA00018BF31F0004CD8D180EA010000F00040BA
:100EB000704790F0000F17BF90F0004F084691F078
:100EC000000F91F0004F14D092EA0C0F01D14202B2
:100ED0000FD193EA0C0F03D14B0218BF084608D17B
:100EE00080EA010000F0004040F0FE4040F40000C5
:100EF000704740F0FE4040F4400070474FF0FF0C58
:100F00001CEAD0521EBF1CEAD15392EA0C0F93EA9E
:100F10000C0F69D0A2EB030280EA010C49024FEAF0
:100F2000402037D04FF0805343EA111143EA1013A9
:100F30000CF000408B4238BF5B0042F17D024FF461
:100F4000000C8B4224BF5B1A40EA0C00B3EB510F3C
:100F500024BFA3EB510340EA5C00B3EB910F24BF25
:100F6000A3EB910340EA9C00B3EBD10F24BFA3EBAA
:100F7000D10340EADC001B0118BF5FEA1C1CE0D172
:100F8000FD2A3FF650AF8B4240EBC25008BF20F025
:100F9000010070470CF0004C4CEA50207F32C2BF79
:100FA000D2F1FF0340EAC250704740F400004FF016
:100FB0000003013A37E792F0000F00F0004C02BF47
:100FC000400010F4000F013AF9D040EA0C0093F011
:100FD000000F01F0004C02BF490011F4000F013B6B
:100FE000F9D041EA0C0195E70CEAD15392EA0C0FD3
:100FF00008D142027FF47DAF93EA0C0F7FF470AF0B
:10100000084676E793EA0C0F04D14B023FF44CAF4D
:1010100008466EE730F0004C18BF31F0004CCAD1E2
:1010200030F000427FF45CAF31F000437FF43CAF1E
:101030005FE700BF4FEA4002B2F1FE4F0FD34FF01F
:101040009E03B3EB12620DD94FEA002343F0004335
:1010500010F0004F23FA02F018BF404270474FF0E3
:101060000000704712F1610F01D1420205D110F06A
:10107000004008BF6FF0004070474FF0000070471D
:1010800053B94AB9002908BF00281CBF4FF0FF31EF
:101090004FF0FF3000F07AB9ADF1080C6DE904CEE5
:1010A00000F006F8DDF804E0DDE9022304B0704743
:1010B0002DE9F0478C460E460446089D002B50D182
:1010C0008A4217466CD9B2FA82FEBEF1000F0BD0ED
:1010D000CEF1200C01FA0EF620FA0CFC02FA0EF703
:1010E0004CEA060C00FA0EF43A0CBCFBF2F9BBB267
:1010F00002FB19CC09FB03FA4FEA144848EA0C46F4
:10110000B2450AD9F61909F1FF3180F02581B245BF
:1011100040F22281A9F102093E44A6EB0A06B6FB81
:10112000F2F002FB106600FB03F3A4B244EA0644AB
:10113000A34209D9E41900F1FF3280F00B81A342E8
:1011400040F2088102383C440021E41A40EA094098
:10115000002D62D0002324FA0EF42C606B60BDE8F1
:10116000F0878B4207D9002D55D0002185E841003A
:101170000846BDE8F087B3FA83F1002940F08F807C
:10118000B34202D3824200F2FC80841A66EB03066B
:101190000120B446002D40D085E81010BDE8F0874E
:1011A00012B90127B7FBF2F7B7FA87FEBEF1000FBD
:1011B00035D10121F61B4FEA174C1FFA87F8B6FB11
:1011C000FCF20CFB126608FB02F0230C43EA064615
:1011D000B04207D9F61902F1FF3302D2B04200F251
:1011E000D2801A46361AB6FBFCF00CFB106608FBE0
:1011F00000F8A3B243EA0644A04507D9E41900F178
:10120000FF3302D2A04500F2B9801846A4EB0804CF
:1012100040EA02409CE729462846BDE8F08707FAE5
:101220000EF7CEF1200326FA03F24FEA174CB2FB79
:10123000FCF11FFA87F80CFB112206FA0EF620FAD1
:1012400003F301FB08F933431E0C46EA0246B1459D
:1012500000FA0EF409D9F61901F1FF3280F08C8002
:10126000B14540F2898002393E44A6EB0906B6FB3F
:10127000FCF00CFB106200FB08F99EB246EA024645
:10128000B14507D9F61900F1FF3371D2B1456FD9D5
:1012900002383E44A6EB090640EA01418FE7C1F15E
:1012A000200722FA07F88B4048EA030326FA07F4DE
:1012B0004FEA134EB4FBFEF91FFA83FC0EFB1944F0
:1012C0008E4020FA07F809FB0CFA48EA06084FEAB4
:1012D000184646EA0444A24502FA01F200FA01F671
:1012E00008D9E41809F1FF3044D2A24542D9A9F146
:1012F00002091C44A4EB0A04B4FBFEF00EFB1044EC
:1013000000FB0CFC1FFA88F848EA0444A44507D9FE
:10131000E41800F1FF3E29D2A44527D902381C4425
:1013200040EA0940A0FB0289A4EB0C0CCC45C24664
:10133000CE4615D312D055B1B6EB0A036CEB0E06B0
:1013400006FA07F7CB401F43CE402F606E600021A6
:10135000BDE8F0871046F7E68946DEE64645EAD264
:10136000B8EB020A69EB030E0138E4E77046D7E7F1
:1013700018468FE78146BDE7114676E702383C44C0
:1013800044E7084606E7023A3E442BE7704700BFB1
:1013900038B50E4B054618784FF47A73B3FBF0F36B
:1013A0000B4A1068B0FBF3F000F0DAFB044658B9C2
:1013B0000F2D09D8024629464FF0FF3000F090FB70
:1013C000044B20461D6038BD012038BD00000020C0
:1013D0005000002004000020074A08B513680320CD
:1013E00043F01003136000F069FB0F20FFF7D0FFFC
:1013F00004F062FC002008BD00200240034A044BB8
:1014000011681B780B441360704700BFD85200204E
:1014100000000020014B1868704700BFD852002020
:1014200038B50446FFF7F6FF0546631C1EBF044BA4
:101430001B78E418FFF7EEFF401B8442FAD838BD52
:1014400000000020044B1B680360044B1B684360D2
:10145000034B1B6883607047E8F7FF1FECF7FF1F23
:10146000F0F7FF1F70477047036810B55A680446CD
:10147000900627D51A68910724D5A26AD2065EBFC6
:10148000A26A42F40072A2629A6802F46022B2F583
:10149000602F10D1E26872B95A6822F020025A60B7
:1014A000A36A23F48073A362A36ADB045EBFA36A0A
:1014B00043F00103A3622046FFF7D4FF6FF012024E
:1014C00023681A6023685A68100630D51A685107D5
:1014D0002DD5A26AD2065EBFA26A42F40052A26271
:1014E0009A6802F4E042B2F5E04F0AD05A6850051B
:1014F00016D49A6802F46022B2F5602F10D1E26827
:1015000072B95A6822F080025A60A36A23F48053A9
:10151000A362A36AD9055EBFA36A43F00103A36275
:10152000204604F0B5F96FF00C0223681A602368B6
:101530005A6852060DD51B68DB070AD5A36A2046F8
:1015400043F48033A362FFF78EFF6FF0010223683C
:101550001A6010BD002373B5019390F82430012B5D
:1015600074D001234D6880F82430062D02684FEABC
:1015700085030C6825D82B441F25566B053B9D40E1
:1015800026EA050504FA03F32B435363092C4FEABB
:1015900044038D682FD907262344D1681E3B9E4003
:1015A00021EA060105FA03F30B43D360A4F110030B
:1015B000012B2BD90023002280F82420184602B0EA
:1015C00070BD0C2D0BD82B441F25166B233B9D4063
:1015D00026EA050504FA03F32B431363D6E72B44ED
:1015E0001F25D66A413B9D4026EA050504FA03F310
:1015F0002B43D362CAE70726116923449E4021EAA0
:10160000060105FA03F30B431361CFE7104B9A422F
:1016100016D193681B02CDD49368102C43F40003B9
:101620009360C7D10B4B0C4A1B68B3FBF2F20A2341
:1016300053430193019B002BBCD0019B013BF8E776
:10164000836A43F0200383620123B4E70223B5E7F2
:10165000002401405000002040420F00002373B5D9
:101660000193036804469A68D20702D5002002B0AD
:1016700070BD9A6842F001029A60124B124A1B68D0
:10168000B3FBF2F30193019BC3B9FFF7C3FE064618
:1016900023689D6815F00105E8D1FFF7BBFE801BAC
:1016A0000228F5D9A36A84F8245043F01003A362FA
:1016B000E36A012043F00103E362D8E7019B013BA9
:1016C000E0E700BF5000002040420F0038B503683B
:1016D00004469A68D20701D4002038BD9A6822F0E7
:1016E00001029A60FFF796FE054623689B68DB07B8
:1016F000F2D5FFF78FFE401B0228F6D9A36A01201E
:1017000043F01003A362E36A43F00103E36238BDD0
:1017100070B50446002871D0836A23B9C36280F88B
:10172000243004F0F1FA2046FFF7D0FFA36A13F04B
:10173000100FA36A64D1002862D1E16923F48853B1
:10174000626823F0020343F002030A43A168A36224
:10175000E368B1F5807F42EA430238D0012914BF23
:1017600006464FF480766569012D07D1002B30D1F4
:10177000A369013B46EA433545F400662368B1F5A9
:10178000807F5D6825F4694545EA06055D609E68D1
:101790001D4D05EA060545EA02059D6001D00129B7
:1017A00020D1216901390905DD6A25F47005294335
:1017B000D9629968154B0B409A4215D10023E36218
:1017C000A36A23F0030343F00103A36270BD0E4636
:1017D000C9E7A36A43F02003A362E36A43F001036D
:1017E000E362CBE70021DFE7A36A23F0120343F0B3
:1017F0001003A362E36A43F00103E362012070BDBA
:1018000043F01003A362F9E7FDF7E1FFFE0E1FFFAF
:1018100090F8243010B5012B04464ED0012380F8F7
:101820002430FFF71BFF002843D1A36A244A23F486
:10183000405323F0010343F48053A362236893428F
:1018400005D1A2F58062526812F4702F29D1A26AE4
:1018500022F48012A262A26A12F4807208BFE262CD
:10186000002284F824206FF004021A605A6842F0C3
:1018700080025A605A68520520D49A6802F4E04205
:10188000B2F5E04F11D10E4A934205D1A2F5806224
:10189000526812F4702F08D19A6842F402129A60CA
:1018A00010BDA26A42F48012D4E79A6842F4004262
:1018B000F5E7002384F8243010BD022010BD00BFDE
:1018C000002801400329036807D0042903D0022916
:1018D00005D1186C7047986C7047586C7047D86B7E
:1018E00070470000F7B50246002092F824300190BE
:1018F000012B00F0D8800127D2F808E082F824708C
:101900004E6813680D68BEF1000F7BD1BE4273D1E3
:1019100070469C6BA40DA40544EAC5349C639C6886
:10192000E40707D49C68CF6924F4E04424F0010460
:101930003C439C608C69012C0DD1CF69B7F5E04F19
:1019400017BF906A5F6840F02000906212BF204687
:1019500047F480675F604F69012F05D1002C74D177
:101960005C6844F480545C60092D4FEA4504D1F86A
:1019700008E070D94FF0070C2C44DF681E3C0CFACD
:1019800004FC27EA0C070EFA04F43C43DC60A5F1E2
:101990001004012C98BF9F68DFF81CE19CBF47F43E
:1019A00000079F60022ECF6862D0032E66D0012E02
:1019B0006AD1596901EA0E0139435961012C16D8DF
:1019C0003A498B4269D19968090210D49968102D5F
:1019D00041F4000199600AD1354B36491B68B3FBCD
:1019E000F1F10A234B430193019B002B52D10023B9
:1019F00082F8243003B0F0BD946A384644F02004E5
:101A000094628CE70F69D3F838E0F41B04EB84048C
:101A1000BE4204F10F0410D807F1FF3C05FA04F7A9
:101A200047EA0C574FF01F0C0CFA04F444F440142E
:101A30002EEA04043C439C6371E71F2707FA04F471
:101A400044F440142EEA0404F5E7906A40F02000C4
:101A50009062384688E74FF0070C1F692C440CFA57
:101A600004FC27EA0C070EFA04F43C431C618EE7E1
:101A7000996901EA0E01394399619FE7D96901EA41
:101A80000E013943D96199E7196A01EA0E01394318
:101A9000196293E7019B013BA5E7936A012043F09C
:101AA00020039362A3E70220A4E700BF00240140C3
:101AB0005000002040420F0000F0FFFF074A0002E4
:101AC000D36800F4E06023F4E0631B041B0C43F0D4
:101AD000BF6343F400330343D360704700ED00E07D
:101AE000174B30B5DC68C4F30224C4F10703251D8D
:101AF000042B28BF0423062D4FF0010598BF0024B6
:101B000005FA03F303F1FF3388BF033C1940A140FA
:101B100005FA04F4013C2240002842EA01024FEA9F
:101B20000212AFBF00F16040064B00F00F00D2B2CE
:101B3000A5BFD2B200F561401A5480F8002330BD31
:101B400000ED00E014ED00E00123420900F01F0069
:101B500003FA00F0014B43F82200704700E100E077
:101B60000138B0F1807F0AD2F021064B064A586056
:101B700082F823100020072298601A607047012025
:101B8000704700BF10E000E000ED00E010B5002855
:101B900032D00168194B1424994225D8184AA3F26F
:101BA00007430A44B2FBF4F2920002648468C36300
:101BB00043680A682343C46822F47F5223430469BC
:101BC00022F0300223434469234384692343C469D8
:101BD000234313430B600122002380F821208363F9
:101BE00080F82030184610BD064B0B44B3FBF4F3CD
:101BF0009B000364044BD9E7012010BD0704024099
:101C0000F8FFFDBFF8FBFDBF00040240F0B590F8FF
:101C10002040012C35D0012490F8215080F820403C
:101C2000A5424FF000064FF0020428D180F8214071
:101C3000046886632668076C26F001062660C66B7A
:101C4000BD407560636043680568102BC36A0BBFB5
:101C5000A260A160E160E2604BB1236843F00E0333
:101C600023602B68002043F001032B60F0BD236844
:101C700023F004032360236843F00A03F0E780F8AD
:101C800020600220F0BD000090F8213010B5022B3A
:101C900003D004238363012010BD03681A6822F077
:101CA0000E021A601A6822F001021A60294A934251
:101CB00024D902F56272934219D01432934218D09B
:101CC0001432934217D0143293420CBF4FF4805316
:101CD0004FF48033204A53600123002480F82130E0
:101CE000436B80F820409BB39847204610BD0123EA
:101CF000F0E71023EEE74FF48073EBE717498B42D0
:101D000016D014318B4215D014318B4214D01431BB
:101D10008B4214D014318B4214D014318B4214D026
:101D2000934214BF4FF480334FF080730C4AD2E7D4
:101D30000123FBE71023F9E74FF48073F6E74FF434
:101D40008053F3E74FF48033F0E74FF48013EDE76F
:101D5000184610BD80000240000402400800024006
:101D60000000024070B40425C66B026C346803683E
:101D700095402542196855D04D0753D51A689606E7
:101D80005EBF1A6822F004021A60604A93421FD9AB
:101D900002F56272934214D01432934213D014327B
:101DA000934212D0143293420CBF4FF480434FF44D
:101DB0008023574A5360C36A002B00F0A58070BC93
:101DC00018470423F5E74023F3E74FF48063F0E777
:101DD00050498B4216D014318B4215D014318B42AE
:101DE00014D014318B4214D014318B4214D01431DE
:101DF0008B4214D0934214BF4FF480234FF0806382
:101E0000454AD7E70423FBE74023F9E74FF4806313
:101E1000F6E74FF48043F3E74FF48023F0E74FF405
:101E20008003EDE702259540254257D08D0755D513
:101E30001A68940606D41A6822F00A021A6001226F
:101E400080F82120314A93421ED902F562729342F2
:101E500013D01432934212D01432934211D0143260
:101E600093420CBF4FF400534FF40033284A5360A1
:101E7000002380F82030836A9EE70223F6E72023C0
:101E8000F4E74FF40073F1E722498B4216D0143186
:101E90008B4215D014318B4214D014318B4214D0A4
:101EA00014318B4214D014318B4214D0934214BF9E
:101EB0004FF400334FF00073174AD8E70223FBE7D3
:101EC0002023F9E74FF40073F6E74FF40053F3E7EC
:101ED0004FF40033F0E74FF40013EDE70825954089
:101EE000254211D009070FD5196821F00E0119609C
:101EF000012303FA02F27260836380F82130002329
:101F000080F82030036B57E770BC704780000240B8
:101F1000000402400800024000000240114AD36859
:101F200013F0100305D01049CB6943F00203CB61D5
:101F30001023D268500706D50B4943F00403CA6941
:101F400042F00102CA61074AD169C90708D50648AB
:101F5000C16941F00401C161D16921F00101D16180
:101F6000D360704700200240E0520020064B186901
:101F700010F0800007D0054A5A6002F188325A609A
:101F80001869C0F3C0107047002002402301674564
:101F9000034A0020136943F080031361704700BFB8
:101FA00000200240F8B50646FFF734FA114C074608
:101FB0002546E368D80712D4E368990644BF202376
:101FC000E360EB68DA0606D4EB69DB0703D4E86864
:101FD00010F0040002D0FFF7A1FF0120F8BD731C30
:101FE000E7D00EB90320F8BDFFF714FAC01B8642F4
:101FF000DFD2F7E7002002402DE9F84F1F4C994649
:10200000237E0546012B0F46904633D001234CF228
:1020100050302376FFF7C6FF40BB012D03D0022DC1
:102020000CBF022504250026B246DFF854B0320169
:1020300040464946FEF704F9C4F81CA0DBF810300E
:1020400080B243F00103CBF8103027F816004CF2B1
:102050005030FFF7A7FFDBF8103023F00103CBF877
:10206000103018B90136F3B29D42E0D80023237630
:10207000BDE8F88F0220BDE8F88F00BFE0520020D5
:10208000002002400022064BDA61064B1A6942F03A
:1020900004021A611A6942F040021A61704700BFD7
:1020A000E0520020002002400022064BDA61064B7D
:1020B0001A6942F002021A6158611A6942F040023C
:1020C0001A617047E0520020002002402DE9F041E3
:1020D000234D07462B7E8846012B3DD00124036803
:1020E0002C76022B4CF2503013D1FFF75BFF20B15E
:1020F000012000232B76BDE8F081FFF7C3FF4CF2EF
:102100005030FFF74FFF174A136923F004031361A0
:10211000EFE7FFF747FF0028EAD14FF0FF33C8F899
:1021200000302046BE680F4CFA68BB6803EBC22340
:102130009E42DED23046FFF7B7FF4CF25030FFF739
:1021400031FF236923F00203236110B1C8F8006056
:10215000CFE706F50066E7E70220BDE8F08100BFA3
:10216000E0520020002002402DE9F74F00221646E1
:10217000654BDFF8A4E1DFF8A4C14FF001080C685B
:1021800008FA06F808EA0404A0457FD14D68122D2C
:1021900000F0AF8000F28880022D00F0A7807CD88C
:1021A000002D00F08E80012D00F09E804FF00F0971
:1021B000FF2C93BF824606F18045083DD0F800B061
:1021C00092BFB500D0F804B0AD0009FA05F82BEACB
:1021D000080802FA05F588BF00F1040A48EA050577
:1021E000CAF80050D1F804A01AF0805F4ED0474DD5
:1021F000464FAD6926F0030845F00105BD61BD6994
:1022000008F1804805F00105019508F5803806F0D1
:10221000030B019D4FEA8B0BD8F8085009FA0BF914
:1022200025EA09093A4DA84268D005F58065A8421B
:1022300066D005F58065A84264D005F58065A842A2
:102240000CBF0325042505FA0BF545EA0905C8F876
:1022500008501D681AF4803F14BF2543A5431D6034
:102260005D681AF4003F14BF2543A5435D609D6877
:102270001AF4801F14BF2543A5439D60DD681AF43E
:10228000001F14BF2C4325EA0404DC600136102E25
:102290007FF473AF03B0BDE8F08F032D22D0112D72
:1022A00084D1CA68043281E71A4FBD4209D012D8DE
:1022B000DFF86C904D4504D009F580394D457FF429
:1022C00075AF8A68C2B1012A0CBFC0F81080C0F88F
:1022D000148008226AE77545F3D06545F1D0DFF830
:1022E0004490EBE7002261E7CA685FE7CA680832FA
:1022F0005CE7CA680C3259E7042257E70025A2E7D9
:102300000125A0E702259EE70004014000100240DD
:1023100000080140000021100000311000003210C0
:1023200000001110000022108368194214BF012020
:10233000002070470AB1016170470904FBE7000003
:1023400003682DE9F341DB07054614D42B689F078A
:1023500062D42B68190700F199802B685A0700F1A5
:10236000C380EA6A002A40F031812A6A002A40F0DC
:102370008481002014E0904C636803F00C03042B6C
:1023800007D0636803F00C03082B0CD16368DE03ED
:1023900009D523689C03D9D5AB68002BD6D1012081
:1023A00002B0BDE8F081AB68B3F5803F10D123687F
:1023B00043F480332360FFF72DF806462368980323
:1023C000C4D4FFF727F8801B6428F7D90320E7E778
:1023D0009BB9236823F480332360236823F480238C
:1023E0002360FFF717F8064623689903AED5FFF779
:1023F00011F8801B6428F7D9E8E7B3F5A02F23680C
:1024000003D143F480232360D1E723F48033236096
:10241000236823F48023CDE7674C636813F00C0F27
:1024200007D0636803F00C03082B10D16368DA034C
:102430000DD423689B0702D56B69012BAFD12368AC
:10244000AA6923F0F80343EAC203236081E76A69BB
:102450005A4B6AB101221A60FEF7DCFF0646236878
:102460009F07ECD4FEF7D6FF801B0228F7D9ADE713
:102470001A60FEF7CFFF0646236898077FF569AF1D
:10248000FEF7C8FF801B0228F6D99FE7EA694A4C8D
:102490004B4BDAB101221A60FEF7BCFF0646636AB5
:1024A0009B070DD54FF4FA52464B1B68B3FBF2F372
:1024B000019300BF019B5A1E0192002BF9D14CE7FA
:1024C000FEF7A8FF801B0228E9D97FE71A60FEF714
:1024D000A1FF0646636A9F077FF53FAFFEF79AFFAD
:1024E000801B0228F6D971E7334CE369DE0024D45F
:1024F0000127E36943F08053E361E36903F080530C
:102500000093009B304E3368D80518D52B69012BFA
:1025100026D1236A43F001032362FEF77BFF41F2D9
:1025200088368046236A9A073FD5002F3FF419AFBB
:10253000E36923F08053E36113E70027E2E73368A0
:1025400043F480733360FEF765FF80463368D90536
:10255000DCD4FEF75FFFA0EB08006428F6D935E76E
:10256000ABB9236A41F2883823F001032362236A5E
:1025700023F004032362FEF74DFF0646236A9B0700
:10258000D3D5FEF747FF801B4045F7D91EE7052B43
:10259000236A03D143F004032362BAE723F0010363
:1025A0002362236A23F00403B6E7FEF733FFA0EBB0
:1025B0000800B042B6D909E70010024000004242CC
:1025C0008004424250000020007000404F4C63687D
:1025D000D80308D5636803F00C03082B03D1E36A22
:1025E000D9033FF5DCAE022A33D12368DA0006D5E1
:1025F000E36A6A6B03F0F00393427FF4D0AE0023EA
:10260000434E3360FEF706FF074623681B011AD4CA
:10261000E36A6A6B23F0F0031343E362E36A2A6B15
:1026200023F470631343E36201233360FEF7F2FE89
:10263000064623681F013FF598AEFEF7EBFE801BB0
:102640006428F6D9C2E6FEF7E5FEC01B6428DCD993
:10265000BCE60022E36A23F48033E3622C4B1A6069
:10266000FEF7D8FE0646236818017FF57EAEFEF71A
:10267000D1FE801B6428F6D9A8E6244C636803F0D9
:102680000C03082B3FF48BAE0023224E022A33604A
:102690002FD1FEF7BFFE07462368990123D46B6A4A
:1026A000B3F5803F09D1E26A69680A43E262E26AEF
:1026B000E96822F00F020A43E262A96A62680B43EA
:1026C00022F474121343636001233360FEF7A2FE09
:1026D000054623689A013FF54CAEFEF79BFE401B72
:1026E0000228F6D972E6FEF795FEC01B0228D3D960
:1026F0006CE6FEF78FFE054623689B017FF539AE39
:10270000FEF788FE401B0228F6D95FE60010024063
:102710006800424260004242F0B589B06A462A4BE6
:1027200003F10805144618685968083303C4AB421E
:102730002246F7D118689B882060A380234B04AC05
:1027400003F11005224618685968083303C2AB42EA
:102750001446F7D11E494B6803F00C02082A31D108
:10276000C3F3834208A80244DB0312F8206C26D589
:10277000CB6A03F00F03034413F8102CCB6A13F455
:10278000803F144B16D0CF6ACC6AC4F303240234C2
:10279000A4FB0645A4FB030103FB0511C7F30313C8
:1027A0000133A3FB0223FEF76BFC0D2E00D1400882
:1027B00009B0F0BD03FB06F0B0FBF2F0F5E7064808
:1027C0007043F5E70348F3E7B08A0008BE8A0008C3
:1027D0000010024000127A0000093D00544A2DE921
:1027E000F0411368054603F007038B420E462AD3D7
:1027F00029688C0734D4CA0747D44D4A136803F0BC
:1028000007039E42C0F082802A684A4C12F0040FEF
:1028100040F08780130706D563682A6923F4605364
:1028200043EAC2036360FFF777FF6368424AC3F37A
:102830000313D35CD840414B18600F20FEF7A8FD6E
:102840000020BDE8F081136823F007030B431360F9
:10285000136803F007039942CAD00120BDE8F08154
:10286000344B11F0040F1EBF5A6842F4E0625A6004
:10287000080742BF5A6842F460525A605A68A86812
:1028800022F0F00202435A60B5E76A68294C012A37
:1028900023681CD113F4003FDFD0636841F288380D
:1028A00023F0030313436360FEF7B4FD6B68074630
:1028B000012B14D1636803F00C03042B9DD0FEF7A9
:1028C000A9FDC01B4045F5D90320BDE8F081022ACF
:1028D00002D113F0007FDFE713F0020FDCE7022BD9
:1028E0000FD1636803F00C03082B86D0FEF792FD2E
:1028F000C01B4045F5D9E7E7FEF78CFDC01B4045FE
:10290000E2D8636813F00C0FF6D176E7136823F072
:10291000070333431360136803F007039E429CD1FF
:1029200072E76368E96823F4E0630B43636071E76F
:102930000020024000100240568D00085000002088
:10294000044B054A5B68C3F30223D35C034A106857
:10295000D840704700100240668D000850000020EB
:10296000044B054A5B68C3F3C223D35C034A106877
:10297000D840704700100240668D000850000020CB
:1029800003682DE9F34113F0010F0546574C1FD0A2
:10299000E369DA0047D40127E36943F08053E36138
:1029A000E36903F080530193019B514E3368DB05CB
:1029B0003BD5236A13F440734BD1236A6A6823F42E
:1029C0004073134323621FB1E36923F08053E36133
:1029D0002A68930705D56368A96823F440430B432D
:1029E0006360570705D5E36AE96823F400330B43B6
:1029F000E362160705D5E36A2A6923F480231343AB
:102A0000E362E36A980366D4E36A590363D42868EF
:102A100010F010001AD06368EA6923F480031343AE
:102A20006360002012E00027BFE7336843F480733F
:102A30003360FEF7EFFC80463368D805B9D4FEF763
:102A4000E9FCA0EB08006428F6D9032002B0BDE839
:102A5000F0816A6802F440729342AED00120254AA8
:102A6000236A1060002023F4407110602162D907AE
:102A7000A3D5FEF7CFFC41F288380646236A9A07B1
:102A80009BD4FEF7C7FC801B4045F7D9DDE72368E0
:102A9000A96913F0806F04D0E26A02F0F0028A4262
:102AA00022D1E36A23F0F0030B43E362E36A6A692D
:102AB00023F4704313430122E3620F4B1A60FEF7C5
:102AC000A9FC064623689A00A1D4FEF7A3FC801B4C
:102AD0006428F7D9B9E72368DB00D8D5E36A6A69C7
:102AE00003F47043934292D00120AFE700100240FC
:102AF000007000404004424270004242036A70B5D8
:102B000023F001030362036A446882690D6822F0BE
:102B100073022A438D6823F002032B430A4DA84217
:102B20000BD1CD6823F008032B438E694D6924F443
:102B30004074354323F004032C43446082614A68A7
:102B40004263036270BD00BF002C0140036A70B590
:102B500023F480730362036A4468C2690D6822F03B
:102B600073022A438D6823F4007343EA05230B4D57
:102B7000A8420DD1CD6823F4006343EA05238E6992
:102B80004D6924F44054354323F4806344EA05142A
:102B90004460C2614A68C263036270BD002C014098
:102BA000036A30B523F480530362036A4468C26940
:102BB0000D6822F4E64242EA05228D6823F40053B0
:102BC00043EA0533064DA84202BF4D6924F4804410
:102BD00044EA85144460C2614A680264036230BDFD
:102BE000002C0140704790F83C3070B5012B4FF03D
:102BF00002031CD0012280F83D30036880F83C209D
:102C00009A6822F47F4222F077029A600A68402A8A
:102C100079D019D8102A00F093800AD8002A00F041
:102C20008980012380F83D30002380F83C3018462D
:102C300070BD202A00F08A80302AF2D19A6822F0F2
:102C4000700242F0370236E0702A36D01BD8502A84
:102C500042D0602AE5D11C6A4D6824F01004CE6889
:102C60001C6299691A6A21F4704122F0A00242EABA
:102C7000051241EA063199611A629A6822F07002DF
:102C800042F0670217E0B2F5805F11D0B2F5005F45
:102C9000C7D18A684D689C68C9682A4324F47F4478
:102CA00042EA012222439A609A6842F4804202E09A
:102CB0009A6822F007029A60B3E78A684D689C68B8
:102CC000C9682A4324F47F4442EA012222439A60DD
:102CD0009A6842F07702EEE74C68CE68196A1D6A7E
:102CE00021F00A0125F001051D629A69214322F0B5
:102CF000F00242EA06129A6119629A6822F07002A2
:102D000042F05702D7E74C68CE68196A1D6A21F075
:102D10000A0125F001051D629A69214322F0F002A3
:102D200042EA06129A6119629A6822F0700242F031
:102D30004702C0E79A6822F0700242F00702BAE741
:102D40009A6822F0700242F01702B4E79A6822F003
:102D5000700242F02702AEE7704770477047704735
:102D60007047036810B51A69044691070ED5DA68F2
:102D700092070BD56FF002021A6101229B6902775C
:102D80009B0777D0FFF7EAFF0023237723681A69B0
:102D9000500710D5DA6851070DD56FF004021A619B
:102DA00002229B69227713F4407F204668D0FFF708
:102DB000D5FF0023237723681A6912070FD5DA6835
:102DC00010070CD56FF008021A610422DB69227724
:102DD000990720465AD0FFF7C1FF002323772368C5
:102DE0001A69D20610D5DA68D0060DD56FF0100238
:102DF0001A610822DB69227713F4407F20464BD00A
:102E0000FFF7ACFF0023237723681A69D10708D5A1
:102E1000DA68D20705D56FF0010220461A61FFF784
:102E20009BFF23681A69100608D5DA68110605D5D4
:102E30006FF0800220461A6100F07DF923681A695C
:102E4000520608D5DA68500605D56FF040022046D4
:102E50001A61FFF785FF23681A69910622D5DA689F
:102E600092061FD56FF020022046BDE810401A617F
:102E700000F060B9FFF771FF2046FFF770FF83E7AE
:102E8000FFF76BFF2046FFF76AFF92E7FFF765FF4A
:102E90002046FFF764FFA0E7FFF75FFF2046FFF73C
:102EA0005EFFAFE710BD00001E4A036890420ED0DF
:102EB000B0F1804F0BD0A2F59432904207D002F5CA
:102EC0008062904203D002F58062904219D14A6834
:102ED00023F070031343134A90420ED0B0F1804F99
:102EE0000BD0A2F59432904207D002F58062904256
:102EF00003D002F58062904203D1CA6823F4407384
:102F000013434A6923F08003134303608B68C36251
:102F10000B688362034B984204BF0B690363012370
:102F200043617047002C014010B50446A0B190F8F1
:102F30003D3003F0FF021BB980F83C2002F01AFF7D
:102F40000223206884F83D30211DFFF7ADFF0123E7
:102F5000002084F83D3010BD012010BD10B504469E
:102F6000A0B190F83D3003F0FF021BB980F83C207F
:102F7000FFF738FE0223206884F83D30211DFFF75B
:102F800093FF0123002084F83D3010BD012010BDC7
:102F9000036A70B523F010030362036A4468826910
:102FA0000D6822F4E64242EA05228D6823F02003F0
:102FB00043EA05130B4DA8420DD1CD6823F08003E1
:102FC00043EA05138E694D6924F44064354323F0C8
:102FD000400344EA8504446082614A688263036274
:102FE00070BD00BF002C014038B590F83C3004465D
:102FF000012B4FF0020025D0012384F83D0084F816
:103000003C300C2A18D8DFE802F0071717171E17F4
:1030100017172F17171740002068FFF76FFD236859
:1030200009699A6942F008029A619A6922F00402D9
:103030009A619A690A439A610123002084F83D301D
:1030400084F83C0038BD2068FFF7A2FF23680969B7
:103050009A6942F400629A619A6922F480629A61E4
:103060009A6942EA0122E6E72068FFF76FFD2368CC
:103070000969DA6942F00802DA61DA6922F00402C9
:10308000DA61DA690A43DA61D6E72068FFF788FD7A
:1030900023680969DA6942F40062DA61DA6922F4C4
:1030A0008062DA61DA6942EA0122ECE710B50124B4
:1030B000036A8C4023EA04030362036A8A401A43CA
:1030C000026210BD10B5044601220068FFF7EEFF52
:1030D0002368064A0020934202BF5A6C42F4004221
:1030E0005A641A6842F001021A6010BD002C0140B7
:1030F00090F83C3010B5012B4FF0020318D080F847
:103100003D3003680C685A68496822F070025A60C2
:103110005A6822435A609A6822F080029A609A683C
:103120000A439A60012380F83D30002380F83C3048
:10313000184610BD704770470368DA6822F4907231
:10314000DA605A6922F001025A61202380F83A308D
:10315000704700002DE9F0470568C2682B690169D6
:1031600023F4405313432B618368EA680B4341699E
:1031700022F4B05222F00C020B431343EB606B6954
:10318000826923F4407313436B61404B81469D4237
:103190004FF0190446D1FFF7E3FB04FB00F3D9F825
:1031A00004604FF06408B600B3FBF6F3B3FBF8F32A
:1031B0001E01FFF7D5FB6043D9F804309B00B0FB3C
:1031C000F3F7FFF7CDFB6043D9F804309B00B0FB69
:1031D000F3F3B3FBF8F308FB13731B013233B3FBB8
:1031E000F8F303F0F007FFF7BBFB6043D9F80420C6
:1031F0009200B0FBF2FAFFF7B3FB6043D9F804305A
:103200009B00B0FBF3F3B3FBF8F308FB13A31B0124
:103210003233B3FBF8F303F00F033B433344AB60AB
:10322000BDE8F087FFF78CFB04FB00F3D9F80460DE
:103230004FF06408B600B3FBF6F3B3FBF8F31E01DE
:10324000FFF77EFB6043D9F804309B00B0FBF3F737
:10325000FFF776FB6043D9F804309B00B0FBF3F333
:10326000B3FBF8F308FB13731B013233B3FBF8F322
:1032700003F0F007FFF764FB6043D9F804209200E5
:10328000B0FBF2FAFFF75CFBB7E700BF0038014084
:10329000F8B504460E4617461D4621680B6836EA07
:1032A000030301D10020F8BD6B1CF7D095B923684A
:1032B0000320DA6822F4D072DA605A6922F001023F
:1032C0005A61202384F8393084F83A30002384F896
:1032D0003830F8BDFEF79EF8C01B8542DDD2E6E728
:1032E00010B5044640B390F8393003F0FF021BB923
:1032F00080F8382002F096FD2423226884F83930C3
:10330000D368204623F40053D360FFF723FF2368DC
:1033100000201A6922F490421A615A6922F02A02A6
:103320005A61DA6842F40052DA602023E06384F8DC
:10333000393084F83A3010BD012010BD2DE9F0413C
:103340001F4690F839300446202B0D4690464ED14A
:10335000002949D0002A47D090F83830012B46D0B8
:10336000012380F838300023C363212380F83930EB
:10337000FEF750F80646A4F82480A4F82680E38CD3
:103380009BB26BB93B46324640212046FFF780FF97
:10339000A8B9202384F8380084F83930BDE8F081DA
:1033A000E38C3246013B9BB2E384A3688021B3F5F2
:1033B000805F20463B460ED1FFF76AFF10B1032025
:1033C000BDE8F0812B882268C3F3080353602369AA
:1033D00043B90235D3E7FFF75BFF0028EFD123683D
:1033E0002A785A600135CAE70120BDE8F081022041
:1033F000BDE8F08190F83A30202B20D1E9B1E2B15C
:1034000090F83830012B1AD0C28582850023222201
:10341000C36380F83A2002688162D16880F838304E
:1034200041F48071D1605169184641F00101516148
:10343000D16841F02001D16070470120704702201F
:103440007047000038B50446134694F83920202A06
:103450002AD139B333B394F83820012A24D0012279
:10346000002584F838202122E384206BE56384F86A
:1034700039200E4AA384216282620D4A4563C262EA
:103480000C4A026322680432FEF7C0FB6FF0400270
:10349000236828461A605A6984F8385042F080023E
:1034A0005A6138BD012038BD022038BDBB34000848
:1034B000E934000871350008704708B50368426AAE
:1034C0001B6813F020030AD1D38413685A6922F0D1
:1034D00080025A61DA6842F04002DA6008BD1046A4
:1034E000FFF7EAFF08BD704708B5406AFFF7FBFF2A
:1034F00008BD90F83A3010B5222B36D183680169A7
:10350000B3F5805F0268836A23D15268E9B9C2F3D8
:10351000080223F8022B8362C48D013CA4B2C48547
:103520008CB90368DA6822F02002DA60DA6822F4E3
:103530008072DA605A6922F001025A61202380F811
:103540003A3002F069F9002010BDD2B223F8012B05
:10355000E1E721B9591C526881621A70DCE75268B0
:10356000591C816202F07F02F7E7022010BD70470C
:10357000416A08B50B685A6991F8390021280AD1C7
:10358000120608D50022CA84DA6822F0C002DA6086
:10359000202281F839205B6991F83A20222A06D14D
:1035A0005B0604D500230846CB85FFF7C5FDCB6B32
:1035B000084643F01003CB63FFF7D9FF08BD0000B6
:1035C000036870B51A6804461607D9685D6907D1A3
:1035D00096065AD58D0658D5BDE87040FFF789BFCD
:1035E00015F0010502D111F4907F4ED0D30705D517
:1035F000CE0542BFE36B43F00103E363500704D5FC
:103600001DB1E36B43F00203E363930704D51DB1DF
:10361000E36B43F00403E363160704D51DB1E36BCA
:1036200043F00803E363E36B002B66D0950604D5F3
:10363000880602D52046FFF75CFF236820465D69B7
:10364000E26B110702D415F040051AD0FFF774FDA4
:1036500023685A69520610D55A69606B22F04002FD
:103660005A6150B1254B4363FEF70EFB002844D04E
:10367000606BBDE87040436B18472046FFF777FF4B
:1036800070BDFFF774FFE56370BD160627D50D0604
:1036900025D594F83920212A2FD1A268B2F5805F70
:1036A000226A17D11188C1F308015960216979B9DB
:1036B00002322262E28C013A92B2E284EAB9DA681A
:1036C00022F08002DA60DA6842F04002DA6070BD0F
:1036D0000132EEE7511C216212785A60EAE7500687
:1036E0000BD54A0609D5DA68204622F04002DA6096
:1036F000202384F83930FFF7DFFE70BD0137000862
:1037000008B50023406AC385C384FFF730FF08BDB6
:1037100008B500F079FE002008BD08B501F00CF9ED
:10372000012803D0BDE8084000F0ECB808BD00F166
:10373000080343604FF0FF32C360036100238260DF
:103740000360704700230361704743689A684B60C9
:103750008A609A6851609960036808610133036068
:1037600070470A6830B5531C0AD103695A684A6029
:1037700091608B605960036808610133036030BD5C
:1037800000F108035C682568AA42EFD32346F9E7F5
:103790004168826803698A6082685160596888421A
:1037A00008BF5A600022026118680138186070472B
:1037B0000A4B1B68013308D04FF0500383F3118884
:1037C000BFF36F8FBFF34F8FFEE74FF0500383F3CC
:1037D0001188BFF36F8FBFF34F8FFEE70800002003
:1037E00006480068006880F3088862B661B6BFF3D7
:1037F0004F8FBFF36F8F00DF00BF000008ED00E0C8
:103800004FF0807340F8043C054B21F0010140F873
:10381000081C40F80C3C40F8202C4038704700BF92
:10382000B1370008000000000000000000000000A8
:10383000074B19680868B0E8F00F80F30988BFF3F8
:103840006F8F4FF0000080F311884EF00D0E70471F
:10385000845000204FF0500383F31188BFF36F8F23
:10386000BFF34F8F0A4A13680133012B13600DD148
:10387000084B1B6813F0FF0F08D04FF0500383F381
:103880001188BFF36F8FBFF34F8FFEE7704700BF04
:103890000800002004ED00E0084A136843B94FF027
:1038A000500383F31188BFF36F8FBFF34F8FFEE791
:1038B000013B13600BB983F31188704708000020A7
:1038C000EFF30980BFF36F8F0D4B1A6820E9F00FFB
:1038D00010602DE908404FF0500080F3118800F08F
:1038E00045FF4FF0000080F31188BDE808401968DB
:1038F0000868B0E8F00F80F30988BFF36F8F704756
:103900008450002008B54FF0500383F31188BFF3B3
:103910006F8FBFF34F8F00F0C1FD18B14FF0805291
:10392000024B1A60002383F3118808BD04ED00E008
:103930004FF47A72054B1B68B3FBF2F3044A013B68
:1039400013600722034B1A60704700BF500000202D
:1039500014E000E010E000E013B51F4B00211A78DE
:10396000D2B20192FF221A701B781C4ADBB28DF88A
:1039700003309DF8033003F0500313700722184BF7
:103980001A609DF80300541E00061CD401B11A6091
:103990001A68120202F4E0621A60019B0E4ADBB25E
:1039A0001370104B1A6842F470021A601A6842F0E1
:1039B00070421A60FFF7BCFF00220B4B1A60FFF742
:1039C0000FFFFFF7F5FE9DF8032001215200D2B250
:1039D0008DF803202246D4E700E400E044020020F2
:1039E0004802002020ED00E008000020EFF30583EE
:1039F0000F2B0ED9104A9B5C104A12789A4208D9B4
:103A00004FF0500383F31188BFF36F8FBFF34F8FD5
:103A1000FEE70B4B0B4A1B68126803F4E06393420A
:103A200008D94FF0500383F31188BFF36F8FBFF3B2
:103A30004F8FFEE7704700BFF0E300E04402002034
:103A40000CED00E04802002010B50F4B1A688242CE
:103A500018D35C681919884201BF416818460919D2
:103A60005960446801198A4207D1084909688A42A5
:103A70001FBF51681268091941609842026018BF5F
:103A8000186010BD1346E1E77C5000204C02002076
:103A90002DE9F041044600F0F3FC3D493D4D0B6833
:103AA000FBB93D4A002056070FBF44F6206307329A
:103AB0003A4B22F0070218BF9B1A1344384E083BBA
:103AC00023F0070370603260586018600B60981A2A
:103AD0001360344B50601860334B18604FF0004354
:103AE0002B602F68274216D1002C40D004F1080328
:103AF00058071CBF23F00703083363B12A4A16682E
:103B00009046B34207D8264A15686868834204D8AD
:103B100009688D4207D1002429E02C68002CF7D0D9
:103B20002A462546F1E7296814681160C21A102A4E
:103B30000FD9E818410708D04FF0500383F31188DC
:103B4000BFF36F8FBFF34F8FFEE742606B60FFF7ED
:103B50007BFF6B681349F61A1F4300230868C8F8F7
:103B60000060864238BF0E6008346F602B6000F042
:103B700027FD630708D04FF0500383F31188BFF38C
:103B80006F8FBFF34F8FFEE72046BDE8F08100BF87
:103B90004C02002070500020500200207050002085
:103BA0007C500020785000207450002010B504464E
:103BB00070B3184A50F8043C1268134208D14FF011
:103BC000500383F31188BFF36F8FBFF34F8FFEE76E
:103BD00050F8081C41B14FF0500383F31188BFF334
:103BE0006F8FBFF34F8FFEE723EA020340F8043CD8
:103BF00000F046FC084A54F8043C1168A4F108009F
:103C00000B441360FFF720FFBDE8104000F0D8BC64
:103C100010BD00BF7050002074500020014B186888
:103C2000704700BF7450002070B51546026C044602
:103C3000866B42B905689DB9406800F0D5FE6560A5
:103C40000136A66370BD6DB9806802F0DDF9A36826
:103C5000226C13446268A360934201D32368A3607B
:103C60000020EDE7C06802F0CFF9236CE2685B4208
:103C700021681A448A42E2603EBF62689B18E36092
:103C8000022DEDD10EB1013EEAE73046D8E70346FA
:103C90001A6C10B4084662B1D9685C681144A1423C
:103CA000D96028BF196810BC28BFD960D96802F054
:103CB000ABB910BC704770B50446FFF7CBFD94F864
:103CC000455004F124066DB2002D14DCFF2384F866
:103CD0004530FFF7E1FDFFF7BDFD94F8445004F1D6
:103CE00010066DB2002D12DCFF2384F84430BDE8CD
:103CF0007040FFF7D1BD636A002BE7D0304600F07B
:103D000089FD08B100F012FE013D6DB2DCE72369C8
:103D1000002BE9D0304600F07DFD08B100F006FE32
:103D2000013D6DB2DEE7000038B50D46044640B9EE
:103D30004FF0500383F31188BFF36F8FBFF34F8FA2
:103D4000FEE7FFF787FD206CE36B22684343D11841
:103D50001B1A13446160E3600021FF23A163A2608A
:103D600084F8443084F8453095B9236963B104F18F
:103D7000100000F04FFD38B14FF08052094B1A602F
:103D8000BFF34F8FBFF36F8FFFF786FD012038BD64
:103D900004F11000FFF7CBFC04F12400FFF7C7FC8F
:103DA000F2E700BF04ED00E070B50D46064640B9ED
:103DB0004FF0500383F31188BFF36F8FBFF34F8F22
:103DC000FEE748434830FFF763FE044638B145B983
:103DD0002060E663256401212046FFF7A5FF204609
:103DE00070BD00F148030360F3E700002DE9FF47D1
:103DF000894601921F46044640B94FF0500383F3B1
:103E00001188BFF36F8FBFF34F8FFEE7002940F09B
:103E10008880036C002B00F084804FF0500383F304
:103E20001188BFF36F8FBFF34F8FFEE7019E002E07
:103E300000F082804FF0500383F31188BFF36F8F3F
:103E4000BFF34F8FFEE7019D1DB9FFF725FD002051
:103E500058E016B902A800F01FFDFFF71DFD00F0A5
:103E60000FFBFFF7F7FC94F84430FF2B08BF84F8F2
:103E7000448094F84530FF2B08BF84F84580FFF755
:103E80000BFD01A902A800F017FD002843D1FFF7A0
:103E9000E1FCA66BE56BFFF7FFFCAE4235D1019963
:103EA00004F1100000F09CFC2046FFF704FF00F036
:103EB00087FB38B94FF08053CAF80030BFF34F8FFB
:103EC000BFF36F8F0126FFF7C5FCA26BE36B9A422D
:103ED00001D3022FB7D13A4649462046FFF7A4FE48
:103EE000636A1BB104F1240000F094FC38B14FF078
:103EF0008052184B1A60BFF34F8FBFF36F8FFFF7DD
:103F0000CBFC012004B0BDE8F0872046FFF7D3FECC
:103F100000F056FBD6E72046FFF7CDFE00F050FB41
:103F200095E7022F02D1E36B012B0AD100F004FDCB
:103F300000283FF47BAF00264FF00008DFF814A004
:103F4000C1E74FF0500383F31188BFF36F8FBFF3C6
:103F50004F8FFEE704ED00E02DE9F84388469146D7
:103F60001F46044640B94FF0500383F31188BFF356
:103F70006F8FBFF34F8FFEE709BB036CFBB14FF0B0
:103F8000500383F31188BFF36F8FBFF34F8FFEE7AA
:103F900004F1240000F03EFC002834D0B9F1000FF9
:103FA00031D00120C9F8000086F31188BDE8F883FC
:103FB00001356DB284F8455025E00020F4E7022F6A
:103FC00002D1E36B012B20D1FFF710FDEFF3118637
:103FD0004FF0500383F31188BFF36F8FBFF34F8F00
:103FE000A26BE36B9A4201D3022FE6D194F84550BD
:103FF0003A466DB241462046FFF716FE6B1CD7D1FC
:10400000636A002BC4D10120CEE74FF0500383F345
:104010001188BFF36F8FBFF34F8FFEE72DE9FF4786
:10402000884601929946044640B94FF0500383F305
:104030001188BFF36F8FBFF34F8FFEE7002940F069
:10404000A580036C002B00F0A1804FF0500383F398
:104050001188BFF36F8FBFF34F8FFEE7019E002ED5
:1040600000F09A804FF0500383F31188BFF36F8FF5
:10407000BFF34F8FFEE7636AE660002B6DD004F15B
:1040800024005FE0019D1DB9FFF706FC284667E0AC
:1040900016B902A800F000FCFFF7FEFB00F0F0F9F3
:1040A000FFF7D8FB94F84430FF2B08BF84F8447026
:1040B00094F84530FF2B08BF84F84570FFF7ECFB00
:1040C00001A902A800F0F8FB002852D1FFF7C2FBBB
:1040D000A56BFFF7E1FB002D45D1236833B9FFF74E
:1040E000B9FB606800F038FCFFF7D6FB019904F1DA
:1040F000240000F075FB2046FFF7DDFD00F060FABC
:1041000038B94FF08053CAF80030BFF34F8FBFF378
:104110006F8F0126FFF79EFBA56B002DB2D04146A5
:104120002046E668FFF7B3FDB9F1000FA3D123687D
:10413000013DA56313B900F0A7FC6060236963B17A
:1041400004F1100000F066FB38B14FF08052144BC0
:104150001A60BFF34F8FBFF36F8FFFF79DFB0120F6
:1041600004B0BDE8F0872046FFF7A5FD00F028FA6F
:10417000CFE72046FFF79FFD00F022FAFFF76AFB2A
:10418000A56BFFF789FB002DC3D17FE700F0D4FBBF
:1041900000283FF463AF00260027DFF804A0B9E74A
:1041A00004ED00E0064A13681968064B19B94FF090
:1041B000FF321A6070471268D268D2685268F8E716
:1041C0008850002060510020F8B51B4B1B4E1D6825
:1041D000044630680F460430FFF7DAFA334640B938
:1041E00001203168164EC96A3268884022EA00020E
:1041F0003260621C07D137B1196812480431BDE83A
:10420000F840FFF7A2BA2C441A68A542546007D9B7
:104210000D4A10681968BDE8F8400431FFF7A1BAEB
:104220000A4A106819680431FFF79BFA084B1A68AC
:10423000944238BF1C60F8BDA85100208450002073
:1042400030510020805100208C50002088500020E8
:10425000605100204FF0500383F31188BFF36F8F3C
:10426000BFF34F8FFEE700002DE9F84F4FEA820AB7
:10427000804650460F4699460B9EFFF709FC0546BF
:10428000002800F096805420FFF702FC0446002826
:1042900000F08C80AAF1040A056355447B1E25F0CA
:1042A000070A00F134020F37597802F8011B13F89E
:1042B000011F09B1BB42F7D10A9D4FF0000B062D3B
:1042C00028BF0625271DE5626564384684F843B09B
:1042D000C4F848B0FFF736FAC5F1070504F1180035
:1042E000FFF730FAC4F84CB02461A561646284F829
:1042F00050B04A4641465046FFF782FA206006B168
:104300003460FFF7A7FA324B324E1A68DFF8F080BC
:1043100001321A603568002D4ED134601B68012BC4
:104320001DD108EB05001435FFF701FA8C2DF8D1EB
:10433000DFF8D090284D4846FFF7F9F92846FFF7F7
:10434000F6F92648FFF7F3F92548FFF7F0F9254875
:10435000FFF7EDF9244BC3F80090244B1D600125B5
:10436000234A24491368086801331360E26A05FA96
:1043700002F3034314200B6000FB02803946FFF771
:10438000E4F9FFF789FA1C4B1B6863B13368DA6AFA
:10439000E36A9A4207D24FF08052184B1A60BFF37B
:1043A0004F8FBFF36F8F2846BDE8F88F2846FFF781
:1043B000FDFB4FF0FF35F6E70F4B1B68002BCED10E
:1043C0003368DA6AE36A9A4298BF3460C7E700BF8D
:1043D0001C510020845000204851002068510020CA
:1043E0009451002080510020885000208C500020E3
:1043F0002C510020305100207C51002004ED00E0C1
:10440000905000203451002013B50024164B009426
:1044100001938022234615491548FFF725FF0128FF
:1044200014D14FF0500383F31188BFF36F8FBFF3A4
:104430004F8F4FF0FF320F4B1A600F4B18600F4B2E
:104440001C6002B0BDE81040FFF786BA013008D109
:104450004FF0500383F31188BFF36F8FBFF34F8F7B
:10446000FEE702B010BD00BF5C510020048B0008C5
:10447000F9460008605100207C510020A85100201E
:10448000024A136801331360704700BF28510020AF
:10449000014B1868704700BFA85100202DE9F84F64
:1044A0003C4B1B68002B53D13B4B1C6801341C60F8
:1044B000BCB93A4B1A68126842B14FF0500383F30B
:1044C0001188BFF36F8FBFF34F8FFEE7344A19682F
:1044D000106818601160334A136801331360FFF7E6
:1044E00061FE314D4FF0000B2B68304F9C423ED3A4
:1044F000DFF8A880DFF8C490D8F80020126872BBFB
:104500004FF0FF322A6032E006F1040A5046FFF70E
:104510003FF9B16A19B106F11800FFF739F9012224
:104520004FF0140EF06AD9F8003002FA00F1194386
:104530001F4BC9F800100EFB00305146FFF705F97C
:104540003868F16AC26A914228BF4FF0010BD3E785
:10455000184A4FF0000B13680133136011E0D8F8CC
:104560000020D268D66871688C42CDD229603A6842
:104570000F4BD16A14224A439A58022A28BF4FF09F
:10458000010B0D4A1268002A18BF4FF0010B584664
:10459000BDE8F88F28510020A85100208850002045
:1045A0008C50002064510020605100208450002075
:1045B0009050002024510020AC51002030510020A8
:1045C0002DE9F843314C236843B94FF0500383F38E
:1045D0001188BFF36F8FBFF34F8FFEE7FFF73AF9F4
:1045E0002368013B236024682CB10024FFF754F9B1
:1045F0002046BDE8F883264B1B68002BF5D0DFF87A
:10460000A890244FDFF8A480D9F80030E3B90CB1AA
:10461000FFF7C8FD204D2C6844B101271F4EFFF75E
:104620003DFF00B13760013CF9D12C601B4B1B688A
:10463000002BDAD04FF08052194B1A60BFF34F8F26
:10464000BFF36F8F0124D1E7D9F80C300125DC6866
:10465000261D04F11800FFF79BF83046FFF798F885
:104660001420E26A396805FA02F30B4300FB02806A
:1046700031463B60FFF769F80A4BE26A1B68DB6A68
:104680009A4224BF054B1D60BEE700BF28510020A1
:104690001C5100203051002024510020AC5100203A
:1046A00004ED00E08450002068510020905000206C
:1046B00008B540B94FF080520D4B1A60BFF34F8FD1
:1046C000BFF36F8F08BD0B4B196841B14FF050031A
:1046D00083F31188BFF36F8FBFF34F8FFEE7FFF7B0
:1046E000CFFEFFF771FDFFF76BFF0028E2D008BD9A
:1046F00004ED00E02851002008B5174E174C236840
:1047000063B9174B1B68012BF8D94FF08052154B3A
:104710001A60BFF34F8FBFF36F8FEFE7FFF7B0FE65
:104720003568FFF74DFF002DE9D0FFF793F8F368E8
:10473000DD68281DFFF72CF80B4A1368013B136056
:104740002368013B2360FFF7A7F8286BFFF72EFAD9
:104750002846FFF72BFAD2E7945100202051002081
:104760009050002004ED00E01C510020174B10B5C4
:104770001A68174B12B101221A6010BD1A60154B4E
:104780001B68B3FA83F31422DBB2C3F11F035A434D
:1047900011498C58881844B94FF0500383F311889D
:1047A000BFF36F8FBFF34F8FFEE744680832646832
:1047B0000A44944208BF6268446008BF4260142201
:1047C00002FB03135B68DA68044BD5E7285100202D
:1047D000AC51002030510020905000208450002027
:1047E00010B50C4640B94FF0500383F31188BFF366
:1047F0006F8FBFF34F8FFEE7054B19681831FEF737
:10480000B0FF2046BDE810400121FFF7DDBC00BF2E
:104810008450002038B5C368DC6844B94FF05003B9
:1048200083F31188BFF36F8FBFF34F8FFEE704F15F
:1048300018052846FEF7ACFF114B1B68E3B9251D90
:104840002846FEF7A5FF01230E49E26A0868934057
:10485000034314200B6029460B4B00FB0230FEF78C
:1048600074FF0A4BE26A1B68DB6A9A4285BF01202B
:10487000074B0020186038BD29460648EFE700BF07
:1048800028510020305100209050002084500020FA
:10489000AC5100206851002008B508B9FFF7DAFCD8
:1048A000034B1B680360034B1B68436008BD00BFDC
:1048B00064510020A851002038B50D46044640B987
:1048C0004FF0500383F31188BFF36F8FBFF34F8F07
:1048D000FEE741B94FF0500383F31188BFF36F8FA8
:1048E000BFF34F8FFEE7FEF7B5FF0E4B19682B683D
:1048F0005A1C10D00C4A206812689042626801D09D
:1049000091420DD2881A83420AD95B1A13442B6054
:104910002046FFF7C1FF0024FEF7BEFF204638BD4A
:104920000124F9E7A8510020645100200122014B25
:104930001A607047AC510020054B1B6833B1054B22
:104940001B68002B0CBF022000207047012070471D
:104950007C510020285100202DE9F0410446002818
:1049600039D01E4DC36A2A68D26A934233D21427C3
:1049700082691B4E002AA8BF2A6807FB0363A2BFF7
:10498000D26AC2F10702826142699A4220D100F1E3
:1049900004084046FEF7FCFE124A48B9E06A474365
:1049A000F3592BB901211368814023EA01031360F5
:1049B0002B681168D86A012383400B4313601423CA
:1049C000E062414603FB0060BDE8F041FEF7BDBE7A
:1049D0002B68DB6AC362BDE8F08100BF8450002011
:1049E0009050002030510020F8B5044608B900204E
:1049F000F8BD224B1B68984208D04FF0500383F358
:104A00001188BFF36F8FBFF34F8FFEE7836C43B9FD
:104A10004FF0500383F31188BFF36F8FBFF34F8FB5
:104A2000FEE7C16A426C013B91428364DFD0002BF8
:104A3000DDD1051D2846FEF7ABFE114E114A50B9D7
:104A40001421E76A794373582BB901201368B840E1
:104A500023EA00031360636CC3F10701E362A16101
:104A60000124116804FA03F0084310601420294659
:104A700000FB0360FEF769FE2046F8BD845000206D
:104A80009050002030510020044B1A681AB1196868
:104A90008A6C01328A641868704700BF8450002015
:104AA000F0B58BB06C4606460F4D0F460FCD0FC4C8
:104AB0000FCD0FC495E8030084E8030006F112034C
:104AC00033F8022D9E425A80FAD1002318463780CF
:104AD00036F813205DF8231001330A2B01FB020086
:104AE000F6D1000C0BB0F0BDD08A000880B594B0B0
:104AF00014220021684601F092FA142201230021B9
:104B00000DEB0200ADF8003001F089FA0223142207
:104B100000210AA8ADF8143001F081FA0323142211
:104B200000210FA8564EADF8283001F078FA042382
:104B3000B046544CADF83C303388322B6DD900224E
:104B40004FF400712046FDF7F5FB0022802120463E
:104B5000FDF7F0FB002220212046FDF7EBFB0022B1
:104B600008212046FDF7E6FB00224FF48071204625
:104B7000FDF7E0FB002240212046FDF7DBFB002291
:104B800010212046FDF7D6FB002204213E48FDF708
:104B9000D1FB3E4A1378022B37D001231370002338
:104BA000A8F800303A4B3B4D1A883B482A805A8877
:104BB0003A4F6A809A88DB88AA80EB80FCF728FE4F
:104BC00029886846FFF76CFF6988388005A8FFF7D9
:104BD00067FFA98878800AA8FFF762FFE988B88094
:104BE0000FA8FFF75DFF2E4BF8801B782D4D012B92
:104BF00016D12B7000232C481A4619460068FFF77F
:104C0000F5F83220FFF754FD96E7338801339BB265
:104C1000B3F5167F3380C0D8C4E701333380C1E7D2
:104C20002B78012BEDD100224FF400712046FDF7C7
:104C300081FB002280212046FDF77CFB0022202101
:104C40002046FDF777FB002208212046FDF772FB86
:104C500000224FF480712046FDF76CFB00224021BA
:104C60002046FDF767FB002210212046FDF762FB7E
:104C7000002204210448FDF75DFB00232B70C0E7F0
:104C8000B0510020000C0140001401400C00002035
:104C900084530020865400201454002030520020F9
:104CA000C2520020B2510020CC5300202DE9F04F19
:104CB00091B0102200210CA801F0B1F900238F4C13
:104CC0004FF0FF3219462068FFF7A8F90794002338
:104CD00007984FF0FF3219460068FFF79FF9012847
:104CE000F5D1874B1D78012DF1D10027854C8649E0
:104CF0008648277001F04CFE0F22854E4FF6FF7359
:104D0000824984483270B346FEF718FB4FF0FF0A21
:104D10003B46384694F800E07F49DFF80CC2DFF8E4
:104D200004823CF8137038F813900AAA22F8137022
:104D3000A9EB070212B2002AB8BF524212B2282AC7
:104D400018DD01204F4528BF0022864634BF0D7074
:104D50000A700133042B01F10101E2D108B184F89A
:104D600000E023786D4A43B913700C930D930E93B2
:104D70000F93ACE781F800A0EBE701236849634893
:104D8000137001F005FE0F224FF6FF735F49614873
:104D900032700025FEF7D2FADFF8AC815B4FDFF806
:104DA0007491604BAC0033F815005F4B33F815304D
:104DB000C01A594B00B213F905A0BAF1010F66D120
:104DC000FBF794FFD8F80010FBF7E4FFFCF732F98B
:104DD00010AB1C4444F8100C54F8103C2A465349BC
:104DE000384601F085FD4FF6FF73C2B2394648469A
:104DF0008BF80020FEF7A2FA54F8103C002B01DAE1
:104E0000002304E054F8103C23B94FF47A7344F8BB
:104E1000103C05E047F2305354F8102C9A42F4DC71
:104E200010AB03EB85032A4653F8103C4049384643
:104E300001F05EFD0135C2B24FF6FF7339464846B8
:104E40008BF80020FEF77AFA042D08F10408A8D1A7
:104E50004FF4FA70FFF72CFC304B1C78002C75D106
:104E6000344D354B55F8240033F824100022FDF75B
:104E700061FA324B002233F82410314B53F82400EE
:104E80000134FDF757FA042CEBD100236DE7BAF19A
:104E9000000F2FD1FBF72AFFD8F81010FBF77AFF8D
:104EA000FCF7C8F810AB1C4444F8100C54F8103C44
:104EB0002A462449384601F01BFD4FF6FF73C2B263
:104EC000394648468BF80020FEF738FA54F8103C73
:104ED000002B02DA44F810ACA2E754F8103C13B9E6
:104EE0004FF4FA7393E747F2305354F8102C9A4278
:104EF00096DDF5E710AB1C4482E700BFCC530020E1
:104F000001520020C6520020098B000838520020B0
:104F1000B852002044540020C7520020C252002042
:104F2000198B0008BA52002030520020298B00084B
:104F3000438B0008200000201000002030000020DB
:104F400040000020358B00081052002000276E4CD6
:104F50006E4DBB0010AA1A4452F8102C002A09DD2D
:104F60006B4AD257012A40F0B0806A48E95A185873
:104F7000FDF7E0F90137042FEBD1FFF789FA074677
:104F8000DFF8848100246420FFF792FBFFF780FAAA
:104F90002546DFF87891A0EB070AA30010AA1A446F
:104FA00052F8101C8A4540F2988052F8103C0135A6
:104FB0000893FFF76DFAC01B0090089B22465649E4
:104FC000564801F095FC4FF6FF73C2B2534954485E
:104FD0008BF80020FEF7B2F9524B002233F8241070
:104FE00058F82400FDF7A6F94A4B002239F824109E
:104FF00053F82400FDF79EF9EDB20134042CCCD116
:10500000032DBFD9FFF744FA4749C21B434801F0BB
:105010006FFC4FF6FF73C2B2404941483270FEF751
:105020008DF94FF47A70FFF743FB00243F4DDFF812
:10503000EC80374B1F57002F3FDB630009933C4B3D
:10504000A60033F814A00AAB33F8149010AB9A19E9
:1050500052F8100CFBF74AFE0890AAEB090000B2C8
:10506000FBF744FE089A01461046FBF747FF012F65
:10507000099B45D145F8100C10AA16442D4A286802
:1050800056F8107C9E5AFBF7D5FF049055F8100C8B
:10509000FBF7D0FF334603902246274902978DE85D
:1050A0000006404601F024FC4FF6FF73C2B24146B1
:1050B0001B488BF80020FEF741F90134042C05F160
:1050C0000405B6D100F0F4F901E6002A7FF452AFEE
:1050D00014490122C95A18594AE70D4A1257012AA0
:1050E00006D10C4839F803101858FDF723F984E766
:1050F000002A82D10B490122C95A53F80800F4E76B
:10510000002FB9D12860B7E7200000203000002030
:10511000C7520020400000204C8B0008385200206D
:1051200044540020100000205E8B00082052002014
:1051300030520020BA520020758B000808B5134D7C
:10514000134C2B787BB942F21073A3634FF4FA70BF
:10515000FFF7AEFA00234FF4FA706363A363E363CF
:10516000FFF7A6FAEDE7012B03D142F21073636358
:10517000ECE7022B03D142F21073E363E6E7032B63
:10518000E4D142F21073A363F7E700BF0C000020E4
:105190000004004037B5744C00F0C4F92378734D17
:1051A000782B88BF0123284688BF2370FCF74AF973
:1051B00095E80C001344AA68207813446C4A1B0C31
:1051C000138000F021F900216A48FDF77BFF0421DC
:1051D0006848FDF777FF08216648FDF773FF012255
:1051E00065496648FEF706F96548FCF711FB03229E
:1051F00000210120FEF7D8FD624A106020B1002393
:105200001A461946FEF7F2FDFEF708FD5E49024612
:105210005E4801F06DFB5D48FBF70AF800240125AC
:1052200082B24FF6FF7359495448FEF787F8234678
:10523000C8225749019400955648FFF715F8FEF724
:10524000EDFC55490246514801F052FB4F48FAF730
:10525000EFFF4FF6FF7382B24C494848FEF76EF8F5
:105260002346C8224D49019400954D48FEF7FCFFA6
:10527000FEF7D4FC4B490246444801F039FB434851
:10528000FAF7D6FF4FF6FF7382B240493B48FEF76C
:1052900055F823464FF40072434901940095434862
:1052A000FEF7E2FFFEF7BAFC41490246374801F03B
:1052B0001FFB3648FAF7BCFF4FF6FF7382B2334943
:1052C0002E48FEF73BF803234FF400720093394950
:1052D000234601943848FEF7C7FFFEF79FFC374985
:1052E00002462A4801F004FB2848FAF7A1FF4FF6CE
:1052F000FF7382B225492148FEF720F823464FF478
:10530000C8722F49019400952E48FEF7ADFFFEF7B5
:1053100085FC2D4902461D4801F0EAFA1B48FAF7C0
:1053200087FF4FF6FF7382B218491448FEF706F85C
:10533000224640210220FEF737FD244B1860FEF77D
:105340006DFC23490246114801F0D2FA0F48FAF7E2
:105350006FFF4FF6FF7382B20C49084803B0BDE8F7
:105360003040FDF7EBBF00BF04520020B4510020D5
:10537000C45200208C530020945400204454002038
:1053800014540020CC5300208D8B0008385200208C
:105390009E8B00083D510008A48B0008BC8B0008C0
:1053A000315C0008C18B0008D88B0008ED4A00086A
:1053B000E18B0008FC8B0008C9580008048C000829
:1053C0001E8C0008AD4C0008248C0008905400206E
:1053D0003D8C000810B5084C02460849204601F0F3
:1053E00087FA074BC2B21A702146BDE810404FF44D
:1053F00000530448FDF7A2BFC0510020728C000882
:10540000005200204454002038B50546214C0022AB
:105410004FF400612048FCF78DFF3220FCF700F8C4
:105420004FF4005307221D492046FDF787FFC8208F
:10543000FBF7F6FF4FF40053072219492046FDF70A
:105440007DFFC820FBF7ECFF2A461649164801F0FD
:105450004FFA164BC2B21A7013494FF4005320464C
:10546000FDF76CFFC820FBF7DBFF01224FF4006162
:105470000948FCF75FFF3220FBF7D2FF4FF4964359
:1054800020466360FDF72CFF18B1BDE8384000F0FE
:1054900019BA38BD4454002000080140558C00085A
:1054A0005D8C0008688C0008C0510020005200206C
:1054B000F0B587B0FCF75AFD00230293134B01A906
:1054C0000493012302A80593FCF700FE10B11048D5
:1054D000FFF780FF0D4C0F4E0F4F104D04F1784336
:1054E000A3F5FE339A59214600230220FCF784FDE0
:1054F00010B13846FFF76EFF0434AC42EED1FCF732
:1055000047FD0748FFF766FF07B0F0BD00FC010844
:10551000908C000804520020A38C00082CFC010889
:10552000B68C00080A4810B5FFF754FF094B0A482B
:105530000A491C6803F178420433A2F5FE328B421B
:105540001450F6D10648BDE81040FFF743BF00BF36
:10555000758C000800FC0108045200202CFC010896
:10556000848C0008382230B59DB00DEB020000217C
:1055700000F055FD1422002101A800F050FD20226A
:10558000002106A800F04BFD4FF4803302240125D2
:10559000109317934FF4E0130EA818930E951395DC
:1055A0001694FCF7CDFE0F234FF480620193002385
:1055B000214601A80393049205930294FDF70EF986
:1055C0004FF4004306A808930694FDF7D9F9024B5F
:1055D0001D601DB030BD00BF7000424280B5002488
:1055E0004FF4807992B0824DFBF7F6FEFFF7BAFFD9
:1055F000102200210AA800F012FDAB69012243F03D
:105600002003AB61AB694FF4006103F02003019309
:10561000019BAB69774843F00403AB61AB6901269A
:1056200003F004030293029BAB69042743F00803D1
:10563000AB61AB694FF0030803F008030393039BCE
:10564000FCF778FE002204216B48FCF773FE002271
:105650004FF47E716948FCF76DFE0AA96548CDF8E4
:1056600028900B940C94FCF77FFD4FF400630AA97B
:1056700060480A930B960D960C94FCF775FD0AA9E9
:105680005D480B960A970C94CDF83480FCF76CFDBE
:105690004FF47E730AA959480A930B960C94CDF8DF
:1056A0003480FCF761FD6B69224633436B616B69A3
:1056B0000521334000930E20009BFCF711FA0E20C9
:1056C000FCF742FA202221460AA84D4D0694079481
:1056D000089400F0A4FC4B4B28462B604FF4602349
:1056E0002E61EB61C5F80890EC606C616C60FCF7B2
:1056F0000FF806A92846079606940894FBF72AFF98
:1057000007230C934FF4E0430AA9284611930B9604
:105710000A940E9710940F940D94FCF7E3F80A96F0
:1057200002260AA928460B96FCF7DCF80AA92846A7
:105730000A96CDF82C80FCF7D5F80AA92846CDF8B2
:1057400028800B97FCF7CEF81022214606A800F01F
:1057500066FC1C2221460AA82B4D0494059400F0F7
:105760005EFC2A4B284685E818004FF6FF73AC60B4
:10577000EB602C61AC61FDF7D7FB4FF4805306A9B9
:1057800028460693FDF72FFA2846FDF7E7FB04A904
:10579000284604940594FDF7ABFC602322460AA931
:1057A00028460A930B940C940E94FDF71DFC3A4680
:1057B0000AA92846FDF718FC0AA908222846FDF781
:1057C00013FC284600F0F4FA4FF416531048114A1F
:1057D000846080E80C000C23C46043610461846130
:1057E000C461FDF77DFDFFF7D5FCFDF791FFFEE7F6
:1057F000001002400008014000140140000C01406C
:1058000014540020002401408C5300200004004068
:1058100044540020003801400268164B13B59A42E8
:1058200025D1154B1A780D2A1CD0144C1449237815
:10583000CA540133DBB2402B08BF00230A2A23706D
:105840000ED122780E490F4800F0DEFB0E480023EF
:1058500001AA0C490068FEF77FFB0023237001E0DA
:10586000FF2AFAD0012204490848FDF7C3FD02B01F
:1058700010BD00BF00380140945400208E54002019
:105880000053002040530020905400204454002036
:1058900038B501210546FCF715F8094C0221208096
:1058A0002846FCF70FF8032160802846FCF70AF829
:1058B0000421A0802846FCF705F8E08038BD00BF31
:1058C00084530020704700002DE9F04F002597B069
:1058D0004022002106A8DFF850A3DFF8509300F023
:1058E0009EFBADF814508DF811508DF81250ADF8A4
:1058F00016508DF81350B24C00234FF0FF3206A91A
:105900002068FEF78BFB01280646F5D10024AD4B3D
:105910001C709DF81830732B00F08D80782B00F0F0
:10592000D3806D2BE7D1A84BA8491A7806A8022A84
:1059300018BF1C700DF11203009305AA0DF111039D
:1059400000F0FAFF9DF82230BDF814208DF81230D7
:105950009F4B1B889A42CED19E499F4AC8880B888C
:10596000928802908888019049889C4800919C49BF
:1059700000F0BEFF9B4BC2B298499B481A70FDF7DE
:1059800061FD9DF812209542B5D00021974B12F091
:105990000102197018BF01224FF400719448FCF7FE
:1059A000C9FC9DF81220802112F0020218BF0122CA
:1059B0008F48FCF7BFFC9DF81220202112F0040252
:1059C00018BF01228A48FCF7B5FC9DF81220082177
:1059D00012F0080218BF01228548FCF7ABFC9DF8C5
:1059E00012204FF4807112F0100218BF012280487B
:1059F000FCF7A0FC9DF81220402112F0200218BFF5
:105A000001227B48FCF796FC9DF81220102112F031
:105A1000400218BF01227648FCF78CFC9DF9123039
:105A20000421002BB4BF012200227248FCF782FC43
:105A30009DF812505FE79DF81930782B0ED105AA1A
:105A40006D4906A800F078FF614BBDF814201B8853
:105A50009A427FF450AF654B1C704CE72C2B7FF4BF
:105A60004AAF0DF113030393644B05AA9F1E0193E4
:105A7000CDF808A0043B0097614906A800F05CFF40
:105A8000534BBDF814201B889A427FF434AF9DF825
:105A900013302046312B14BF32462246594BDFF8D3
:105AA00034E159491A70023F37F814303EF8142097
:105AB0009A4294BF334603460B550134042CF3D16C
:105AC00001224A4B1A7016E7DFF8FC8098F8003084
:105AD000022B7FF410AF9DF819303F2B14D14B4AA5
