:020000040800F2
:100000000000012075330008D1320008D332000807
:10001000D5320008D7320008D932000800000000AD
:100020000000000000000000000000007123000834
:10003000DB3200080000000001240008DD32000867
:10004000B9330008B9330008B9330008B9330008E0
:10005000B9330008B9330008B9330008B9330008D0
:10006000B9330008B9330008B9330008B9330008C0
:10007000B9330008B9330008ED320008B93300087D
:10008000B9330008B9330008F9320008B933000861
:10009000B9330008B9330008B9330008B933000890
:1000A000B9330008B9330008B9330008B933000880
:1000B000B933000805330008B9330008B933000824
:1000C000B9330008B9330008B9330008B933000860
:1000D000B933000811330008B9330008B9330008F8
:1000E000B9330008B9330008B93300080000000034
:1000F0000000000000000000000000000000000000
:100100000000000000000000B9330008B933000807
:10011000B9330008B9330008B9330008B93300080F
:10012000B9330008B9330008B9330008B9330008FF
:10013000B93300080000000000000000B9330008D7
:10014000B9330008B9330008B9330008B9330008DF
:10015000000000000000000000000000000000009F
:10016000000000000000000000000000000000008F
:10017000000000000000000000000000000000007F
:10018000000000000000000000000000000000006F
:10019000000000000000000000000000000000005F
:1001A000000000000000000000000000000000004F
:1001B000000000000000000000000000000000003F
:1001C000000000000000000000000000000000002F
:1001D000000000000000000000000000000000001F
:0401E0005FF8E0F1F3
:1001F00010B5054C237833B9044B13B10448AFF361
:1002000000800123237010BD1000002000000000BA
:10021000CC33000808B5034B1BB103490348AFF3C7
:10022000008008BD0000000014000020CC3300084E
:1002300053B94AB9002908BF00281CBF4FF0FF314D
:100240004FF0FF3000F07AB9ADF1080C6DE904CE43
:1002500000F006F8DDF804E0DDE9022304B07047A1
:100260002DE9F0478C460E460446089D002B50D1E0
:100270008A4217466CD9B2FA82FEBEF1000F0BD04B
:10028000CEF1200C01FA0EF620FA0CFC02FA0EF761
:100290004CEA060C00FA0EF43A0CBCFBF2F9BBB2C5
:1002A00002FB19CC09FB03FA4FEA144848EA0C4652
:1002B000B2450AD9F61909F1FF3180F02581B2451E
:1002C00040F22281A9F102093E44A6EB0A06B6FBE0
:1002D000F2F002FB106600FB03F3A4B244EA06440A
:1002E000A34209D9E41900F1FF3280F00B81A34247
:1002F00040F2088102383C440021E41A40EA0940F7
:10030000002D62D0002324FA0EF42C606B60BDE84F
:10031000F0878B4207D9002D55D0002185E8410098
:100320000846BDE8F087B3FA83F1002940F08F80DA
:10033000B34202D3824200F2FC80841A66EB0306C9
:100340000120B446002D40D085E81010BDE8F087AC
:1003500012B90127B7FBF2F7B7FA87FEBEF1000F1B
:1003600035D10121F61B4FEA174C1FFA87F8B6FB6F
:10037000FCF20CFB126608FB02F0230C43EA064673
:10038000B04207D9F61902F1FF3302D2B04200F2AF
:10039000D2801A46361AB6FBFCF00CFB106608FB3E
:1003A00000F8A3B243EA0644A04507D9E41900F1D6
:1003B000FF3302D2A04500F2B9801846A4EB08042E
:1003C00040EA02409CE729462846BDE8F08707FA44
:1003D0000EF7CEF1200326FA03F24FEA174CB2FBD8
:1003E000FCF11FFA87F80CFB112206FA0EF620FA30
:1003F00003F301FB08F933431E0C46EA0246B145FC
:1004000000FA0EF409D9F61901F1FF3280F08C8060
:10041000B14540F2898002393E44A6EB0906B6FB9D
:10042000FCF00CFB106200FB08F99EB246EA0246A3
:10043000B14507D9F61900F1FF3371D2B1456FD933
:1004400002383E44A6EB090640EA01418FE7C1F1BC
:10045000200722FA07F88B4048EA030326FA07F43C
:100460004FEA134EB4FBFEF91FFA83FC0EFB19444E
:100470008E4020FA07F809FB0CFA48EA06084FEA12
:10048000184646EA0444A24502FA01F200FA01F6CF
:1004900008D9E41809F1FF3044D2A24542D9A9F1A4
:1004A00002091C44A4EB0A04B4FBFEF00EFB10444A
:1004B00000FB0CFC1FFA88F848EA0444A44507D95D
:1004C000E41800F1FF3E29D2A44527D902381C4484
:1004D00040EA0940A0FB0289A4EB0C0CCC45C246C3
:1004E000CE4615D312D055B1B6EB0A036CEB0E060F
:1004F00006FA07F7CB401F43CE402F606E60002105
:10050000BDE8F0871046F7E68946DEE64645EAD2C2
:10051000B8EB020A69EB030E0138E4E77046D7E74F
:1005200018468FE78146BDE7114676E702383C441E
:1005300044E7084606E7023A3E442BE7704700BF0F
:1005400038B50E4B054618784FF47A73B3FBF0F3C9
:100550000B4A1068B0FBF3F000F018FB044658B9E2
:100560000F2D09D8024629464FF0FF3000F0CEFA91
:10057000044B20461D6038BD012038BD000000201E
:100580000C00002004000020074A08B5136803206F
:1005900043F01003136000F0A7FA0F20FFF7D0FF1D
:1005A00002F084FD002008BD00200240034A044BF5
:1005B00011681B780B441360704700BF984F0020F0
:1005C00000000020014B1868704700BF984F0020C2
:1005D00070477047036810B55A680446900627D5DF
:1005E0001A68910724D5A26AD2065EBFA26A42F4B5
:1005F0000072A2629A6802F46022B2F5602F10D1F4
:10060000E26872B95A6822F020025A60A36A23F4A1
:100610008073A362A36ADB045EBFA36A43F0010395
:10062000A3622046FFF7D4FF6FF0120223681A601E
:1006300023685A68100630D51A6851072DD5A26A6A
:10064000D2065EBFA26A42F40052A2629A6802F425
:10065000E042B2F5E04F0AD05A68500516D49A68C5
:1006600002F46022B2F5602F10D1E26872B95A68C4
:1006700022F080025A60A36A23F48053A362A36A23
:10068000D9055EBFA36A43F00103A362204600F0D0
:100690003DF96FF00C0223681A6023685A6852060D
:1006A0000DD51B68DB070AD5A36A204643F48033C7
:1006B000A362FFF78EFF6FF0010223681A6010BD7E
:1006C000002373B5019390F82430012B74D00123DB
:1006D0004D6880F82430062D02684FEA85030C68C7
:1006E00025D82B441F25566B053B9D4026EA050562
:1006F00004FA03F32B435363092C4FEA44038D6838
:100700002FD907262344D1681E3B9E4021EA0601CB
:1007100005FA03F30B43D360A4F11003012B2BD98B
:100720000023002280F82420184602B070BD0C2D52
:100730000BD82B441F25166B233B9D4026EA05054D
:1007400004FA03F32B431363D6E72B441F25D66A21
:10075000413B9D4026EA050504FA03F32B43D3628F
:10076000CAE70726116923449E4021EA060105FADB
:1007700003F30B431361CFE7104B9A4216D19368F2
:100780001B02CDD49368102C43F400039360C7D1AF
:100790000B4B0C4A1B68B3FBF2F20A235343019341
:1007A000019B002BBCD0019B013BF8E7836A43F01F
:1007B000200383620123B4E70223B5E7002401404C
:1007C0000C00002040420F0038B5036804469A68C8
:1007D000D20701D4002038BD9A6822F001029A6045
:1007E000FFF7F0FE054623689B68DB07F2D5FFF7AD
:1007F000E9FE401B0228F6D9A36A012043F010034A
:10080000A362E36A43F00103E36238BD70B50446B6
:10081000002871D0836A23B9C36280F8243002F0C3
:100820006DFC2046FFF7D0FFA36A13F0100FA36AF8
:1008300064D1002862D1E16923F48853626823F00F
:10084000020343F002030A43A168A362E368B1F51F
:10085000807F42EA430238D0012914BF06464FF494
:1008600080766569012D07D1002B30D1A369013B4A
:1008700046EA433545F400662368B1F5807F5D683C
:1008800025F4694545EA06055D609E681D4D05EA4B
:10089000060545EA02059D6001D0012920D12169A4
:1008A00001390905DD6A25F470052943D962996883
:1008B000154B0B409A4215D10023E362A36A23F043
:1008C000030343F00103A36270BD0E46C9E7A36AA8
:1008D00043F02003A362E36A43F00103E362CBE742
:1008E0000021DFE7A36A23F0120343F01003A362A1
:1008F000E36A43F00103E362012070BD43F010039B
:10090000A362F9E7FDF7E1FFFE0E1FFF704700004D
:10091000F7B50246002092F824300190012B00F038
:10092000D8800127D2F808E082F824704E68136856
:100930000D68BEF1000F7BD1BE4273D170469C6B37
:10094000A40DA40544EAC5349C639C68E40707D45D
:100950009C68CF6924F4E04424F001043C439C608B
:100960008C69012C0DD1CF69B7F5E04F17BF906AA4
:100970005F6840F02000906212BF204647F4806715
:100980005F604F69012F05D1002C74D15C6844F47D
:1009900080545C60092D4FEA4504D1F808E070D915
:1009A0004FF0070C2C44DF681E3C0CFA04FC27EACD
:1009B0000C070EFA04F43C43DC60A5F11004012C92
:1009C00098BF9F68DFF81CE19CBF47F400079F6059
:1009D000022ECF6862D0032E66D0012E6AD15969EB
:1009E00001EA0E0139435961012C16D83A498B426C
:1009F00069D19968090210D49968102D41F4000159
:100A000099600AD1354B36491B68B3FBF1F10A23D3
:100A10004B430193019B002B52D1002382F82430D9
:100A200003B0F0BD946A384644F0200494628CE729
:100A30000F69D3F838E0F41B04EB8404BE4204F1E0
:100A40000F0410D807F1FF3C05FA04F747EA0C57EA
:100A50004FF01F0C0CFA04F444F440142EEA040482
:100A60003C439C6371E71F2707FA04F444F44014E5
:100A70002EEA0404F5E7906A40F0200090623846C0
:100A800088E74FF0070C1F692C440CFA04FC27EA96
:100A90000C070EFA04F43C431C618EE7996901EAE5
:100AA0000E01394399619FE7D96901EA0E01394383
:100AB000D96199E7196A01EA0E013943196293E78E
:100AC000019B013BA5E7936A012043F02003936259
:100AD000A3E70220A4E700BF002401400C0000208F
:100AE00040420F0000F0FFFF074A0002D36800F405
:100AF000E06023F4E0631B041B0C43F0BF6343F48A
:100B000000330343D360704700ED00E0174B30B56E
:100B1000DC68C4F30224C4F10703251D042B28BF9D
:100B20000423062D4FF0010598BF002405FA03F3B6
:100B300003F1FF3388BF033C1940A14005FA04F4D8
:100B4000013C2240002842EA01024FEA0212AFBFF4
:100B500000F16040064B00F00F00D2B2A5BFD2B248
:100B600000F561401A5480F8002330BD00ED00E02C
:100B700014ED00E00123420900F01F0003FA00F029
:100B8000014B43F82200704700E100E00138B0F16A
:100B9000807F0AD2F021064B064A586082F8231063
:100BA0000020072298601A6070470120704700BF3C
:100BB00010E000E000ED00E010B5002832D0016840
:100BC000194B1424994225D8184AA3F207430A4422
:100BD000B2FBF4F2920002648468C36343680A685B
:100BE0002343C46822F47F522343046922F0300275
:100BF00023434469234384692343C4692343134340
:100C00000B600122002380F82120836380F82030CC
:100C1000184610BD064B0B44B3FBF4F39B00036472
:100C2000044BD9E7012010BD07040240F8FFFDBFC7
:100C3000F8FBFDBF0004024090F8213010B5022BF4
:100C400003D004238363012010BD03681A6822F0D7
:100C50000E021A601A6822F001021A60294A9342B1
:100C600024D902F56272934219D01432934218D0FB
:100C70001432934217D0143293420CBF4FF4805376
:100C80004FF48033204A53600123002480F8213040
:100C9000436B80F820409BB39847204610BD01234A
:100CA000F0E71023EEE74FF48073EBE717498B4230
:100CB00016D014318B4215D014318B4214D014311C
:100CC0008B4214D014318B4214D014318B4214D087
:100CD000934214BF4FF480334FF080730C4AD2E735
:100CE0000123FBE71023F9E74FF48073F6E74FF495
:100CF0008053F3E74FF48033F0E74FF48013EDE7D0
:100D0000184610BD80000240000402400800024066
:100D10000000024070B40425C66B026C346803689E
:100D200095402542196855D04D0753D51A68960647
:100D30005EBF1A6822F004021A60604A93421FD90B
:100D400002F56272934214D01432934213D01432DB
:100D5000934212D0143293420CBF4FF480434FF4AD
:100D60008023574A5360C36A002B00F0A58070BCF3
:100D700018470423F5E74023F3E74FF48063F0E7D7
:100D800050498B4216D014318B4215D014318B420E
:100D900014D014318B4214D014318B4214D014313E
:100DA0008B4214D0934214BF4FF480234FF08063E2
:100DB000454AD7E70423FBE74023F9E74FF4806374
:100DC000F6E74FF48043F3E74FF48023F0E74FF466
:100DD0008003EDE702259540254257D08D0755D574
:100DE0001A68940606D41A6822F00A021A600122D0
:100DF00080F82120314A93421ED902F56272934253
:100E000013D01432934212D01432934211D01432C0
:100E100093420CBF4FF400534FF40033284A536001
:100E2000002380F82030836A9EE70223F6E7202320
:100E3000F4E74FF40073F1E722498B4216D01431E6
:100E40008B4215D014318B4214D014318B4214D004
:100E500014318B4214D014318B4214D0934214BFFE
:100E60004FF400334FF00073174AD8E70223FBE733
:100E70002023F9E74FF40073F6E74FF40053F3E74C
:100E80004FF40033F0E74FF40013EDE708259540E9
:100E9000254211D009070FD5196821F00E011960FC
:100EA000012303FA02F27260836380F82130002389
:100EB00080F82030036B57E770BC70478000024019
:100EC0000004024008000240000002402DE9F74FF4
:100ED00000221646654BDFF8A4E1DFF8A4C14FF00D
:100EE00001080C6808FA06F808EA0404A0457FD156
:100EF0004D68122D00F0AF8000F28880022D00F0C6
:100F0000A7807CD8002D00F08E80012D00F09E80FF
:100F10004FF00F09FF2C93BF824606F18045083D34
:100F2000D0F800B092BFB500D0F804B0AD0009FA17
:100F300005F82BEA080802FA05F588BF00F1040A53
:100F400048EA0505CAF80050D1F804A01AF0805FFD
:100F50004ED0474D464FAD6926F0030845F00105D8
:100F6000BD61BD6908F1804805F00105019508F5EE
:100F7000803806F0030B019D4FEA8B0BD8F8085020
:100F800009FA0BF925EA09093A4DA84268D005F596
:100F90008065A84266D005F58065A84264D005F555
:100FA0008065A8420CBF0325042505FA0BF545EA28
:100FB0000905C8F808501D681AF4803F14BF25437E
:100FC000A5431D605D681AF4003F14BF2543A54387
:100FD0005D609D681AF4801F14BF2543A5439D6082
:100FE000DD681AF4001F14BF2C4325EA0404DC60FA
:100FF0000136102E7FF473AF03B0BDE8F08F032DE0
:1010000022D0112D84D1CA68043281E71A4FBD4223
:1010100009D012D8DFF86C904D4504D009F580391D
:101020004D457FF475AF8A68C2B1012A0CBFC0F884
:101030001080C0F8148008226AE77545F3D0654532
:10104000F1D0DFF84490EBE7002261E7CA685FE780
:10105000CA6808325CE7CA680C3259E7042257E7CD
:101060000025A2E70125A0E702259EE70004014034
:101070000010024000080140000021100000311063
:101080000000321000001110000022100AB10161AE
:1010900070470904FBE7000003682DE9F341DB0713
:1010A000054614D42B689F0762D42B68190700F1FA
:1010B00099802B685A0700F1C380EA6A002A40F041
:1010C00031812A6A002A40F08481002014E0904C8B
:1010D000636803F00C03042B07D0636803F00C0370
:1010E000082B0CD16368DE0309D523689C03D9D58E
:1010F000AB68002BD6D1012002B0BDE8F081AB680F
:10110000B3F5803F10D1236843F480332360FFF7A9
:1011100059FA064623689803C4D4FFF753FA801B94
:101120006428F7D90320E7E79BB9236823F48033C9
:101130002360236823F480232360FFF743FA0646E5
:1011400023689903AED5FFF73DFA801B6428F7D9D1
:10115000E8E7B3F5A02F236803D143F4802323608D
:10116000D1E723F480332360236823F48023CDE781
:10117000674C636813F00C0F07D0636803F00C032F
:10118000082B10D16368DA030DD423689B0702D5BE
:101190006B69012BAFD12368AA6923F0F80343EAF6
:1011A000C203236081E76A695A4B6AB101221A605F
:1011B000FFF708FA064623689F07ECD4FFF702FA08
:1011C000801B0228F7D9ADE71A60FFF7FBF9064646
:1011D000236898077FF569AFFFF7F4F9801B0228B1
:1011E000F6D99FE7EA694A4C4B4BDAB101221A6003
:1011F000FFF7E8F90646636A9B070DD54FF4FA52EC
:10120000464B1B68B3FBF2F3019300BF019B5A1ED0
:101210000192002BF9D14CE7FFF7D4F9801B02288B
:10122000E9D97FE71A60FFF7CDF90646636A9F07A1
:101230007FF53FAFFFF7C6F9801B0228F6D971E7AB
:10124000334CE369DE0024D40127E36943F0805383
:10125000E361E36903F080530093009B304E3368F1
:10126000D80518D52B69012B26D1236A43F0010339
:101270002362FFF7A7F941F288368046236A9A076E
:101280003FD5002F3FF419AFE36923F08053E361AA
:1012900013E70027E2E7336843F480733360FFF716
:1012A00091F980463368D905DCD4FFF78BF9A0EBC0
:1012B00008006428F6D935E7ABB9236A41F28838CB
:1012C00023F001032362236A23F004032362FFF760
:1012D00079F90646236A9B07D3D5FFF773F9801B7C
:1012E0004045F7D91EE7052B236A03D143F00403D9
:1012F0002362BAE723F001032362236A23F0040385
:10130000B6E7FFF75FF9A0EB0800B042B6D909E7EE
:101310000010024000004242800442420C000020C3
:10132000007000404F4C6368D80308D5636803F031
:101330000C03082B03D1E36AD9033FF5DCAE022A84
:1013400033D12368DA0006D5E36A6A6B03F0F00351
:1013500093427FF4D0AE0023434E3360FFF732F95F
:10136000074623681B011AD4E36A6A6B23F0F00373
:101370001343E362E36A2A6B23F470631343E3626B
:1013800001233360FFF71EF9064623681F013FF56E
:1013900098AEFFF717F9801B6428F6D9C2E6FFF76D
:1013A00011F9C01B6428DCD9BCE60022E36A23F4EF
:1013B0008033E3622C4B1A60FFF704F9064623687A
:1013C00018017FF57EAEFFF7FDF8801B6428F6D983
:1013D000A8E6244C636803F00C03082B3FF48BAEA3
:1013E0000023224E022A33602FD1FFF7EBF8074685
:1013F0002368990123D46B6AB3F5803F09D1E26A6F
:1014000069680A43E262E26AE96822F00F020A436D
:10141000E262A96A62680B4322F4741213436360A8
:1014200001233360FFF7CEF8054623689A013FF5A4
:101430004CAEFFF7C7F8401B0228F6D972E6FFF75B
:10144000C1F8C01B0228D3D96CE6FFF7BBF80546EC
:1014500023689B017FF539AEFFF7B4F8401B0228E3
:10146000F6D95FE600100240680042426000424246
:10147000F0B589B06A462A4B03F10805144618688E
:101480005968083303C4AB422246F7D118689B88D9
:101490002060A380234B04AC03F11005224618689A
:1014A0005968083303C2AB421446F7D11E494B6852
:1014B00003F00C02082A31D1C3F3834208A8024486
:1014C000DB0312F8206C26D5CB6A03F00F0303442C
:1014D00013F8102CCB6A13F4803F144B16D0CF6A4C
:1014E000CC6AC4F303240234A4FB0645A4FB030125
:1014F00003FB0511C7F303130133A3FB0223FEF71C
:1015000097FE0D2E00D1400809B0F0BD03FB06F098
:10151000B0FBF2F0F5E706487043F5E70348F3E760
:10152000E4330008F23300080010024000127A0091
:1015300000093D00544A2DE9F0411368054603F0C7
:1015400007038B420E462AD329688C0734D4CA0776
:1015500047D44D4A136803F007039E42C0F08280CF
:101560002A684A4C12F0040F40F08780130706D512
:1015700063682A6923F4605343EAC2036360FFF798
:1015800077FF6368424AC3F30313D35CD840414BEF
:1015900018600F20FEF7D4FF0020BDE8F08113682B
:1015A00023F007030B431360136803F0070399420A
:1015B000CAD00120BDE8F081344B11F0040F1EBFEA
:1015C0005A6842F4E0625A60080742BF5A6842F41F
:1015D00060525A605A68A86822F0F00202435A60CA
:1015E000B5E76A68294C012A23681CD113F4003F2F
:1015F000DFD0636841F2883823F00303134363604C
:10160000FEF7E0FF6B680746012B14D1636803F017
:101610000C03042B9DD0FEF7D5FFC01B4045F5D928
:101620000320BDE8F081022A02D113F0007FDFE73A
:1016300013F0020FDCE7022B0FD1636803F00C03F9
:10164000082B86D0FEF7BEFFC01B4045F5D9E7E763
:10165000FEF7B8FFC01B4045E2D8636813F00C0FDB
:10166000F6D176E7136823F007033343136013685A
:1016700003F007039E429CD172E76368E96823F494
:10168000E0630B43636071E70020024000100240FA
:10169000293400080C000020044B054A5B68C3F3A2
:1016A0000223D35C034A1068D84070470010024000
:1016B000393400080C000020044B054A5B68C3F372
:1016C000C223D35C034A1068D84070470010024020
:1016D000393400080C00002003682DE9F34113F0B1
:1016E000010F0546574C1FD0E369DA0047D40127A4
:1016F000E36943F08053E361E36903F080530193AE
:10170000019B514E3368DB053BD5236A13F44073CC
:101710004BD1236A6A6823F44073134323621FB1D9
:10172000E36923F08053E3612A68930705D5636872
:10173000A96823F440430B436360570705D5E36A68
:10174000E96823F400330B43E362160705D5E36A27
:101750002A6923F480231343E362E36A980366D47F
:10176000E36A590363D4286810F010001AD0636844
:10177000EA6923F4800313436360002012E000272A
:10178000BFE7336843F480733360FEF71BFF804686
:101790003368D805B9D4FEF715FFA0EB080064281C
:1017A000F6D9032002B0BDE8F0816A6802F4407205
:1017B0009342AED00120254A236A1060002023F412
:1017C000407110602162D907A3D5FEF7FBFE41F2FC
:1017D00088380646236A9A079BD4FEF7F3FE801BDF
:1017E0004045F7D9DDE72368A96913F0806F04D07D
:1017F000E26A02F0F0028A4222D1E36A23F0F003A7
:101800000B43E362E36A6A6923F4704313430122E2
:10181000E3620F4B1A60FEF7D5FE064623689A0076
:10182000A1D4FEF7CFFE801B6428F7D9B9E723685F
:10183000DB00D8D5E36A6A6903F47043934292D01F
:101840000120AFE700100240007000404004424217
:1018500070004242036A70B523F001030362036A19
:10186000446882690D6822F073022A438D6823F070
:1018700002032B430A4DA8420BD1CD6823F0080385
:101880002B438E694D6924F44074354323F00403DF
:101890002C43446082614A684263036270BD00BFAA
:1018A000002C0140036A70B523F480730362036A5D
:1018B0004468C2690D6822F073022A438D6823F4DC
:1018C000007343EA05230B4DA8420DD1CD6823F4E4
:1018D000006343EA05238E694D6924F4405435437F
:1018E00023F4806344EA05144460C2614A68C26319
:1018F000036270BD002C0140036A30B523F48053AD
:101900000362036A4468C2690D6822F4E64242EA4F
:1019100005228D6823F4005343EA0533064DA8429F
:1019200002BF4D6924F4804444EA85144460C261D6
:101930004A680264036230BD002C0140704790F891
:101940003C3070B5012B4FF002031CD0012280F80F
:101950003D30036880F83C209A6822F47F4222F0F0
:1019600077029A600A68402A79D019D8102A00F0C4
:1019700093800AD8002A00F08980012380F83D3046
:10198000002380F83C30184670BD202A00F08A8081
:10199000302AF2D19A6822F0700242F0370236E023
:1019A000702A36D01BD8502A42D0602AE5D11C6A52
:1019B0004D6824F01004CE681C6299691A6A21F4FB
:1019C000704122F0A00242EA051241EA0631996113
:1019D0001A629A6822F0700242F0670217E0B2F5CC
:1019E000805F11D0B2F5005FC7D18A684D689C68EE
:1019F000C9682A4324F47F4442EA012222439A60C0
:101A00009A6842F4804202E09A6822F007029A60E3
:101A1000B3E78A684D689C68C9682A4324F47F4408
:101A200042EA012222439A609A6842F07702EEE786
:101A30004C68CE68196A1D6A21F00A0125F001057B
:101A40001D629A69214322F0F00242EA06129A616D
:101A500019629A6822F0700242F05702D7E74C6888
:101A6000CE68196A1D6A21F00A0125F001051D6280
:101A70009A69214322F0F00242EA06129A61196241
:101A80009A6822F0700242F04702C0E79A6822F09A
:101A9000700242F00702BAE79A6822F0700242F040
:101AA0001702B4E79A6822F0700242F02702AEE70C
:101AB00070477047704770477047036810B51A69E0
:101AC000044691070ED5DA6892070BD56FF0020233
:101AD0001A6101229B6902779B0777D0FFF7EAFF23
:101AE0000023237723681A69500710D5DA68510755
:101AF0000DD56FF004021A6102229B69227713F45C
:101B0000407F204668D0FFF7D5FF00232377236866
:101B10001A6912070FD5DA6810070CD56FF00802A2
:101B20001A610422DB692277990720465AD0FFF711
:101B3000C1FF0023237723681A69D20610D5DA681B
:101B4000D0060DD56FF010021A610822DB692277EA
:101B500013F4407F20464BD0FFF7ACFF00232377E0
:101B600023681A69D10708D5DA68D20705D56FF05E
:101B7000010220461A61FFF79BFF23681A691006CD
:101B800008D5DA68110605D56FF0800220461A6183
:101B900000F07DF923681A69520608D5DA68500604
:101BA00005D56FF0400220461A61FFF785FF2368D4
:101BB0001A69910622D5DA6892061FD56FF02002C5
:101BC0002046BDE810401A6100F060B9FFF771FFD0
:101BD0002046FFF770FF83E7FFF76BFF2046FFF714
:101BE0006AFF92E7FFF765FF2046FFF764FFA0E773
:101BF000FFF75FFF2046FFF75EFFAFE710BD000075
:101C00001E4A036890420ED0B0F1804F0BD0A2F56F
:101C10009432904207D002F58062904203D002F5E0
:101C20008062904219D14A6823F070031343134A2B
:101C300090420ED0B0F1804F0BD0A2F5943290427A
:101C400007D002F58062904203D002F58062904294
:101C500003D1CA6823F4407313434A6923F0800315
:101C6000134303608B68C3620B688362034B984223
:101C700004BF0B690363012343617047002C0140DB
:101C800010B50446A0B190F83D3003F0FF021BB937
:101C900080F83C2001F068FA0223206884F83D3087
:101CA000211DFFF7ADFF0123002084F83D3010BD5A
:101CB000012010BD10B50446A0B190F83D3003F0EE
:101CC000FF021BB980F83C20FFF738FE0223206892
:101CD00084F83D30211DFFF793FF0123002084F895
:101CE0003D3010BD012010BD036A70B523F0100314
:101CF0000362036A446882690D6822F4E64242EA9C
:101D000005228D6823F0200343EA05130B4DA842FA
:101D10000DD1CD6823F0800343EA05138E694D6928
:101D200024F44064354323F0400344EA85044460CE
:101D300082614A688263036270BD00BF002C01406B
:101D400038B590F83C300446012B4FF0020025D006
:101D5000012384F83D0084F83C300C2A18D8DFE8D1
:101D600002F0071717171E1717172F17171740001E
:101D70002068FFF76FFD236809699A6942F008023D
:101D80009A619A6922F004029A619A690A439A61F7
:101D90000123002084F83D3084F83C0038BD2068E1
:101DA000FFF7A2FF236809699A6942F400629A6109
:101DB0009A6922F480629A619A6942EA0122E6E70E
:101DC0002068FFF76FFD23680969DA6942F00802AD
:101DD000DA61DA6922F00402DA61DA690A43DA6167
:101DE000D6E72068FFF788FD23680969DA6942F4BD
:101DF0000062DA61DA6922F48062DA61DA6942EA61
:101E00000122ECE710B50124036A8C4023EA0403A5
:101E10000362036A8A401A43026210BD10B5044689
:101E200001220068FFF7EEFF2368064A0020934274
:101E300002BF5A6C42F400425A641A6842F001022E
:101E40001A6010BD002C014090F83C3010B5012BF9
:101E50004FF0020318D080F83D3003680C685A68D0
:101E6000496822F070025A605A6822435A609A68A0
:101E700022F080029A609A680A439A60012380F8EF
:101E80003D30002380F83C30184610BD7047704745
:101E90000368DA6822F49072DA605A6922F001026B
:101EA0005A61202380F83A30704700002DE9F0474E
:101EB0000568C2682B69016923F4405313432B6101
:101EC0008368EA680B43416922F4B05222F00C02A5
:101ED0000B431343EB606B69826923F44073134334
:101EE0006B61404B81469D424FF0190446D1FFF78C
:101EF000E3FB04FB00F3D9F804604FF06408B6007C
:101F0000B3FBF6F3B3FBF8F31E01FFF7D5FB604319
:101F1000D9F804309B00B0FBF3F7FFF7CDFB60432B
:101F2000D9F804309B00B0FBF3F3B3FBF8F308FBE4
:101F300013731B013233B3FBF8F303F0F007FFF721
:101F4000BBFB6043D9F804209200B0FBF2FAFFF724
:101F5000B3FB6043D9F804309B00B0FBF3F3B3FB51
:101F6000F8F308FB13A31B013233B3FBF8F303F0C0
:101F70000F033B433344AB60BDE8F087FFF78CFBB6
:101F800004FB00F3D9F804604FF06408B600B3FB1B
:101F9000F6F3B3FBF8F31E01FFF77EFB6043D9F8BD
:101FA00004309B00B0FBF3F7FFF776FB6043D9F8F2
:101FB00004309B00B0FBF3F3B3FBF8F308FB13739F
:101FC0001B013233B3FBF8F303F0F007FFF764FBB8
:101FD0006043D9F804209200B0FBF2FAFFF75CFBF3
:101FE000B7E700BF0038014010B5044640B390F891
:101FF000393003F0FF021BB980F8382001F00CF9EA
:102000002423226884F83930D368204623F400530F
:10201000D360FFF74BFF236800201A6922F4904237
:102020001A615A6922F02A025A61DA6842F40052AF
:10203000DA602023E06384F8393084F83A3010BD48
:10204000012010BD7047704790F83A3010B5222B30
:1020500036D183680169B3F5805F0268836A23D152
:102060005268E9B9C2F3080223F8022B8362C48DD7
:10207000013CA4B2C4858CB90368DA6822F020025E
:10208000DA60DA6822F48072DA605A6922F00102BA
:102090005A61202380F83A30FFF7D5FF002010BDA9
:1020A000D2B223F8012BE1E721B9591C52688162B1
:1020B0001A70DCE75268591C816202F07F02F7E770
:1020C000022010BD70470000036870B51A6804460E
:1020D0001607D9685D6907D196065AD58D0658D579
:1020E000BDE87040FFF7B0BF15F0010502D111F453
:1020F000907F4ED0D30705D5CE0542BFE36B43F0AA
:102100000103E363500704D51DB1E36B43F0020301
:10211000E363930704D51DB1E36B43F00403E3636A
:10212000160704D51DB1E36B43F00803E363E36BCB
:10213000002B66D0950604D5880602D52046FFF709
:1021400083FF236820465D69E26B110702D415F016
:1021500040051AD0FFF79CFE23685A69520610D535
:102160005A69606B22F040025A6150B1254B4363BB
:10217000FEF762FD002844D0606BBDE87040436B01
:1021800018472046FFF79EFF70BDFFF79BFFE563F2
:1021900070BD160627D50D0625D594F83920212ABD
:1021A0002FD1A268B2F5805F226A17D11188C1F3DE
:1021B00008015960216979B902322262E28C013A40
:1021C00092B2E284EAB9DA6822F08002DA60DA6870
:1021D00042F04002DA6070BD0132EEE7511C21622C
:1021E00012785A60EAE750060BD54A0609D5DA6834
:1021F000204622F04002DA60202384F83930FFF7CD
:1022000021FF70BD0922000808B50023406AC3857C
:10221000C384FFF757FF08BD08B500F099FB002005
:1022200008BD30B5B0F9084085B0842C08BF002443
:10223000028A18BF03340B4690E8220003A80190DD
:102240000094284600F0B4FA012814BF0020039837
:1022500005B030BD08B5002808BF012000F0C6FC5D
:10226000002008BD08B500F059FD012803D0BDE8E5
:10227000084000F0E7B808BD00F1080343604FF0E4
:10228000FF32C36003610023826003607047002354
:102290000361704743689A684B608A609A6851602E
:1022A0009960036808610133036070470A6830B5BC
:1022B000531C0AD103695A684A6091608B60596067
:1022C000036808610133036030BD00F108035C68F6
:1022D0002568AA42EFD32346F9E74168826803697B
:1022E0008A60826851605968884208BF5A6000223B
:1022F0000261186801381860704700000A4B1B68BB
:10230000013308D04FF0500383F31188BFF36F8F70
:10231000BFF34F8FFEE74FF0500383F31188BFF3F5
:102320006F8FBFF34F8FFEE708000020064800685C
:10233000006880F3088862B661B6BFF34F8FBFF3C1
:102340006F8F00DF00BF000008ED00E04FF08073EA
:1023500040F8043C054B21F0010140F8081C40F80E
:102360000C3C40F8202C4038704700BFFD2200088C
:10237000074B19680868B0E8F00F80F30988BFF3CD
:102380006F8F4FF0000080F311884EF00D0E7047F4
:102390006C4E00204FF0500383F31188BFF36F8F12
:1023A000BFF34F8F0A4A13680133012B13600DD11D
:1023B000084B1B6813F0FF0F08D04FF0500383F356
:1023C0001188BFF36F8FBFF34F8FFEE7704700BFD9
:1023D0000800002004ED00E0084A136843B94FF0FC
:1023E000500383F31188BFF36F8FBFF34F8FFEE766
:1023F000013B13600BB983F311887047080000207C
:10240000EFF30980BFF36F8F0D4B1A6820E9F00FCF
:1024100010602DE908404FF0500080F3118800F063
:1024200043FC4FF0000080F31188BDE808401968B4
:102430000868B0E8F00F80F30988BFF36F8F70472A
:102440006C4E002008B54FF0500383F31188BFF3A2
:102450006F8FBFF34F8F00F0BFFA18B14FF080526B
:10246000024B1A60002383F3118808BD04ED00E0DD
:102470004FF47A72054B1B68B3FBF2F3044A013B3D
:1024800013600722034B1A60704700BF0C00002046
:1024900014E000E010E000E013B51F4B00211A78B3
:1024A000D2B20192FF221A701B781C4ADBB28DF85F
:1024B00003309DF8033003F0500313700722184BCC
:1024C0001A609DF80300541E00061CD401B11A6066
:1024D0001A68120202F4E0621A60019B0E4ADBB233
:1024E0001370104B1A6842F470021A601A6842F0B6
:1024F00070421A60FFF7BCFF00220B4B1A60FFF717
:1025000015FFFFF7FBFE9DF8032001215200D2B218
:102510008DF803202246D4E700E400E02C000020E0
:102520003000002020ED00E00800002010B50F4B27
:102530001A68824218D35C681919884201BF416841
:10254000184609195960446801198A4207D1084997
:1025500009688A421FBF5168126809194160984290
:10256000026018BF186010BD1346E1E7644E0020FA
:10257000340000202DE9F041044600F025FA3D49E1
:102580003D4D0B68FBB93D4A002056070FBF44F68E
:10259000206307323A4B22F0070218BF9B1A1344FC
:1025A000384E083B23F007037060326058601860B3
:1025B0000B60981A1360344B50601860334B1860EE
:1025C0004FF000432B602F68274216D1002C40D0DB
:1025D00004F1080358071CBF23F00703083363B155
:1025E0002A4A16689046B34207D8264A1568686892
:1025F000834204D809688D4207D1002429E02C6861
:10260000002CF7D02A462546F1E7296814681160A6
:10261000C21A102A0FD9E818410708D04FF050030A
:1026200083F31188BFF36F8FBFF34F8FFEE74260D4
:102630006B60FFF77BFF6B681349F61A1F4300239B
:102640000868C8F80060864238BF0E6008346F60C2
:102650002B6000F053FA630708D04FF0500383F368
:102660001188BFF36F8FBFF34F8FFEE72046BDE8A1
:10267000F08100BF34000020584E002038000020B8
:10268000584E0020644E0020604E00205C4E00201A
:1026900010B5044670B3184A50F8043C126813424F
:1026A00008D14FF0500383F31188BFF36F8FBFF34E
:1026B0004F8FFEE750F8081C41B14FF0500383F3F1
:1026C0001188BFF36F8FBFF34F8FFEE723EA02033A
:1026D00040F8043C00F078F9084A54F8043C1168CA
:1026E000A4F108000B441360FFF720FFBDE8104081
:1026F00000F004BA10BD00BF584E00205C4E002010
:10270000064A13681968064B19B94FF0FF321A6070
:1027100070471268D268D2685268F8E7704E00209D
:10272000484F0020F8B51B4B1B4E1D68044630680F
:102730000F460430FFF7D1FD334640B90120316820
:10274000164EC96A3268884022EA00023260621C72
:1027500007D137B1196812480431BDE8F840FFF7D6
:1027600099BD2C441A68A542546007D90D4A1068D7
:102770001968BDE8F8400431FFF798BD0A4A1068AF
:1027800019680431FFF792FD084B1A68944238BF6C
:102790001C60F8BD904F00206C4E0020184F0020A8
:1027A000684F0020744E0020704E0020484F0020DB
:1027B0002DE9F84F4FEA820A804650460F46994667
:1027C0000B9EFFF7D7FE0546002800F096805420A8
:1027D000FFF7D0FE0446002800F08C80AAF1040A1E
:1027E000056355447B1E25F0070A00F134020F37BC
:1027F000597802F8011B13F8011F09B1BB42F7D148
:102800000A9D4FF0000B062D28BF0625271DE56207
:102810006564384684F843B0C4F848B0FFF737FD24
:10282000C5F1070504F11800FFF731FDC4F84CB0FD
:102830002461A561646284F850B04A46414650461E
:10284000FFF784FD206006B13460FFF7A3FD324B33
:10285000324E1A68DFF8F08001321A603568002DB8
:102860004ED134601B68012B1DD108EB05001435D7
:10287000FFF702FD8C2DF8D1DFF8D090284D4846A7
:10288000FFF7FAFC2846FFF7F7FC2648FFF7F4FCB1
:102890002548FFF7F1FC2548FFF7EEFC244BC3F871
:1028A0000090244B1D600125234A244913680868C1
:1028B00001331360E26A05FA02F3034314200B604C
:1028C00000FB02803946FFF7E5FCFFF785FD1C4B56
:1028D0001B6863B13368DA6AE36A9A4207D24FF041
:1028E0008052184B1A60BFF34F8FBFF36F8F28468B
:1028F000BDE8F88F2846FFF7CBFE4FF0FF35F6E72F
:102900000F4B1B68002BCED13368DA6AE36A9A4218
:1029100098BF3460C7E700BF044F00206C4E002012
:10292000304F0020504F00207C4F0020684F002087
:10293000704E0020744E0020144F0020184F0020CD
:10294000644F002004ED00E0784E00201C4F002072
:1029500013B50024164B0094019380222346154999
:102960001548FFF725FF012814D14FF0500383F3DA
:102970001188BFF36F8FBFF34F8F4FF0FF320F4BB4
:102980001A600F4B18600F4B1C6002B0BDE810407E
:10299000FFF782BD013008D14FF0500383F3118857
:1029A000BFF36F8FBFF34F8FFEE702B010BD00BFC4
:1029B000444F002018340008352C0008484F0020F0
:1029C000644F0020904F0020024A136801331360C7
:1029D000704700BF104F00202DE9F84F3C4B1B689B
:1029E000002B53D13B4B1C6801341C60BCB93A4BE3
:1029F0001A68126842B14FF0500383F31188BFF395
:102A00006F8FBFF34F8FFEE7344A19681068186064
:102A10001160334A136801331360FFF771FE314DC3
:102A20004FF0000B2B68304F9C423ED3DFF8A8805C
:102A3000DFF8C490D8F80020126872BB4FF0FF3264
:102A40002A6032E006F1040A5046FFF746FCB16AFC
:102A500019B106F11800FFF740FC01224FF0140EE7
:102A6000F06AD9F8003002FA00F119431F4BC9F897
:102A700000100EFB00305146FFF70CFC3868F16A7D
:102A8000C26A914228BF4FF0010BD3E7184A4FF0BA
:102A9000000B13680133136011E0D8F80020D268EE
:102AA000D66871688C42CDD229603A680F4BD16AE2
:102AB00014224A439A58022A28BF4FF0010B0D4AAC
:102AC0001268002A18BF4FF0010B5846BDE8F88F76
:102AD000104F0020904F0020704E0020744E0020B8
:102AE0004C4F0020484F00206C4E0020784E0020B4
:102AF0000C4F0020944F0020184F00202DE9F84380
:102B0000314C236843B94FF0500383F31188BFF36E
:102B10006F8FBFF34F8FFEE7FFF73CFC2368013B4D
:102B2000236024682CB10024FFF756FC2046BDE842
:102B3000F883264B1B68002BF5D0DFF8A890244FB4
:102B4000DFF8A480D9F80030E3B90CB1FFF7D8FD65
:102B5000204D2C6844B101271F4EFFF73DFF00B107
:102B60003760013CF9D12C601B4B1B68002BDAD07D
:102B70004FF08052194B1A60BFF34F8FBFF36F8F26
:102B80000124D1E7D9F80C300125DC68261D04F1B9
:102B90001800FFF7A2FB3046FFF79FFB1420E26A04
:102BA000396805FA02F30B4300FB028031463B60B3
:102BB000FFF770FB0A4BE26A1B68DB6A9A4224BF8C
:102BC000054B1D60BEE700BF104F0020044F0020E2
:102BD000184F00200C4F0020944F002004ED00E01F
:102BE0006C4E0020504F0020784E002008B540B9B0
:102BF0004FF080520D4B1A60BFF34F8FBFF36F8FB2
:102C000008BD0B4B196841B14FF0500383F3118895
:102C1000BFF36F8FBFF34F8FFEE7FFF7D5FEFFF7D0
:102C200081FDFFF76BFF0028E2D008BD04ED00E056
:102C3000104F002008B5174E174C236863B9174B87
:102C40001B68012BF8D94FF08052154B1A60BFF367
:102C50004F8FBFF36F8FEFE7FFF7B6FE3568FFF7D3
:102C60004DFF002DE9D0FFF795FBF368DD68281DC7
:102C7000FFF733FB0B4A1368013B13602368013BEA
:102C80002360FFF7A9FB286BFFF702FD2846FFF73B
:102C9000FFFCD2E77C4F0020084F0020784E002038
:102CA00004ED00E0044F0020174B10B51A68174BD5
:102CB00012B101221A6010BD1A60154B1B68B3FADD
:102CC00083F31422DBB2C3F11F035A4311498C581A
:102CD000881844B94FF0500383F31188BFF36F8F06
:102CE000BFF34F8FFEE74468083264680A44944299
:102CF00008BF6268446008BF4260142202FB0313ED
:102D00005B68DA68044BD5E7104F0020944F002031
:102D1000184F0020784E00206C4E0020054B1B6899
:102D200033B1054B1B68002B0CBF022000207047FD
:102D300001207047644F0020104F00202DE9F74F0D
:102D40006FF063084BF29009414647F2305544F664
:102D500020664FF0640A42F21074CB46174F1FFAF8
:102D60008AF00444A4B21FFA88F2A4F1C80E1544F4
:102D70001FFA8EFECE45ADB288BFC0F1000AA5F1A4
:102D8000C8008BB280B21E4488BF0FFA8AFA584539
:102D900088BF5242B6B288BF0FFA82F8A6F1C802C5
:102DA00092B24A4584BF5B4219B201910A207E6308
:102DB000BD63FC63FFF74EFA0199D0E700040040C1
:102DC000382230B59DB00DEB0200002100F0F5FA7D
:102DD0001422002101A800F0F0FA2022002106A808
:102DE00000F0EBFA4FF4803302240125109317937F
:102DF0004FF4E0130EA818930E9513951694FEF752
:102E00004BF90F234FF4806201930023214601A860
:102E10000393049205930294FEF78CFB4FF4004356
:102E200006A808930694FEF757FC024B1D601DB0E0
:102E300030BD00BF7000424280B500244FF480795D
:102E400092B08D4DFDF7A0FBFFF7BAFF10220021D5
:102E50000AA800F0B2FAAB69012243F02003AB618B
:102E6000AB694FF4006103F020030193019BAB6950
:102E7000824843F00403AB61AB69012603F004030D
:102E80000293029BAB69042743F00803AB61AB6973
:102E90004FF0030803F008030393039BFEF7F6F8D3
:102EA000002204217648FEF7F1F800224FF47E71EB
:102EB0007448FEF7EBF80AA97048CDF828900B94F7
:102EC0000C94FEF703F84FF400630AA96B480A93C9
:102ED0000B960D960C94FDF7F9FF0AA968480B961E
:102EE0000A970C94CDF83480FDF7F0FF4FF47E7311
:102EF0000AA964480A930B960C94CDF83480FDF728
:102F0000E5FF6B69224633436B616B6905213340F2
:102F100000930E20009BFDF7F9FD0E20FDF72AFE21
:102F2000202221460AA8584D06940794089400F0E0
:102F300044FA564B28462B604FF460232E61EB6118
:102F4000C5F80890EC606C616C60FDF75FFC06A949
:102F50002846079606940894FDF7B2FB07230C93C6
:102F60004FF4E0430AA9284611930B960A940E9752
:102F700010940F940D94FDF7CBFC0A9602260AA933
:102F800028460B96FDF7C4FC0AA928460A96CDF8F8
:102F90002C80FDF7BDFC0AA92846CDF828800B97A8
:102FA000FDF7B6FC1022214606A800F006FA1C2206
:102FB00021460AA8364D0494059400F0FEF9354BDD
:102FC000284685E818004FF6FF73AC60EB602C6173
:102FD000AC61FEF755FE4FF4805306A928460693D0
:102FE000FEF7ADFC2846FEF765FE04A928460494CA
:102FF0000594FEF729FF602322460AA928460A9372
:103000000B940C940E94FEF79BFE3A460AA92846B0
:10301000FEF796FE0AA908222846FEF791FE2846EA
:1030200000F0C0F84FF496431B481C4A846080E8C7
:103030000C000C23C460436104618461C461FEF729
:10304000D3FF21462846FEF7E9FE154E39462846AD
:10305000FEF7E4FE082128460AADFEF7DFFE0FCE9C
:103060000FC5336821460AA82B60FFF7DAF80D4B2D
:103070001860FFF7D1F8FEE7001002400008014099
:1030800000140140000C01402450002000240140A5
:10309000A04F0020000400405450002000380140A0
:1030A000043400089C4F002070470000114B07B506
:1030B0009A690F2142F001029A619A696FF001004A
:1030C00002F001020092009ADA6942F08052DA615D
:1030D000DB69002203F080530193019BFDF716FD8D
:1030E000054A536823F0E06343F00073536003B074
:1030F0005DF804FB001002400000014010B50446DA
:1031000086B01022002102A800F057F92268144B63
:103110009A4223D103F56C439A6902A942F40072E2
:103120009A619A690F4802F400720092009A9A69B3
:1031300042F004029A619B6903F004030193019B2E
:103140000F23029303230393FDF7C0FE12200022F6
:103150000521FDF7DBFC1220FDF70CFD06B010BDCC
:10316000002401400008014007B50D4B02689A4257
:1031700012D103F50333DA691D2042F00202DA614D
:10318000DB69002203F0020301930521019BFDF797
:10319000BDFC1D20FDF7EEFC03B05DF804FB00BF95
:1031A0000004004010B5044686B01022002102A899
:1031B00000F003F92268154B9A4224D103F503333A
:1031C0009A69022442F004029A619A6902A902F003
:1031D00004020092009A9A690D4842F008029A612E
:1031E0009B69039403F008030193019BC02305949A
:1031F0000293FDF76BFE012302A906480293039494
:103200000594FDF763FE06B010BD00BF000400404A
:1032100000080140000C0140F0B51027064687B0B9
:103220003A46002102A800F0C8F83268244B9A42BE
:1032300043D103F558439A6902A942F480429A6146
:103240009A69204802F480420092009A9A69002507
:1032500042F004029A619B691B4C03F00403019342
:10326000019B4FF4007302930223039303230593FE
:10327000FDF72CFE4FF48063124802A902930395D8
:103280000495FDF723FE114B204684E88800802337
:10329000A560E36025616561A561E561FDF78CFCD2
:1032A00008B1FFF701FF2520346300220521666283
:1032B000FDF72CFC2520FDF75DFC07B0F0BD00BF3D
:1032C0000038014000080140E04F00204400024067
:1032D0007047FEE7FEE7FEE7FEE7704708B5FDF73B
:1032E00065F9BDE80840FEF7BDBF00000148FDF7E5
:1032F00011BD00BFE04F00200148FDF76BB900BFD2
:10330000245000200148FEF7D8BB00BFA04F00208A
:103310000148FEF7D9BE00BF54500020124B1A6876
:1033200042F001021A605968104A0A405A601A684D
:1033300022F0847222F480321A601A6822F4802209
:103340001A605A6822F4FE025A601A6822F0A052EB
:103350001A604FF47F029A600022DA624FF0006236
:10336000034B9A60704700BF001002400000FFF05E
:1033700000ED00E0002103E00A4B5B5843500431AC
:1033800009480A4B42189A42F6D3094A02E0002340
:1033900042F8043B074B9A42F9D3FFF7BFFFFFF710
:1033A0004BFD70475434000800000020100000203E
:1033B0001000002094500020FEE703460244934290
:1033C00000D1704703F8011BF9E70000F8B500BF12
:1033D000F8BC08BC9E467047F8B500BFF8BC08BCF6
:0433E0009E4670474E
:1033E400000004050607080900000000000D0102A2
:1033F400030405060708090A0B0C0D0E0F10000044
:103404001D3400083D2D00080000000000000000ED
:103414008000000049444C450064656661756C7425
:103424005461736B000000000000000000010203FF
:10343400040607080900000000010203040000005C
:083444001CCEFF7F0100000017
:04344C00150200085D
:04345000F10100087E
:103454000100000010000000AAAAAAAA00A24A04BF
:040000050800337547
:00000001FF
